{
  "transactions": [
    {
      "hash": "0x73cc20a114bdd133f37149bf2d3e49b8e69f682197c1f60e1865f9014c8673be",
      "transactionType": "CREATE",
      "contractName": "RebalanceAdapter",
      "contractAddress": "0x1d0c191a0fe2917e244826d3a8d0a64503efaec8",
      "function": null,
      "arguments": null,
      "transaction": {
        "from": "0x3aa518bd9ee447e3f71c01b69a0d5d49c534e05f",
        "gas": "0x37ee16",
        "value": "0x0",
        "input": "0x60a0806040523460295730608052613254908161002e82396080518181816109af015261104c0152f35b5f80fdfe6080806040526004361015610012575f80fd5b5f905f3560e01c90816302930bd1146115975750806303882edf1461156d5780631e009f311461155157806321da49ce1461139a5780632b3074391461134b5780632e6a43b1146113315780634f1ef28614610fc35780634f9bfd3514610f715780634fd9efc414610a2757806352d1902d146109875780635ddd4eed1461094a578063715018a61461088c5780637327df251461083057806378cb51af146107e25780638b1e30d7146107a55780638da5cb5b146107525780639b4faa801461072b578063a089c639146106d8578063ad3cb1cc14610646578063bc64491614610621578063cbf24d25146105da578063cd4b9378146105b7578063defd89a114610564578063e5f1237b14610527578063edf32aad146104ea578063ef65dbfd146104ad578063f2fde38b14610483578063f581144714610269578063f5b8fbbb1461022c578063f9216f84146101d9578063fdaab5741461019c5763fe67a54b1461017e575f80fd5b34610199578060031936011261019957610196612585565b80f35b80fd5b503461019957806003193601126101995760207fb16e43fdb4a23e2eb5ac7d6fe250e1e010c7a5096910e708d8b2faba66b7d80154604051908152f35b50346101995760a06003193601126101995760206101f5611dbd565b6101fe36611e03565b6102088183612b44565b918261021b575b50506040519015158152f35b6102259250612c64565b828061020f565b503461019957806003193601126101995760207fb16e43fdb4a23e2eb5ac7d6fe250e1e010c7a5096910e708d8b2faba66b7d80054604051908152f35b5034610199578060031936011261019957610282612585565b61028a611ecf565b901561045b576effffffffffffffffffffffffffffff42166effffffffffffffffffffffffffffff7f5a17ed03c9224a83c249c4c9f6b3c3ee77f4a278901f975cbdbdcd094252ab02541681016effffffffffffffffffffffffffffff811161042e5791610428917ff4abeb4e86da8daeeedadd019e0dc8ceb3b8bb0c60174482bcdb533332f89ac8936040519261032184611d44565b15159182845260208401526effffffffffffffffffffffffffffff811660408401527fff0000000000000000000000000000000000000000000000000000000000000060ff7effffffffffffffffffffffffffffff000000000000000000000000000000007f5a17ed03c9224a83c249c4c9f6b3c3ee77f4a278901f975cbdbdcd094252ab01549360801b1693169116176fffffffffffffffffffffffffffffff004260081b1617177f5a17ed03c9224a83c249c4c9f6b3c3ee77f4a278901f975cbdbdcd094252ab01556040519182918291909160406effffffffffffffffffffffffffffff816060840195805115158552826020820151166020860152015116910152565b0390a180f35b6024847f4e487b710000000000000000000000000000000000000000000000000000000081526011600452fd5b6004827f83232b52000000000000000000000000000000000000000000000000000000008152fd5b5034610199576020600319360112610199576101966104a0611dbd565b6104a8612ad8565b612498565b503461019957806003193601126101995760207f5a17ed03c9224a83c249c4c9f6b3c3ee77f4a278901f975cbdbdcd094252ab0454604051908152f35b503461019957806003193601126101995760207f5a17ed03c9224a83c249c4c9f6b3c3ee77f4a278901f975cbdbdcd094252ab0354604051908152f35b503461019957806003193601126101995760207f0c0c36e5d849345ad68de971568490058599308849c5c9b43b43ea5781d5130254604051908152f35b5034610199578060031936011261019957602073ffffffffffffffffffffffffffffffffffffffff7fb8978c109109e89ddaa83c20e08d73ed7aedae610788761a7cdcbd1d2ce423015416604051908152f35b50346101995780600319360112610199576020604051670de0b6b3a76400008152f35b5034610199576020600319360112610199576105f4611dbd565b5060207f0c0c36e5d849345ad68de971568490058599308849c5c9b43b43ea5781d5130154604051908152f35b5034610199578060031936011261019957602061063c61244c565b6040519015158152f35b5034610199578060031936011261019957604080516106658282611d7c565b600581527fffffffffffffffffffffffffffffffffffffffffffffffffffffffffffffffe0601f602083017f352e302e3000000000000000000000000000000000000000000000000000000081528451958694602086525180928160208801528787015e85828601015201168101030190f35b5034610199578060031936011261019957602073ffffffffffffffffffffffffffffffffffffffff7fb8978c109109e89ddaa83c20e08d73ed7aedae610788761a7cdcbd1d2ce423005416604051908152f35b503461019957602060031936011261019957602061074a600435612241565b604051908152f35b5034610199578060031936011261019957602073ffffffffffffffffffffffffffffffffffffffff7f9016d09d72d40fdae2fd8ceac6b6234c7706214fd39c1cd1e609a0528c1993005416604051908152f35b503461019957806003193601126101995760207f0c0c36e5d849345ad68de971568490058599308849c5c9b43b43ea5781d5130154604051908152f35b503461019957806003193601126101995760206effffffffffffffffffffffffffffff7f5a17ed03c9224a83c249c4c9f6b3c3ee77f4a278901f975cbdbdcd094252ab025416604051908152f35b503461019957806003193601126101995761088861084c61219f565b6040519182918291909160406effffffffffffffffffffffffffffff816060840195805115158552826020820151166020860152015116910152565b0390f35b50346101995780600319360112610199576108a5612ad8565b8073ffffffffffffffffffffffffffffffffffffffff7f9016d09d72d40fdae2fd8ceac6b6234c7706214fd39c1cd1e609a0528c199300547fffffffffffffffffffffffff000000000000000000000000000000000000000081167f9016d09d72d40fdae2fd8ceac6b6234c7706214fd39c1cd1e609a0528c19930055167f8be0079c531659141344cd1fd0a4f28419497f9722a3daafe3b4186f6b6457e08280a380f35b503461019957806003193601126101995760207f0c0c36e5d849345ad68de971568490058599308849c5c9b43b43ea5781d5130054604051908152f35b503461019957806003193601126101995773ffffffffffffffffffffffffffffffffffffffff7f00000000000000000000000000000000000000000000000000000000000000001630036109ff5760206040517f360894a13ba1a3210667c828492db98dca3e2076cc3735a920a3ca505d382bbc8152f35b807fe07c8dba0000000000000000000000000000000000000000000000000000000060049252fd5b5034610f05576020600319360112610f0557600435610a4461244c565b15610f4957610a5281612241565b90610a5b61219f565b5115610d105773ffffffffffffffffffffffffffffffffffffffff7f5a17ed03c9224a83c249c4c9f6b3c3ee77f4a278901f975cbdbdcd094252ab00541673ffffffffffffffffffffffffffffffffffffffff7fb8978c109109e89ddaa83c20e08d73ed7aedae610788761a7cdcbd1d2ce42301541684604051927ff3d4510b000000000000000000000000000000000000000000000000000000008452806004850152602084602481865afa938415610d05578294610ce4575b50604051937fa792e3a8000000000000000000000000000000000000000000000000000000008552816004860152602085602481875afa948515610cd9578395610ca8575b50610b64612953565b93604051610b7181611d28565b848152886020820152610b83866129bd565b52610b8d856129bd565b50604051610b9a81611d28565b60028152876020820152610bad866129f7565b52610bb7856129f7565b50610bc488303385612f14565b610bcf888284612f82565b803b15610c97578594848094610c168a8c6040519a8b98899788967f42cff3f800000000000000000000000000000000000000000000000000000000885260048801612a07565b03925af1918215610c9b578492610c7e575b5050610c3591339061309c565b60405191825260208201527ff5613330dc61b3b3dfa6c4c8d2b6ab5bd5ae627e2792cdc5caf6ad26da362cf160403392a2610c6e61244c565b15610c765780f35b610196612585565b81925090610c8b91611d7c565b610c975781845f610c28565b8380fd5b50604051903d90823e3d90fd5b610ccb91955060203d602011610cd2575b610cc38183611d7c565b810190612215565b935f610b5b565b503d610cb9565b6040513d85823e3d90fd5b610cfe91945060203d602011610cd257610cc38183611d7c565b925f610b16565b6040513d84823e3d90fd5b73ffffffffffffffffffffffffffffffffffffffff7f5a17ed03c9224a83c249c4c9f6b3c3ee77f4a278901f975cbdbdcd094252ab00541673ffffffffffffffffffffffffffffffffffffffff7fb8978c109109e89ddaa83c20e08d73ed7aedae610788761a7cdcbd1d2ce423015416604051917ff3d4510b000000000000000000000000000000000000000000000000000000008352806004840152602083602481855afa928315610efa575f93610f28575b506040517fa792e3a8000000000000000000000000000000000000000000000000000000008152816004820152602081602481865afa908115610efa575f91610f09575b50610e11612953565b92604051610e1e81611d28565b60038152876020820152610e31856129bd565b52610e3b846129bd565b50604051610e4881611d28565b60018152866020820152610e5b856129f7565b52610e65846129f7565b50610e7287303385612f14565b610e7d878284612f82565b803b15610f055784935f8094610ec4898b604051998a98899788967f42cff3f800000000000000000000000000000000000000000000000000000000885260048801612a07565b03925af18015610efa57610ee5575b5081610ee091339061309c565b610c35565b610ef29194505f90611d7c565b5f9281610ed3565b6040513d5f823e3d90fd5b5f80fd5b610f22915060203d602011610cd257610cc38183611d7c565b5f610e08565b610f4291935060203d602011610cd257610cc38183611d7c565b915f610dc4565b7fe86a39ce000000000000000000000000000000000000000000000000000000005f5260045ffd5b34610f05575f600319360112610f0557602073ffffffffffffffffffffffffffffffffffffffff7f5a17ed03c9224a83c249c4c9f6b3c3ee77f4a278901f975cbdbdcd094252ab005416604051908152f35b6040600319360112610f0557610fd7611dbd565b6024359067ffffffffffffffff8211610f055736602383011215610f055781600401359061100482611e59565b916110126040519384611d7c565b80835260208301933660248383010111610f0557815f9260246020930187378401015273ffffffffffffffffffffffffffffffffffffffff7f0000000000000000000000000000000000000000000000000000000000000000168030149081156112ef575b506112c757611084612ad8565b73ffffffffffffffffffffffffffffffffffffffff8116926040517f52d1902d000000000000000000000000000000000000000000000000000000008152602081600481885afa5f9181611293575b5061110457847f4c9c8ce3000000000000000000000000000000000000000000000000000000005f5260045260245ffd5b807f360894a13ba1a3210667c828492db98dca3e2076cc3735a920a3ca505d382bbc8692036112685750823b1561123d57807fffffffffffffffffffffffff00000000000000000000000000000000000000007f360894a13ba1a3210667c828492db98dca3e2076cc3735a920a3ca505d382bbc5416177f360894a13ba1a3210667c828492db98dca3e2076cc3735a920a3ca505d382bbc557fbc7cd75a20ee27fd9adebab32041f755214dbc6bffa90cc0225b39da2e5c2d3b5f80a282511561120b575f8091611201945190845af43d15611203573d916111e583611e59565b926111f36040519485611d7c565b83523d5f602085013e613185565b005b606091613185565b5050503461121557005b7fb398979f000000000000000000000000000000000000000000000000000000005f5260045ffd5b7f4c9c8ce3000000000000000000000000000000000000000000000000000000005f5260045260245ffd5b7faa1d49a4000000000000000000000000000000000000000000000000000000005f5260045260245ffd5b9091506020813d6020116112bf575b816112af60209383611d7c565b81010312610f05575190866110d3565b3d91506112a2565b7fe07c8dba000000000000000000000000000000000000000000000000000000005f5260045ffd5b905073ffffffffffffffffffffffffffffffffffffffff7f360894a13ba1a3210667c828492db98dca3e2076cc3735a920a3ca505d382bbc5416141584611077565b34610f05575f600319360112610f0557602061074a61209c565b34610f055760c0600319360112610f0557611364611dbd565b61136d36611e03565b9060a43573ffffffffffffffffffffffffffffffffffffffff81168103610f055760209261063c92611ff6565b34610f05576040600319360112610f05576113b3611dbd565b6113bb611de0565b9073ffffffffffffffffffffffffffffffffffffffff7fb8978c109109e89ddaa83c20e08d73ed7aedae610788761a7cdcbd1d2ce42301541633036115295773ffffffffffffffffffffffffffffffffffffffff807fb8978c109109e89ddaa83c20e08d73ed7aedae610788761a7cdcbd1d2ce4230054169116036115295773ffffffffffffffffffffffffffffffffffffffff167f5a17ed03c9224a83c249c4c9f6b3c3ee77f4a278901f975cbdbdcd094252ab005473ffffffffffffffffffffffffffffffffffffffff811661150157817ff2a0f2a76c50e4dc5a5d674a2b409d8fb294b648a1b7ce7a0cf9ddf5b898089a927fffffffffffffffffffffffff000000000000000000000000000000000000000060209316177f5a17ed03c9224a83c249c4c9f6b3c3ee77f4a278901f975cbdbdcd094252ab0055604051908152a1005b7f9c2641a1000000000000000000000000000000000000000000000000000000005f5260045ffd5b7f82b42900000000000000000000000000000000000000000000000000000000005f5260045ffd5b34610f05575f600319360112610f055760206040516127108152f35b34610f05575f600319360112610f05576040611587611ecf565b8251911515825215156020820152f35b34610f0557610160600319360112610f0557610160810181811067ffffffffffffffff821117611cfb576040526115cc611dbd565b81526115d6611de0565b90602081019182526044359173ffffffffffffffffffffffffffffffffffffffff83168303610f0557604082019283526060820160643581526080830191608435835260a084019360a435855260c435946effffffffffffffffffffffffffffff86168603610f055760c0820195865260e082019160e43583526101008101946101043586526101208201936101243585526101408301966101443588527ff0c57e16840df040f15088dc2f81fe391c3923bec73e23a9662efc9c229c6a00549960ff8b60401c16159a67ffffffffffffffff811680159081611cf3575b6001149081611ce9575b159081611ce0575b50611cb8578b60017fffffffffffffffffffffffffffffffffffffffffffffffff00000000000000008316177ff0c57e16840df040f15088dc2f81fe391c3923bec73e23a9662efc9c229c6a0055611c63575b5060048c602073ffffffffffffffffffffffffffffffffffffffff8d51925116604051938480927fdd1dc3250000000000000000000000000000000000000000000000000000000082525afa918215610efa575f92611c2f575b501115611c02575191519051916effffffffffffffffffffffffffffff16611799612ebd565b818311611bda578015611bb2577f1ac95be1853baa8304ed1d2e0260090f434df21565a173bfcf0e0b6fb2df9f2092606092827fffffffffffffffffffffffffffffffffff0000000000000000000000000000007f5a17ed03c9224a83c249c4c9f6b3c3ee77f4a278901f975cbdbdcd094252ab025416177f5a17ed03c9224a83c249c4c9f6b3c3ee77f4a278901f975cbdbdcd094252ab0255807f5a17ed03c9224a83c249c4c9f6b3c3ee77f4a278901f975cbdbdcd094252ab0355817f5a17ed03c9224a83c249c4c9f6b3c3ee77f4a278901f975cbdbdcd094252ab045560405192835260208301526040820152a1519551915191611898612ebd565b8087111580611ba8575b15611b8057604073ffffffffffffffffffffffffffffffffffffffff97966119ec957f907e644655df3921a8519baf7b92482f53ebd8aa56d81dad48e2a324abe8c19a60608a8c9b987fae5d896f92e6367724d7b0e838e1ff0fbc15e278bd65035df77c2bdc565d6533978d9a7f0c0c36e5d849345ad68de971568490058599308849c5c9b43b43ea5781d5130055807f0c0c36e5d849345ad68de971568490058599308849c5c9b43b43ea5781d5130155817f0c0c36e5d849345ad68de971568490058599308849c5c9b43b43ea5781d51302558751928352602083015286820152a1519051611991612ebd565b817fb16e43fdb4a23e2eb5ac7d6fe250e1e010c7a5096910e708d8b2faba66b7d80055807fb16e43fdb4a23e2eb5ac7d6fe250e1e010c7a5096910e708d8b2faba66b7d8015582519182526020820152a151166104a8612ebd565b511692837fffffffffffffffffffffffff00000000000000000000000000000000000000007fb8978c109109e89ddaa83c20e08d73ed7aedae610788761a7cdcbd1d2ce423005416177fb8978c109109e89ddaa83c20e08d73ed7aedae610788761a7cdcbd1d2ce42300555116807fffffffffffffffffffffffff00000000000000000000000000000000000000007fb8978c109109e89ddaa83c20e08d73ed7aedae610788761a7cdcbd1d2ce423015416177fb8978c109109e89ddaa83c20e08d73ed7aedae610788761a7cdcbd1d2ce4230155604051927ff76781ab47911f3e8c8434949e746f9832a33ffd9d1e9c1c9e784c802561ede65f80a3611aef57005b60207fc7f505b2f371ae2175ee4913f4499e1f2633a7b5936321eed1cdaeb6115181d2917fffffffffffffffffffffffffffffffffffffffffffffff00ffffffffffffffff7ff0c57e16840df040f15088dc2f81fe391c3923bec73e23a9662efc9c229c6a0054167ff0c57e16840df040f15088dc2f81fe391c3923bec73e23a9662efc9c229c6a005560018152a1005b7f2ca97516000000000000000000000000000000000000000000000000000000005f5260045ffd5b50828111156118a2565b7fa2ee050e000000000000000000000000000000000000000000000000000000005f5260045ffd5b7f77cc03f7000000000000000000000000000000000000000000000000000000005f5260045ffd5b89517f2a0a9d03000000000000000000000000000000000000000000000000000000005f5260045260245ffd5b9091506020813d602011611c5b575b81611c4b60209383611d7c565b81010312610f055751908e611773565b3d9150611c3e565b7fffffffffffffffffffffffffffffffffffffffffffffff0000000000000000001668010000000000000001177ff0c57e16840df040f15088dc2f81fe391c3923bec73e23a9662efc9c229c6a00558c611719565b7ff92ee8a9000000000000000000000000000000000000000000000000000000005f5260045ffd5b9050158e6116c6565b303b1591506116be565b8d91506116b4565b7f4e487b71000000000000000000000000000000000000000000000000000000005f52604160045260245ffd5b6040810190811067ffffffffffffffff821117611cfb57604052565b6060810190811067ffffffffffffffff821117611cfb57604052565b6080810190811067ffffffffffffffff821117611cfb57604052565b90601f7fffffffffffffffffffffffffffffffffffffffffffffffffffffffffffffffe0910116810190811067ffffffffffffffff821117611cfb57604052565b6004359073ffffffffffffffffffffffffffffffffffffffff82168203610f0557565b6024359073ffffffffffffffffffffffffffffffffffffffff82168203610f0557565b7fffffffffffffffffffffffffffffffffffffffffffffffffffffffffffffffdc6080910112610f055760405190611e3a82611d60565b6024358252604435602083015260643560408301526084356060830152565b67ffffffffffffffff8111611cfb57601f017fffffffffffffffffffffffffffffffffffffffffffffffffffffffffffffffe01660200190565b90816080910312610f0557606060405191611ead83611d60565b8051835260208101516020840152604081015160408401520151606082015290565b60249073ffffffffffffffffffffffffffffffffffffffff7f5a17ed03c9224a83c249c4c9f6b3c3ee77f4a278901f975cbdbdcd094252ab00541673ffffffffffffffffffffffffffffffffffffffff7fb8978c109109e89ddaa83c20e08d73ed7aedae610788761a7cdcbd1d2ce4230154169060807f0c0c36e5d849345ad68de971568490058599308849c5c9b43b43ea5781d513015492604051958680927f9571d2120000000000000000000000000000000000000000000000000000000082528560048301525afa938415610efa575f94611fbe575b50611fb7606091853091611ff6565b9301511190565b6060919450611fe7611fb79160803d608011611fef575b611fdf8183611d7c565b810190611e93565b949150611fa8565b503d611fd5565b9173ffffffffffffffffffffffffffffffffffffffff30911614918261204e575b508115612022575090565b6060915001517fb16e43fdb4a23e2eb5ac7d6fe250e1e010c7a5096910e708d8b2faba66b7d800541190565b8192509061205b91612602565b905f612017565b9190820391821161206f57565b7f4e487b71000000000000000000000000000000000000000000000000000000005f52601160045260245ffd5b6120a461219f565b602081016effffffffffffffffffffffffffffff8060406120c88285511642612062565b9401511691511690036effffffffffffffffffffffffffffff811161206f576effffffffffffffffffffffffffffff167f5a17ed03c9224a83c249c4c9f6b3c3ee77f4a278901f975cbdbdcd094252ab0454917f5a17ed03c9224a83c249c4c9f6b3c3ee77f4a278901f975cbdbdcd094252ab0354918082116121995761214e9161270e565b670de0b6b3a76400000390670de0b6b3a7640000821161206f576121888361218261217c8561218d9661280f565b8061280f565b92612062565b61280f565b810180911161206f5790565b50505090565b5f604080516121ad81611d44565b82815282602082015201526040516121c481611d44565b6effffffffffffffffffffffffffffff7f5a17ed03c9224a83c249c4c9f6b3c3ee77f4a278901f975cbdbdcd094252ab015460ff811615158352818160081c16602084015260801c16604082015290565b90816020910312610f05575173ffffffffffffffffffffffffffffffffffffffff81168103610f055790565b61224961219f565b51151573ffffffffffffffffffffffffffffffffffffffff7fb8978c109109e89ddaa83c20e08d73ed7aedae610788761a7cdcbd1d2ce42301541690602073ffffffffffffffffffffffffffffffffffffffff7f5a17ed03c9224a83c249c4c9f6b3c3ee77f4a278901f975cbdbdcd094252ab0054166024604051809581937fa341017c00000000000000000000000000000000000000000000000000000000835260048301525afa8015610efa5773ffffffffffffffffffffffffffffffffffffffff936020935f9261242c575b50602491925f146123ae5760405194859384927f195420f90000000000000000000000000000000000000000000000000000000084526004840152165afa8015610efa575f9061237a575b61237791505b61237161209c565b9061280f565b90565b506020813d6020116123a6575b8161239460209383611d7c565b81010312610f05576123779051612363565b3d9150612387565b60405194859384927f17a9a1a70000000000000000000000000000000000000000000000000000000084526004840152165afa8015610efa575f906123f8575b6123779150612369565b506020813d602011612424575b8161241260209383611d7c565b81010312610f055761237790516123ee565b3d9150612405565b6024925061244690853d8711610cd257610cc38183611d7c565b91612318565b612454611ecf565b90156124935761246261219f565b90815115159015150361249357604001516effffffffffffffffffffffffffffff16421161248f57600190565b5f90565b505f90565b73ffffffffffffffffffffffffffffffffffffffff1680156125595773ffffffffffffffffffffffffffffffffffffffff7f9016d09d72d40fdae2fd8ceac6b6234c7706214fd39c1cd1e609a0528c19930054827fffffffffffffffffffffffff00000000000000000000000000000000000000008216177f9016d09d72d40fdae2fd8ceac6b6234c7706214fd39c1cd1e609a0528c19930055167f8be0079c531659141344cd1fd0a4f28419497f9722a3daafe3b4186f6b6457e05f80a3565b7f1e4fbdf7000000000000000000000000000000000000000000000000000000005f525f60045260245ffd5b61258d61244c565b6125da575f7f5a17ed03c9224a83c249c4c9f6b3c3ee77f4a278901f975cbdbdcd094252ab01557fa0e92984607195c326795751263414ee1074526323552e694c90ef2b99ae3f295f80a1565b7f5eedf760000000000000000000000000000000000000000000000000000000005f5260045ffd5b81511590811561267d575b50612493577f0c0c36e5d849345ad68de971568490058599308849c5c9b43b43ea5781d51300549060607f0c0c36e5d849345ad68de971568490058599308849c5c9b43b43ea5781d5130254910151918210159182612672575b505061248f57600190565b111590505f80612667565b73ffffffffffffffffffffffffffffffffffffffff91506020906004604051809481937f18160ddd000000000000000000000000000000000000000000000000000000008352165afa908115610efa575f916126dc575b50155f61260d565b90506020813d602011612706575b816126f760209383611d7c565b81010312610f0557515f6126d4565b3d91506126ea565b90670de0b6b3a76400008202907fffffffffffffffffffffffffffffffffffffffffffffffffffffffffffffffff670de0b6b3a76400008409928280851094039380850394146127d557838211156127bd57670de0b6b3a7640000829109815f0382168092046002816003021880820260020302808202600203028082026002030280820260020302808202600203028091026002030293600183805f03040190848311900302920304170290565b50634e487b715f52156003026011186020526024601cfd5b50809250156127e2570490565b7f4e487b71000000000000000000000000000000000000000000000000000000005f52601260045260245ffd5b9190915f838202917fffffffffffffffffffffffffffffffffffffffffffffffffffffffffffffffff858209918380841093039280840393146128b05782670de0b6b3a7640000111561289e57507faccb18165bd6fe31ae1cf318dc5b51eee0e1ba569b88cd74c1773b91fac106699394670de0b6b3a7640000910990828211900360ee1b910360121c170290565b634e487b71905260116020526024601cfd5b505050670de0b6b3a76400009192500490565b9190915f838202917fffffffffffffffffffffffffffffffffffffffffffffffffffffffffffffffff858209918380841093039280840393146129465782612710111561289e57507fbc01a36e2eb1c432ca57a786c226809d495182a9930be0ded288ce703afb7e919394612710910990828211900360fc1b910360041c170290565b5050506127109192500490565b604051606091906129648382611d7c565b60028152917fffffffffffffffffffffffffffffffffffffffffffffffffffffffffffffffe001825f5b82811061299a57505050565b6020906040516129a981611d28565b5f81525f838201528282850101520161298e565b8051156129ca5760200190565b7f4e487b71000000000000000000000000000000000000000000000000000000005f52603260045260245ffd5b8051600110156129ca5760400190565b939190969594929673ffffffffffffffffffffffffffffffffffffffff60c086019116855260c060208601528151809152602060e086019201905f5b818110612a7c5750505073ffffffffffffffffffffffffffffffffffffffff968716604085015295166060830152608082015260a00152565b90919283518051906004821015612aab5790825260209081015181830152604090910193019190600101612a43565b7f4e487b71000000000000000000000000000000000000000000000000000000005f52602160045260245ffd5b73ffffffffffffffffffffffffffffffffffffffff7f9016d09d72d40fdae2fd8ceac6b6234c7706214fd39c1cd1e609a0528c19930054163303612b1857565b7f118cdaa7000000000000000000000000000000000000000000000000000000005f523360045260245ffd5b907f0c0c36e5d849345ad68de971568490058599308849c5c9b43b43ea5781d513015490608073ffffffffffffffffffffffffffffffffffffffff6024817fb8978c109109e89ddaa83c20e08d73ed7aedae610788761a7cdcbd1d2ce4230154169560405196879384927f9571d2120000000000000000000000000000000000000000000000000000000084521660048301525afa928315610efa575f93612c3e575b5060609081015192015190808311908115612c375780915b15612c31575082905b8210908115612c27575b50612c21571461248f57600190565b50505f90565b905081115f612c12565b90612c08565b8391612bff565b6060919350612c5c829160803d608011611fef57611fdf8183611d7c565b939150612be7565b60608201517fb16e43fdb4a23e2eb5ac7d6fe250e1e010c7a5096910e708d8b2faba66b7d800541115612eb65773ffffffffffffffffffffffffffffffffffffffff7fb8978c109109e89ddaa83c20e08d73ed7aedae610788761a7cdcbd1d2ce4230154169073ffffffffffffffffffffffffffffffffffffffff604051917fa341017c00000000000000000000000000000000000000000000000000000000835216806004830152602082602481865afa918215610efa575f92612e92575b506080906024604051809581937f9571d21200000000000000000000000000000000000000000000000000000000835260048301525afa908115610efa5773ffffffffffffffffffffffffffffffffffffffff925f92612e6e575b506020906004604051809581937f1e522b29000000000000000000000000000000000000000000000000000000008352165afa918215610efa575f92612e39575b50604080612e1d612df6612e28957fb16e43fdb4a23e2eb5ac7d6fe250e1e010c7a5096910e708d8b2faba66b7d80154906128c3565b6020870180519060208701908151928381115f14612e2d5750612188925051905190612062565b920151930151612062565b111590565b91505061218891612062565b91506020823d602011612e66575b81612e5460209383611d7c565b81010312610f05579051906040612dc0565b3d9150612e47565b6020919250612e8b9060803d608011611fef57611fdf8183611d7c565b9190612d7f565b6080919250612eaf9060203d602011610cd257610cc38183611d7c565b9190612d24565b5050600190565b60ff7ff0c57e16840df040f15088dc2f81fe391c3923bec73e23a9662efc9c229c6a005460401c1615612eec57565b7fd7e6bcf8000000000000000000000000000000000000000000000000000000005f5260045ffd5b90919273ffffffffffffffffffffffffffffffffffffffff612f809481604051957f23b872dd000000000000000000000000000000000000000000000000000000006020880152166024860152166044840152606483015260648252612f7b608483611d7c565b6130fe565b565b6040517f095ea7b300000000000000000000000000000000000000000000000000000000602080830191825273ffffffffffffffffffffffffffffffffffffffff85166024840152604480840196909652948252929390925f90612fe7606486611d7c565b84519082855af15f513d8261306a575b50501561300357505050565b612f7b612f809373ffffffffffffffffffffffffffffffffffffffff604051917f095ea7b30000000000000000000000000000000000000000000000000000000060208401521660248201525f604482015260448152613064606482611d7c565b826130fe565b909150613094575073ffffffffffffffffffffffffffffffffffffffff81163b15155b5f80612ff7565b60011461308d565b6040517fa9059cbb00000000000000000000000000000000000000000000000000000000602082015273ffffffffffffffffffffffffffffffffffffffff929092166024830152604480830193909352918152612f8091612f7b606483611d7c565b905f602091828151910182855af115610efa575f513d61317c575073ffffffffffffffffffffffffffffffffffffffff81163b155b61313a5750565b73ffffffffffffffffffffffffffffffffffffffff907f5274afe7000000000000000000000000000000000000000000000000000000005f521660045260245ffd5b60011415613133565b906131c2575080511561319a57805190602001fd5b7fd6bda275000000000000000000000000000000000000000000000000000000005f5260045ffd5b81511580613215575b6131d3575090565b73ffffffffffffffffffffffffffffffffffffffff907f9996b315000000000000000000000000000000000000000000000000000000005f521660045260245ffd5b50803b156131cb56fea264697066735822122062df87074d0ba8d26cc64a40682135d3c6d139eece4a2674d07f4062259d67a464736f6c634300081e0033",
        "nonce": "0xb",
        "chainId": "0x1"
      },
      "additionalContracts": [],
      "isFixedGasLimit": false
    },
    {
      "hash": "0xce4c55df087a17b619166b8fef7b6ed58152cace21314107b43aa161bebf96f5",
      "transactionType": "CREATE",
      "contractName": "ERC1967Proxy",
      "contractAddress": "0x0a4490233fd6ea02873af11c744d286dc3d6c127",
      "function": null,
      "arguments": [
        "0x1d0c191a0fe2917e244826D3a8d0a64503efAec8",
        "0x02930bd10000000000000000000000003aa518bd9ee447e3f71c01b69a0d5d49c534e05f0000000000000000000000003aa518bd9ee447e3f71c01b69a0d5d49c534e05f0000000000000000000000005c37eb148d4a261acd101e2b997a0f163fb3e3510000000000000000000000000000000000000000000000001b9e40816ee814000000000000000000000000000000000000000000000000001bc16d674ec800000000000000000000000000000000000000000000000000001bc1c85cb34e24000000000000000000000000000000000000000000000000000000000000000e100000000000000000000000000000000000000000000000000e043da6172500000000000000000000000000000000000000000000000000000ddd2935029d80000000000000000000000000000000000000000000000000000e695b444d6554000000000000000000000000000000000000000000000000000000000000000bb8"
      ],
      "transaction": {
        "from": "0x3aa518bd9ee447e3f71c01b69a0d5d49c534e05f",
        "gas": "0x814c5",
        "value": "0x0",
        "input": "0x60806040526102a88038038061001481610168565b92833981016040828203126101645781516001600160a01b03811692909190838303610164576020810151906001600160401b03821161016457019281601f8501121561016457835161006e610069826101a1565b610168565b9481865260208601936020838301011161016457815f926020809301865e86010152823b15610152577f360894a13ba1a3210667c828492db98dca3e2076cc3735a920a3ca505d382bbc80546001600160a01b031916821790557fbc7cd75a20ee27fd9adebab32041f755214dbc6bffa90cc0225b39da2e5c2d3b5f80a282511561013a575f8091610122945190845af43d15610132573d91610113610069846101a1565b9283523d5f602085013e6101bc565b505b604051608d908161021b8239f35b6060916101bc565b50505034156101245763b398979f60e01b5f5260045ffd5b634c9c8ce360e01b5f5260045260245ffd5b5f80fd5b6040519190601f01601f191682016001600160401b0381118382101761018d57604052565b634e487b7160e01b5f52604160045260245ffd5b6001600160401b03811161018d57601f01601f191660200190565b906101e057508051156101d157805190602001fd5b63d6bda27560e01b5f5260045ffd5b81511580610211575b6101f1575090565b639996b31560e01b5f9081526001600160a01b0391909116600452602490fd5b50803b156101e956fe60806040525f8073ffffffffffffffffffffffffffffffffffffffff7f360894a13ba1a3210667c828492db98dca3e2076cc3735a920a3ca505d382bbc5416368280378136915af43d5f803e156053573d5ff35b3d5ffdfea2646970667358221220efd3ca988fdda9226ffa3fb6a447bf34662af469a6e10f66494d212177be74ab64736f6c634300081e00330000000000000000000000001d0c191a0fe2917e244826d3a8d0a64503efaec80000000000000000000000000000000000000000000000000000000000000040000000000000000000000000000000000000000000000000000000000000016402930bd10000000000000000000000003aa518bd9ee447e3f71c01b69a0d5d49c534e05f0000000000000000000000003aa518bd9ee447e3f71c01b69a0d5d49c534e05f0000000000000000000000005c37eb148d4a261acd101e2b997a0f163fb3e3510000000000000000000000000000000000000000000000001b9e40816ee814000000000000000000000000000000000000000000000000001bc16d674ec800000000000000000000000000000000000000000000000000001bc1c85cb34e24000000000000000000000000000000000000000000000000000000000000000e100000000000000000000000000000000000000000000000000e043da6172500000000000000000000000000000000000000000000000000000ddd2935029d80000000000000000000000000000000000000000000000000000e695b444d6554000000000000000000000000000000000000000000000000000000000000000bb800000000000000000000000000000000000000000000000000000000",
        "nonce": "0xc",
        "chainId": "0x1"
      },
      "additionalContracts": [],
      "isFixedGasLimit": false
    },
    {
      "hash": "0x7b5644da5adc29cd5af309ead75a8eb2270856f2bf4410e963109e5d84f4fb4a",
      "transactionType": "CALL",
      "contractName": null,
      "contractAddress": "0xce05fbed9260810bdded179adfdaf737be7ded71",
      "function": "deployAdapter(bytes32,address,bytes32)",
      "arguments": [
        "0xb8fc70e82bc5bb53e773626fcc6a23f7eefa036918d7ef216ecfb1950a94a85e",
        "0x3aA518Bd9ee447E3F71c01B69A0d5d49C534E05F",
        "0x0000000000000000000000000000000000000000000000000000000000000001"
      ],
      "transaction": {
        "from": "0x3aa518bd9ee447e3f71c01b69a0d5d49c534e05f",
        "to": "0xce05fbed9260810bdded179adfdaf737be7ded71",
        "gas": "0x5e6f3",
        "value": "0x0",
        "input": "0xc4ea1de7b8fc70e82bc5bb53e773626fcc6a23f7eefa036918d7ef216ecfb1950a94a85e0000000000000000000000003aa518bd9ee447e3f71c01b69a0d5d49c534e05f0000000000000000000000000000000000000000000000000000000000000001",
        "nonce": "0xd",
        "chainId": "0x1"
      },
      "additionalContracts": [
        {
          "transactionType": "CREATE2",
          "address": "0xb22cd280b29e581e34423e86f65fd259f456d335",
          "initCode": "0x3d602d80600a3d3981f3363d3d373d3d3d363d7300c66934ebca0f2a845812bc368b230f6da11a5c5af43d82803e903d91602b57fd5bf3"
        }
      ],
      "isFixedGasLimit": false
    },
    {
      "hash": "0x94bfee667d17fdc852c1029393d6707a06cdc2a5fa31d23ba1a1771ad40df118",
      "transactionType": "CALL",
      "contractName": null,
      "contractAddress": "0x5c37eb148d4a261acd101e2b997a0f163fb3e351",
      "function": "createNewLeverageToken((address,address,uint256,uint256),string,string)",
      "arguments": [
        "(0xB22cd280b29e581e34423E86F65fd259F456D335, 0x0a4490233Fd6Ea02873af11c744d286DC3d6C127, 0, 10)",
        "wstETH / WETH 2x Leverage Token",
        "WSTETH-WETH-2x"
      ],
      "transaction": {
        "from": "0x3aa518bd9ee447e3f71c01b69a0d5d49c534e05f",
        "to": "0x5c37eb148d4a261acd101e2b997a0f163fb3e351",
        "gas": "0xaf60b",
        "value": "0x0",
        "input": "0x797f3af6000000000000000000000000b22cd280b29e581e34423e86f65fd259f456d3350000000000000000000000000a4490233fd6ea02873af11c744d286dc3d6c1270000000000000000000000000000000000000000000000000000000000000000000000000000000000000000000000000000000000000000000000000000000a00000000000000000000000000000000000000000000000000000000000000c00000000000000000000000000000000000000000000000000000000000000100000000000000000000000000000000000000000000000000000000000000001f777374455448202f2057455448203278204c6576657261676520546f6b656e00000000000000000000000000000000000000000000000000000000000000000e5753544554482d574554482d3278000000000000000000000000000000000000",
        "nonce": "0xe",
        "chainId": "0x1"
      },
      "additionalContracts": [
        {
          "transactionType": "CREATE2",
          "address": "0x10041dffbe8fb54ca4dfa56f2286680ec98a37c3",
          "initCode": "0x60a08060405261050d80380380916100178285610292565b833981016040828203126101eb5761002e826102c9565b602083015190926001600160401b0382116101eb57019080601f830112156101eb57815161005b816102dd565b926100696040519485610292565b8184526020840192602083830101116101eb57815f926020809301855e84010152823b15610274577fa3f0ad74e5423aebfd80d3ef4346578335a9a72aeaee59ff6cb3582b35133d5080546001600160a01b0319166001600160a01b038516908117909155604051635c60da1b60e01b8152909190602081600481865afa9081156101f7575f9161023a575b50803b1561021a5750817f1cf3b03a6cf19fa2baba4df148e9dcabedea7f8a5c07840e207e5c089be95d3e5f80a282511561020257602060049260405193848092635c60da1b60e01b82525afa9182156101f7575f926101ae575b505f809161018a945190845af43d156101a6573d9161016e836102dd565b9261017c6040519485610292565b83523d5f602085013e6102f8565b505b6080526040516101b6908161035782396080518160460152f35b6060916102f8565b9291506020833d6020116101ef575b816101ca60209383610292565b810103126101eb575f80916101e161018a956102c9565b9394509150610150565b5f80fd5b3d91506101bd565b6040513d5f823e3d90fd5b505050341561018c5763b398979f60e01b5f5260045ffd5b634c9c8ce360e01b5f9081526001600160a01b0391909116600452602490fd5b90506020813d60201161026c575b8161025560209383610292565b810103126101eb57610266906102c9565b5f6100f5565b3d9150610248565b631933b43b60e21b5f9081526001600160a01b038416600452602490fd5b601f909101601f19168101906001600160401b038211908210176102b557604052565b634e487b7160e01b5f52604160045260245ffd5b51906001600160a01b03821682036101eb57565b6001600160401b0381116102b557601f01601f191660200190565b9061031c575080511561030d57805190602001fd5b63d6bda27560e01b5f5260045ffd5b8151158061034d575b61032d575090565b639996b31560e01b5f9081526001600160a01b0391909116600452602490fd5b50803b1561032556fe60806040527f5c60da1b000000000000000000000000000000000000000000000000000000006080526020608060048173ffffffffffffffffffffffffffffffffffffffff7f0000000000000000000000000000000000000000000000000000000000000000165afa8015610107575f9015610163575060203d602011610100575b7fffffffffffffffffffffffffffffffffffffffffffffffffffffffffffffffe0601f820116608001906080821067ffffffffffffffff8311176100d3576100ce91604052608001610112565b610163565b7f4e487b71000000000000000000000000000000000000000000000000000000005f52604160045260245ffd5b503d610081565b6040513d5f823e3d90fd5b7fffffffffffffffffffffffffffffffffffffffffffffffffffffffffffffff80602091011261015f5760805173ffffffffffffffffffffffffffffffffffffffff8116810361015f5790565b5f80fd5b5f8091368280378136915af43d5f803e1561017c573d5ff35b3d5ffdfea26469706673582212205447fc6bdf2f5ebea38dad22e17329c0f45f58320ca5e5ca9b25c8c815cb469264736f6c634300081e0033000000000000000000000000603da735780e6bc7d04f3fb85c26dcccd4ff0a82000000000000000000000000000000000000000000000000000000000000004000000000000000000000000000000000000000000000000000000000000000e4906571470000000000000000000000005c37eb148d4a261acd101e2b997a0f163fb3e351000000000000000000000000000000000000000000000000000000000000006000000000000000000000000000000000000000000000000000000000000000a0000000000000000000000000000000000000000000000000000000000000001f777374455448202f2057455448203278204c6576657261676520546f6b656e00000000000000000000000000000000000000000000000000000000000000000e5753544554482d574554482d327800000000000000000000000000000000000000000000000000000000000000000000000000000000000000000000"
        }
      ],
      "isFixedGasLimit": false
    },
    {
      "hash": "0x6c86b478d5dea714845bb594b739ab9d1e8559d2b0474afb3b26c1adb61cae20",
      "transactionType": "CALL",
      "contractName": null,
      "contractAddress": "0x7f39c581f595b53c5cb19bd0b3f8da6c935e2ca0",
      "function": "approve(address,uint256)",
      "arguments": [
        "0x5C37EB148D4a261ACD101e2B997A0F163Fb3E351",
        "1000000000000000"
      ],
      "transaction": {
        "from": "0x3aa518bd9ee447e3f71c01b69a0d5d49c534e05f",
        "to": "0x7f39c581f595b53c5cb19bd0b3f8da6c935e2ca0",
        "gas": "0xf95b",
        "value": "0x0",
        "input": "0x095ea7b30000000000000000000000005c37eb148d4a261acd101e2b997a0f163fb3e35100000000000000000000000000000000000000000000000000038d7ea4c68000",
        "nonce": "0xf",
        "chainId": "0x1"
      },
      "additionalContracts": [],
      "isFixedGasLimit": false
    },
    {
      "hash": "0x309bd6d9ac6ec99c9b03a60056b53eedaccd0b4e4be59b1151ad784688c4afe3",
      "transactionType": "CALL",
      "contractName": null,
      "contractAddress": "0x5c37eb148d4a261acd101e2b997a0f163fb3e351",
      "function": "deposit(address,uint256,uint256)",
      "arguments": [
        "0x10041DFFBE8fB54Ca4Dfa56F2286680EC98A37c3",
        "1000000000000000",
        "500000000000000"
      ],
      "transaction": {
        "from": "0x3aa518bd9ee447e3f71c01b69a0d5d49c534e05f",
        "to": "0x5c37eb148d4a261acd101e2b997a0f163fb3e351",
        "gas": "0x8cd8a",
        "value": "0x0",
        "input": "0x0efe6a8b00000000000000000000000010041dffbe8fb54ca4dfa56f2286680ec98a37c300000000000000000000000000000000000000000000000000038d7ea4c680000000000000000000000000000000000000000000000000000001c6bf52634000",
        "nonce": "0x10",
        "chainId": "0x1"
      },
      "additionalContracts": [],
      "isFixedGasLimit": false
    }
  ],
  "receipts": [
    {
      "status": "0x1",
      "cumulativeGasUsed": "0x193a226",
      "logs": [],
      "logsBloom": "0x00000000000000000000000000000000000000000000000000000000000000000000000000000000000000000000000000000000000000000000000000000000000000000000000000000000000000000000000000000000000000000000000000000000000000000000000000000000000000000000000000000000000000000000000000000000000000000000000000000000000000000000000000000000000000000000000000000000000000000000000000000000000000000000000000000000000000000000000000000000000000000000000000000000000000000000000000000000000000000000000000000000000000000000000000000000",
      "type": "0x2",
      "transactionHash": "0x73cc20a114bdd133f37149bf2d3e49b8e69f682197c1f60e1865f9014c8673be",
      "transactionIndex": "0xeb",
      "blockHash": "0x193cc41bf776c4c4f6b065e7cdb6cd3049c6d48f86a1471a7b04fe2af9dbff9b",
      "blockNumber": "0x1662683",
      "gasUsed": "0x2b05ea",
      "effectiveGasPrice": "0xe4f9e5a",
      "from": "0x3aa518bd9ee447e3f71c01b69a0d5d49c534e05f",
      "to": null,
      "contractAddress": "0x1d0c191a0fe2917e244826d3a8d0a64503efaec8"
    },
    {
      "status": "0x1",
      "cumulativeGasUsed": "0x1642218",
      "logs": [
        {
          "address": "0x0a4490233fd6ea02873af11c744d286dc3d6c127",
          "topics": [
            "0xbc7cd75a20ee27fd9adebab32041f755214dbc6bffa90cc0225b39da2e5c2d3b",
            "0x0000000000000000000000001d0c191a0fe2917e244826d3a8d0a64503efaec8"
          ],
          "data": "0x",
          "blockHash": "0x3e96dff411a81c190021973f0eb1dc1daeee4d8d2d19cca6fd9daca5b6f9f3f5",
          "blockNumber": "0x1662684",
          "blockTimestamp": "0x68db0d6b",
          "transactionHash": "0xce4c55df087a17b619166b8fef7b6ed58152cace21314107b43aa161bebf96f5",
          "transactionIndex": "0x110",
          "logIndex": "0x62f",
          "removed": false
        },
        {
          "address": "0x0a4490233fd6ea02873af11c744d286dc3d6c127",
          "topics": [
            "0x1ac95be1853baa8304ed1d2e0260090f434df21565a173bfcf0e0b6fb2df9f20"
          ],
          "data": "0x0000000000000000000000000000000000000000000000000000000000000e100000000000000000000000000000000000000000000000000e043da6172500000000000000000000000000000000000000000000000000000ddd2935029d8000",
          "blockHash": "0x3e96dff411a81c190021973f0eb1dc1daeee4d8d2d19cca6fd9daca5b6f9f3f5",
          "blockNumber": "0x1662684",
          "blockTimestamp": "0x68db0d6b",
          "transactionHash": "0xce4c55df087a17b619166b8fef7b6ed58152cace21314107b43aa161bebf96f5",
          "transactionIndex": "0x110",
          "logIndex": "0x630",
          "removed": false
        },
        {
          "address": "0x0a4490233fd6ea02873af11c744d286dc3d6c127",
          "topics": [
            "0x907e644655df3921a8519baf7b92482f53ebd8aa56d81dad48e2a324abe8c19a"
          ],
          "data": "0x0000000000000000000000000000000000000000000000001b9e40816ee814000000000000000000000000000000000000000000000000001bc16d674ec800000000000000000000000000000000000000000000000000001bc1c85cb34e2400",
          "blockHash": "0x3e96dff411a81c190021973f0eb1dc1daeee4d8d2d19cca6fd9daca5b6f9f3f5",
          "blockNumber": "0x1662684",
          "blockTimestamp": "0x68db0d6b",
          "transactionHash": "0xce4c55df087a17b619166b8fef7b6ed58152cace21314107b43aa161bebf96f5",
          "transactionIndex": "0x110",
          "logIndex": "0x631",
          "removed": false
        },
        {
          "address": "0x0a4490233fd6ea02873af11c744d286dc3d6c127",
          "topics": [
            "0xae5d896f92e6367724d7b0e838e1ff0fbc15e278bd65035df77c2bdc565d6533"
          ],
          "data": "0x0000000000000000000000000000000000000000000000000e695b444d6554000000000000000000000000000000000000000000000000000000000000000bb8",
          "blockHash": "0x3e96dff411a81c190021973f0eb1dc1daeee4d8d2d19cca6fd9daca5b6f9f3f5",
          "blockNumber": "0x1662684",
          "blockTimestamp": "0x68db0d6b",
          "transactionHash": "0xce4c55df087a17b619166b8fef7b6ed58152cace21314107b43aa161bebf96f5",
          "transactionIndex": "0x110",
          "logIndex": "0x632",
          "removed": false
        },
        {
          "address": "0x0a4490233fd6ea02873af11c744d286dc3d6c127",
          "topics": [
            "0x8be0079c531659141344cd1fd0a4f28419497f9722a3daafe3b4186f6b6457e0",
            "0x0000000000000000000000000000000000000000000000000000000000000000",
            "0x0000000000000000000000003aa518bd9ee447e3f71c01b69a0d5d49c534e05f"
          ],
          "data": "0x",
          "blockHash": "0x3e96dff411a81c190021973f0eb1dc1daeee4d8d2d19cca6fd9daca5b6f9f3f5",
          "blockNumber": "0x1662684",
          "blockTimestamp": "0x68db0d6b",
          "transactionHash": "0xce4c55df087a17b619166b8fef7b6ed58152cace21314107b43aa161bebf96f5",
          "transactionIndex": "0x110",
          "logIndex": "0x633",
          "removed": false
        },
        {
          "address": "0x0a4490233fd6ea02873af11c744d286dc3d6c127",
          "topics": [
            "0xf76781ab47911f3e8c8434949e746f9832a33ffd9d1e9c1c9e784c802561ede6",
            "0x0000000000000000000000003aa518bd9ee447e3f71c01b69a0d5d49c534e05f",
            "0x0000000000000000000000005c37eb148d4a261acd101e2b997a0f163fb3e351"
          ],
          "data": "0x",
          "blockHash": "0x3e96dff411a81c190021973f0eb1dc1daeee4d8d2d19cca6fd9daca5b6f9f3f5",
          "blockNumber": "0x1662684",
          "blockTimestamp": "0x68db0d6b",
          "transactionHash": "0xce4c55df087a17b619166b8fef7b6ed58152cace21314107b43aa161bebf96f5",
          "transactionIndex": "0x110",
          "logIndex": "0x634",
          "removed": false
        },
        {
          "address": "0x0a4490233fd6ea02873af11c744d286dc3d6c127",
          "topics": [
            "0xc7f505b2f371ae2175ee4913f4499e1f2633a7b5936321eed1cdaeb6115181d2"
          ],
          "data": "0x0000000000000000000000000000000000000000000000000000000000000001",
          "blockHash": "0x3e96dff411a81c190021973f0eb1dc1daeee4d8d2d19cca6fd9daca5b6f9f3f5",
          "blockNumber": "0x1662684",
          "blockTimestamp": "0x68db0d6b",
          "transactionHash": "0xce4c55df087a17b619166b8fef7b6ed58152cace21314107b43aa161bebf96f5",
          "transactionIndex": "0x110",
          "logIndex": "0x635",
          "removed": false
        }
      ],
      "logsBloom": "0x00000000200000000000020000000000400000000028004000800000000000000000000000000000000000000000000000000000000000000000000000000000000200000000000008000000000102008001000000000000000000000800000000000000020000000000000000000800000000800000000000000004000000400000000000000000000800000000000000000000000080002000000000004000000000000000300000000000000000000000000000000000000000010000000000000020000000000000000040020000000000000004000000000800000020100000000400000000000000000000000000000000008000000000000000400000",
      "type": "0x2",
      "transactionHash": "0xce4c55df087a17b619166b8fef7b6ed58152cace21314107b43aa161bebf96f5",
      "transactionIndex": "0x110",
      "blockHash": "0x3e96dff411a81c190021973f0eb1dc1daeee4d8d2d19cca6fd9daca5b6f9f3f5",
      "blockNumber": "0x1662684",
      "gasUsed": "0x6375d",
      "effectiveGasPrice": "0xeed4f7d",
      "from": "0x3aa518bd9ee447e3f71c01b69a0d5d49c534e05f",
      "to": null,
      "contractAddress": "0x0a4490233fd6ea02873af11c744d286dc3d6c127"
    },
    {
      "status": "0x1",
      "cumulativeGasUsed": "0xef6f03",
      "logs": [
        {
          "address": "0xce05fbed9260810bdded179adfdaf737be7ded71",
          "topics": [
            "0x90a228f4b5bc611babf005ecebd48836d9c73714549183b216fec07d3ee4348c"
          ],
          "data": "0x000000000000000000000000b22cd280b29e581e34423e86f65fd259f456d335",
          "blockHash": "0x051765a30b255ac578474c91ebc4f8f51956f78e76a1812ae5cdadd07f991dfe",
          "blockNumber": "0x1662685",
          "blockTimestamp": "0x68db0d77",
          "transactionHash": "0x7b5644da5adc29cd5af309ead75a8eb2270856f2bf4410e963109e5d84f4fb4a",
          "transactionIndex": "0xbd",
          "logIndex": "0x1ed",
          "removed": false
        },
        {
          "address": "0xb22cd280b29e581e34423e86f65fd259f456d335",
          "topics": [
            "0x4936702b8ba221fe23c531f1a2d5ba3022c8e5238de7a4428155d32b367c129c",
            "0xb8fc70e82bc5bb53e773626fcc6a23f7eefa036918d7ef216ecfb1950a94a85e",
            "0x0000000000000000000000003aa518bd9ee447e3f71c01b69a0d5d49c534e05f"
          ],
          "data": "0x000000000000000000000000c02aaa39b223fe8d0a0e5c4f27ead9083c756cc20000000000000000000000007f39c581f595b53c5cb19bd0b3f8da6c935e2ca0000000000000000000000000bd60a6770b27e084e8617335dde769241b0e71d8000000000000000000000000870ac11d48b15db9a138cf899d20f13f79ba00bc0000000000000000000000000000000000000000000000000d645e6320408000",
          "blockHash": "0x051765a30b255ac578474c91ebc4f8f51956f78e76a1812ae5cdadd07f991dfe",
          "blockNumber": "0x1662685",
          "blockTimestamp": "0x68db0d77",
          "transactionHash": "0x7b5644da5adc29cd5af309ead75a8eb2270856f2bf4410e963109e5d84f4fb4a",
          "transactionIndex": "0xbd",
          "logIndex": "0x1ee",
          "removed": false
        },
        {
          "address": "0xb22cd280b29e581e34423e86f65fd259f456d335",
          "topics": [
            "0xc7f505b2f371ae2175ee4913f4499e1f2633a7b5936321eed1cdaeb6115181d2"
          ],
          "data": "0x0000000000000000000000000000000000000000000000000000000000000001",
          "blockHash": "0x051765a30b255ac578474c91ebc4f8f51956f78e76a1812ae5cdadd07f991dfe",
          "blockNumber": "0x1662685",
          "blockTimestamp": "0x68db0d77",
          "transactionHash": "0x7b5644da5adc29cd5af309ead75a8eb2270856f2bf4410e963109e5d84f4fb4a",
          "transactionIndex": "0xbd",
          "logIndex": "0x1ef",
          "removed": false
        }
      ],
      "logsBloom": "0x00000000200000000000000000000000100000000080100000000000000000000000000000000000000000000000008000000000000000000040000000000000000000000000000000000000000100000000000000000000000000000000000000000000000000000000000000020000000000000000000000000000000000040000000000000000000800000000000000000000000080000000100000000000000000004000000000000000000000010000000080000000000000010000000000000000000000200000000000000000000000000004000000000000000000000000000000000000000010000000000000000100000000000010000000000000",
      "type": "0x2",
      "transactionHash": "0x7b5644da5adc29cd5af309ead75a8eb2270856f2bf4410e963109e5d84f4fb4a",
      "transactionIndex": "0xbd",
      "blockHash": "0x051765a30b255ac578474c91ebc4f8f51956f78e76a1812ae5cdadd07f991dfe",
      "blockNumber": "0x1662685",
      "gasUsed": "0x40921",
      "effectiveGasPrice": "0xfbf9cd7",
      "from": "0x3aa518bd9ee447e3f71c01b69a0d5d49c534e05f",
      "to": "0xce05fbed9260810bdded179adfdaf737be7ded71",
      "contractAddress": null
    },
    {
      "status": "0x1",
      "cumulativeGasUsed": "0x10676bc",
      "logs": [
        {
          "address": "0x10041dffbe8fb54ca4dfa56f2286680ec98a37c3",
          "topics": [
            "0x1cf3b03a6cf19fa2baba4df148e9dcabedea7f8a5c07840e207e5c089be95d3e",
            "0x000000000000000000000000603da735780e6bc7d04f3fb85c26dcccd4ff0a82"
          ],
          "data": "0x",
          "blockHash": "0xf5a4cc81fa7c58a1617c7b8e3e0e98944f8222804c707a37e3f9c47e3bdebcc7",
          "blockNumber": "0x1662686",
          "blockTimestamp": "0x68db0d83",
          "transactionHash": "0x94bfee667d17fdc852c1029393d6707a06cdc2a5fa31d23ba1a1771ad40df118",
          "transactionIndex": "0xe6",
          "logIndex": "0x1a7",
          "removed": false
        },
        {
          "address": "0x10041dffbe8fb54ca4dfa56f2286680ec98a37c3",
          "topics": [
            "0x8be0079c531659141344cd1fd0a4f28419497f9722a3daafe3b4186f6b6457e0",
            "0x0000000000000000000000000000000000000000000000000000000000000000",
            "0x0000000000000000000000005c37eb148d4a261acd101e2b997a0f163fb3e351"
          ],
          "data": "0x",
          "blockHash": "0xf5a4cc81fa7c58a1617c7b8e3e0e98944f8222804c707a37e3f9c47e3bdebcc7",
          "blockNumber": "0x1662686",
          "blockTimestamp": "0x68db0d83",
          "transactionHash": "0x94bfee667d17fdc852c1029393d6707a06cdc2a5fa31d23ba1a1771ad40df118",
          "transactionIndex": "0xe6",
          "logIndex": "0x1a8",
          "removed": false
        },
        {
          "address": "0x10041dffbe8fb54ca4dfa56f2286680ec98a37c3",
          "topics": [
            "0x57d9c3176493540cc7a0fba3538e0908b18dfe9468541ad54ba54fd474d33fec"
          ],
          "data": "0x00000000000000000000000000000000000000000000000000000000000000400000000000000000000000000000000000000000000000000000000000000080000000000000000000000000000000000000000000000000000000000000001f777374455448202f2057455448203278204c6576657261676520546f6b656e00000000000000000000000000000000000000000000000000000000000000000e5753544554482d574554482d3278000000000000000000000000000000000000",
          "blockHash": "0xf5a4cc81fa7c58a1617c7b8e3e0e98944f8222804c707a37e3f9c47e3bdebcc7",
          "blockNumber": "0x1662686",
          "blockTimestamp": "0x68db0d83",
          "transactionHash": "0x94bfee667d17fdc852c1029393d6707a06cdc2a5fa31d23ba1a1771ad40df118",
          "transactionIndex": "0xe6",
          "logIndex": "0x1a9",
          "removed": false
        },
        {
          "address": "0x10041dffbe8fb54ca4dfa56f2286680ec98a37c3",
          "topics": [
            "0xc7f505b2f371ae2175ee4913f4499e1f2633a7b5936321eed1cdaeb6115181d2"
          ],
          "data": "0x0000000000000000000000000000000000000000000000000000000000000001",
          "blockHash": "0xf5a4cc81fa7c58a1617c7b8e3e0e98944f8222804c707a37e3f9c47e3bdebcc7",
          "blockNumber": "0x1662686",
          "blockTimestamp": "0x68db0d83",
          "transactionHash": "0x94bfee667d17fdc852c1029393d6707a06cdc2a5fa31d23ba1a1771ad40df118",
          "transactionIndex": "0xe6",
          "logIndex": "0x1aa",
          "removed": false
        },
        {
          "address": "0x603da735780e6bc7d04f3fb85c26dcccd4ff0a82",
          "topics": [
            "0xfc6ca44b2e0253d7b333f816a6b6e52e7292a56fd5f38e52946f9dfc812d698b",
            "0x00000000000000000000000010041dffbe8fb54ca4dfa56f2286680ec98a37c3"
          ],
          "data": "0x0000000000000000000000000000000000000000000000000000000000000040000000000000000000000000000000000000000000000000000000000000000000000000000000000000000000000000000000000000000000000000000000e4906571470000000000000000000000005c37eb148d4a261acd101e2b997a0f163fb3e351000000000000000000000000000000000000000000000000000000000000006000000000000000000000000000000000000000000000000000000000000000a0000000000000000000000000000000000000000000000000000000000000001f777374455448202f2057455448203278204c6576657261676520546f6b656e00000000000000000000000000000000000000000000000000000000000000000e5753544554482d574554482d327800000000000000000000000000000000000000000000000000000000000000000000000000000000000000000000",
          "blockHash": "0xf5a4cc81fa7c58a1617c7b8e3e0e98944f8222804c707a37e3f9c47e3bdebcc7",
          "blockNumber": "0x1662686",
          "blockTimestamp": "0x68db0d83",
          "transactionHash": "0x94bfee667d17fdc852c1029393d6707a06cdc2a5fa31d23ba1a1771ad40df118",
          "transactionIndex": "0xe6",
          "logIndex": "0x1ab",
          "removed": false
        },
        {
          "address": "0x5c37eb148d4a261acd101e2b997a0f163fb3e351",
          "topics": [
            "0x9dc95718df096d1d699a19543ccd8b579bc4729ce2021eb4764ff654ed67a5dc",
            "0x00000000000000000000000010041dffbe8fb54ca4dfa56f2286680ec98a37c3",
            "0x0000000000000000000000000000000000000000000000000000000000000000"
          ],
          "data": "0x0000000000000000000000000000000000000000000000000000000000000000",
          "blockHash": "0xf5a4cc81fa7c58a1617c7b8e3e0e98944f8222804c707a37e3f9c47e3bdebcc7",
          "blockNumber": "0x1662686",
          "blockTimestamp": "0x68db0d83",
          "transactionHash": "0x94bfee667d17fdc852c1029393d6707a06cdc2a5fa31d23ba1a1771ad40df118",
          "transactionIndex": "0xe6",
          "logIndex": "0x1ac",
          "removed": false
        },
        {
          "address": "0x5c37eb148d4a261acd101e2b997a0f163fb3e351",
          "topics": [
            "0x9dc95718df096d1d699a19543ccd8b579bc4729ce2021eb4764ff654ed67a5dc",
            "0x00000000000000000000000010041dffbe8fb54ca4dfa56f2286680ec98a37c3",
            "0x0000000000000000000000000000000000000000000000000000000000000001"
          ],
          "data": "0x000000000000000000000000000000000000000000000000000000000000000a",
          "blockHash": "0xf5a4cc81fa7c58a1617c7b8e3e0e98944f8222804c707a37e3f9c47e3bdebcc7",
          "blockNumber": "0x1662686",
          "blockTimestamp": "0x68db0d83",
          "transactionHash": "0x94bfee667d17fdc852c1029393d6707a06cdc2a5fa31d23ba1a1771ad40df118",
          "transactionIndex": "0xe6",
          "logIndex": "0x1ad",
          "removed": false
        },
        {
          "address": "0x5c37eb148d4a261acd101e2b997a0f163fb3e351",
          "topics": [
            "0x054728667e9fde2ae95b0b309983329748caba1b3df19081435adb8966c61514",
            "0x00000000000000000000000010041dffbe8fb54ca4dfa56f2286680ec98a37c3"
          ],
          "data": "0x0000000000000000000000000000000000000000000000000000000000000000",
          "blockHash": "0xf5a4cc81fa7c58a1617c7b8e3e0e98944f8222804c707a37e3f9c47e3bdebcc7",
          "blockNumber": "0x1662686",
          "blockTimestamp": "0x68db0d83",
          "transactionHash": "0x94bfee667d17fdc852c1029393d6707a06cdc2a5fa31d23ba1a1771ad40df118",
          "transactionIndex": "0xe6",
          "logIndex": "0x1ae",
          "removed": false
        },
        {
          "address": "0xb22cd280b29e581e34423e86f65fd259f456d335",
          "topics": [
            "0xa6df6ca83fcea66b6eed2551b21e0a3f078e6af9eb9dbb02d2312e3d94b5d77b"
          ],
          "data": "0x",
          "blockHash": "0xf5a4cc81fa7c58a1617c7b8e3e0e98944f8222804c707a37e3f9c47e3bdebcc7",
          "blockNumber": "0x1662686",
          "blockTimestamp": "0x68db0d83",
          "transactionHash": "0x94bfee667d17fdc852c1029393d6707a06cdc2a5fa31d23ba1a1771ad40df118",
          "transactionIndex": "0xe6",
          "logIndex": "0x1af",
          "removed": false
        },
        {
          "address": "0x0a4490233fd6ea02873af11c744d286dc3d6c127",
          "topics": [
            "0xf2a0f2a76c50e4dc5a5d674a2b409d8fb294b648a1b7ce7a0cf9ddf5b898089a"
          ],
          "data": "0x00000000000000000000000010041dffbe8fb54ca4dfa56f2286680ec98a37c3",
          "blockHash": "0xf5a4cc81fa7c58a1617c7b8e3e0e98944f8222804c707a37e3f9c47e3bdebcc7",
          "blockNumber": "0x1662686",
          "blockTimestamp": "0x68db0d83",
          "transactionHash": "0x94bfee667d17fdc852c1029393d6707a06cdc2a5fa31d23ba1a1771ad40df118",
          "transactionIndex": "0xe6",
          "logIndex": "0x1b0",
          "removed": false
        },
        {
          "address": "0x5c37eb148d4a261acd101e2b997a0f163fb3e351",
          "topics": [
            "0xc3f4681fb2a57a13e121c6f24fe319c8572bb001497f2b74712695625ee9028e",
            "0x00000000000000000000000010041dffbe8fb54ca4dfa56f2286680ec98a37c3"
          ],
          "data": "0x0000000000000000000000007f39c581f595b53c5cb19bd0b3f8da6c935e2ca0000000000000000000000000c02aaa39b223fe8d0a0e5c4f27ead9083c756cc2000000000000000000000000b22cd280b29e581e34423e86f65fd259f456d3350000000000000000000000000a4490233fd6ea02873af11c744d286dc3d6c1270000000000000000000000000000000000000000000000000000000000000000000000000000000000000000000000000000000000000000000000000000000a",
          "blockHash": "0xf5a4cc81fa7c58a1617c7b8e3e0e98944f8222804c707a37e3f9c47e3bdebcc7",
          "blockNumber": "0x1662686",
          "blockTimestamp": "0x68db0d83",
          "transactionHash": "0x94bfee667d17fdc852c1029393d6707a06cdc2a5fa31d23ba1a1771ad40df118",
          "transactionIndex": "0xe6",
          "logIndex": "0x1b1",
          "removed": false
        }
      ],
      "logsBloom": "0x000002000000000000008000000000000000000040b80000008080000040000000000000002000000000020044000080040000000001800000000000000400400000000000002000000000000010000000012000000400000000000008020000000000000200000000800000000048000000048080800000000000000000004000000000000000100008000000000a0000000000000080200000000000000000000000000000000000420000000000000000000800000000000000000000000000000640000000000000000040000002000000200004000000800000000062000000000000000000000010000000000000000000008000000000000000408000",
      "type": "0x2",
      "transactionHash": "0x94bfee667d17fdc852c1029393d6707a06cdc2a5fa31d23ba1a1771ad40df118",
      "transactionIndex": "0xe6",
      "blockHash": "0xf5a4cc81fa7c58a1617c7b8e3e0e98944f8222804c707a37e3f9c47e3bdebcc7",
      "blockNumber": "0x1662686",
      "gasUsed": "0x7ef87",
      "effectiveGasPrice": "0xf62ae90",
      "from": "0x3aa518bd9ee447e3f71c01b69a0d5d49c534e05f",
      "to": "0x5c37eb148d4a261acd101e2b997a0f163fb3e351",
      "contractAddress": null
    },
    {
      "status": "0x1",
      "cumulativeGasUsed": "0x1640fec",
      "logs": [
        {
          "address": "0x7f39c581f595b53c5cb19bd0b3f8da6c935e2ca0",
          "topics": [
            "0x8c5be1e5ebec7d5bd14f71427d1e84f3dd0314c0f7b2291e5b200ac8c7c3b925",
            "0x0000000000000000000000003aa518bd9ee447e3f71c01b69a0d5d49c534e05f",
            "0x0000000000000000000000005c37eb148d4a261acd101e2b997a0f163fb3e351"
          ],
          "data": "0x00000000000000000000000000000000000000000000000000038d7ea4c68000",
          "blockHash": "0x3a20d6cfe14150cb2ad04969980f88c7c93fb8c3e0c15a284bd40103f0300c4e",
          "blockNumber": "0x1662687",
          "blockTimestamp": "0x68db0d8f",
          "transactionHash": "0x6c86b478d5dea714845bb594b739ab9d1e8559d2b0474afb3b26c1adb61cae20",
          "transactionIndex": "0xd7",
          "logIndex": "0x2a3",
          "removed": false
        }
      ],
      "logsBloom": "0x00000000200000000000000000000000000000000008000000000000000000000000000000000000000000000000000000000000000000000000000000200000000000000000000000000000000100000000000000000000000000000800000000000000000000000000000000000000000000000000000000000000000000000000000000000000000080000000000000000000000000000000000000000000020000000000000000000000000000000000000000000000000000010000000000000000000000100000000000000000000000000000000000000000000000000010000000000000000000008000000000000000008000000000000000000000",
      "type": "0x2",
      "transactionHash": "0x6c86b478d5dea714845bb594b739ab9d1e8559d2b0474afb3b26c1adb61cae20",
      "transactionIndex": "0xd7",
      "blockHash": "0x3a20d6cfe14150cb2ad04969980f88c7c93fb8c3e0c15a284bd40103f0300c4e",
      "blockNumber": "0x1662687",
      "gasUsed": "0xb488",
      "effectiveGasPrice": "0xfd90392",
      "from": "0x3aa518bd9ee447e3f71c01b69a0d5d49c534e05f",
      "to": "0x7f39c581f595b53c5cb19bd0b3f8da6c935e2ca0",
      "contractAddress": null
    },
    {
      "status": "0x1",
      "cumulativeGasUsed": "0x17dccaa",
      "logs": [
        {
          "address": "0x7f39c581f595b53c5cb19bd0b3f8da6c935e2ca0",
          "topics": [
            "0xddf252ad1be2c89b69c2b068fc378daa952ba7f163c4a11628f55a4df523b3ef",
            "0x0000000000000000000000003aa518bd9ee447e3f71c01b69a0d5d49c534e05f",
            "0x0000000000000000000000005c37eb148d4a261acd101e2b997a0f163fb3e351"
          ],
          "data": "0x00000000000000000000000000000000000000000000000000038d7ea4c68000",
          "blockHash": "0xa5ef303108362952477d59794f8be7cae119800278f3ec85db8867388d3146ef",
          "blockNumber": "0x1662688",
          "blockTimestamp": "0x68db0d9b",
          "transactionHash": "0x309bd6d9ac6ec99c9b03a60056b53eedaccd0b4e4be59b1151ad784688c4afe3",
          "transactionIndex": "0xfb",
          "logIndex": "0x276",
          "removed": false
        },
        {
          "address": "0x7f39c581f595b53c5cb19bd0b3f8da6c935e2ca0",
          "topics": [
            "0x8c5be1e5ebec7d5bd14f71427d1e84f3dd0314c0f7b2291e5b200ac8c7c3b925",
            "0x0000000000000000000000003aa518bd9ee447e3f71c01b69a0d5d49c534e05f",
            "0x0000000000000000000000005c37eb148d4a261acd101e2b997a0f163fb3e351"
          ],
          "data": "0x0000000000000000000000000000000000000000000000000000000000000000",
          "blockHash": "0xa5ef303108362952477d59794f8be7cae119800278f3ec85db8867388d3146ef",
          "blockNumber": "0x1662688",
          "blockTimestamp": "0x68db0d9b",
          "transactionHash": "0x309bd6d9ac6ec99c9b03a60056b53eedaccd0b4e4be59b1151ad784688c4afe3",
          "transactionIndex": "0xfb",
          "logIndex": "0x277",
          "removed": false
        },
        {
          "address": "0x7f39c581f595b53c5cb19bd0b3f8da6c935e2ca0",
          "topics": [
            "0x8c5be1e5ebec7d5bd14f71427d1e84f3dd0314c0f7b2291e5b200ac8c7c3b925",
            "0x0000000000000000000000005c37eb148d4a261acd101e2b997a0f163fb3e351",
            "0x000000000000000000000000b22cd280b29e581e34423e86f65fd259f456d335"
          ],
          "data": "0x00000000000000000000000000000000000000000000000000038d7ea4c68000",
          "blockHash": "0xa5ef303108362952477d59794f8be7cae119800278f3ec85db8867388d3146ef",
          "blockNumber": "0x1662688",
          "blockTimestamp": "0x68db0d9b",
          "transactionHash": "0x309bd6d9ac6ec99c9b03a60056b53eedaccd0b4e4be59b1151ad784688c4afe3",
          "transactionIndex": "0xfb",
          "logIndex": "0x278",
          "removed": false
        },
        {
          "address": "0x7f39c581f595b53c5cb19bd0b3f8da6c935e2ca0",
          "topics": [
            "0xddf252ad1be2c89b69c2b068fc378daa952ba7f163c4a11628f55a4df523b3ef",
            "0x0000000000000000000000005c37eb148d4a261acd101e2b997a0f163fb3e351",
            "0x000000000000000000000000b22cd280b29e581e34423e86f65fd259f456d335"
          ],
          "data": "0x00000000000000000000000000000000000000000000000000038d7ea4c68000",
          "blockHash": "0xa5ef303108362952477d59794f8be7cae119800278f3ec85db8867388d3146ef",
          "blockNumber": "0x1662688",
          "blockTimestamp": "0x68db0d9b",
          "transactionHash": "0x309bd6d9ac6ec99c9b03a60056b53eedaccd0b4e4be59b1151ad784688c4afe3",
          "transactionIndex": "0xfb",
          "logIndex": "0x279",
          "removed": false
        },
        {
          "address": "0x7f39c581f595b53c5cb19bd0b3f8da6c935e2ca0",
          "topics": [
            "0x8c5be1e5ebec7d5bd14f71427d1e84f3dd0314c0f7b2291e5b200ac8c7c3b925",
            "0x0000000000000000000000005c37eb148d4a261acd101e2b997a0f163fb3e351",
            "0x000000000000000000000000b22cd280b29e581e34423e86f65fd259f456d335"
          ],
          "data": "0x0000000000000000000000000000000000000000000000000000000000000000",
          "blockHash": "0xa5ef303108362952477d59794f8be7cae119800278f3ec85db8867388d3146ef",
          "blockNumber": "0x1662688",
          "blockTimestamp": "0x68db0d9b",
          "transactionHash": "0x309bd6d9ac6ec99c9b03a60056b53eedaccd0b4e4be59b1151ad784688c4afe3",
          "transactionIndex": "0xfb",
          "logIndex": "0x27a",
          "removed": false
        },
        {
          "address": "0x7f39c581f595b53c5cb19bd0b3f8da6c935e2ca0",
          "topics": [
            "0x8c5be1e5ebec7d5bd14f71427d1e84f3dd0314c0f7b2291e5b200ac8c7c3b925",
            "0x000000000000000000000000b22cd280b29e581e34423e86f65fd259f456d335",
            "0x000000000000000000000000bbbbbbbbbb9cc5e90e3b3af64bdaf62c37eeffcb"
          ],
          "data": "0x00000000000000000000000000000000000000000000000000038d7ea4c68000",
          "blockHash": "0xa5ef303108362952477d59794f8be7cae119800278f3ec85db8867388d3146ef",
          "blockNumber": "0x1662688",
          "blockTimestamp": "0x68db0d9b",
          "transactionHash": "0x309bd6d9ac6ec99c9b03a60056b53eedaccd0b4e4be59b1151ad784688c4afe3",
          "transactionIndex": "0xfb",
          "logIndex": "0x27b",
          "removed": false
        },
        {
          "address": "0xbbbbbbbbbb9cc5e90e3b3af64bdaf62c37eeffcb",
          "topics": [
            "0xa3b9472a1399e17e123f3c2e6586c23e504184d504de59cdaa2b375e880c6184",
            "0xb8fc70e82bc5bb53e773626fcc6a23f7eefa036918d7ef216ecfb1950a94a85e",
            "0x000000000000000000000000b22cd280b29e581e34423e86f65fd259f456d335",
            "0x000000000000000000000000b22cd280b29e581e34423e86f65fd259f456d335"
          ],
          "data": "0x00000000000000000000000000000000000000000000000000038d7ea4c68000",
          "blockHash": "0xa5ef303108362952477d59794f8be7cae119800278f3ec85db8867388d3146ef",
          "blockNumber": "0x1662688",
          "blockTimestamp": "0x68db0d9b",
          "transactionHash": "0x309bd6d9ac6ec99c9b03a60056b53eedaccd0b4e4be59b1151ad784688c4afe3",
          "transactionIndex": "0xfb",
          "logIndex": "0x27c",
          "removed": false
        },
        {
          "address": "0x7f39c581f595b53c5cb19bd0b3f8da6c935e2ca0",
          "topics": [
            "0xddf252ad1be2c89b69c2b068fc378daa952ba7f163c4a11628f55a4df523b3ef",
            "0x000000000000000000000000b22cd280b29e581e34423e86f65fd259f456d335",
            "0x000000000000000000000000bbbbbbbbbb9cc5e90e3b3af64bdaf62c37eeffcb"
          ],
          "data": "0x00000000000000000000000000000000000000000000000000038d7ea4c68000",
          "blockHash": "0xa5ef303108362952477d59794f8be7cae119800278f3ec85db8867388d3146ef",
          "blockNumber": "0x1662688",
          "blockTimestamp": "0x68db0d9b",
          "transactionHash": "0x309bd6d9ac6ec99c9b03a60056b53eedaccd0b4e4be59b1151ad784688c4afe3",
          "transactionIndex": "0xfb",
          "logIndex": "0x27d",
          "removed": false
        },
        {
          "address": "0x7f39c581f595b53c5cb19bd0b3f8da6c935e2ca0",
          "topics": [
            "0x8c5be1e5ebec7d5bd14f71427d1e84f3dd0314c0f7b2291e5b200ac8c7c3b925",
            "0x000000000000000000000000b22cd280b29e581e34423e86f65fd259f456d335",
            "0x000000000000000000000000bbbbbbbbbb9cc5e90e3b3af64bdaf62c37eeffcb"
          ],
          "data": "0x0000000000000000000000000000000000000000000000000000000000000000",
          "blockHash": "0xa5ef303108362952477d59794f8be7cae119800278f3ec85db8867388d3146ef",
          "blockNumber": "0x1662688",
          "blockTimestamp": "0x68db0d9b",
          "transactionHash": "0x309bd6d9ac6ec99c9b03a60056b53eedaccd0b4e4be59b1151ad784688c4afe3",
          "transactionIndex": "0xfb",
          "logIndex": "0x27e",
          "removed": false
        },
        {
          "address": "0x870ac11d48b15db9a138cf899d20f13f79ba00bc",
          "topics": [
            "0x7120161a7b3d31251e01294ab351ef15a41b91659a36032e4641bb89b121e321",
            "0xb8fc70e82bc5bb53e773626fcc6a23f7eefa036918d7ef216ecfb1950a94a85e"
          ],
          "data": "0x000000000000000000000000000000000000000000000000000000002403549400000000000000000000000000000000000000000000000000000000268ed2ce",
          "blockHash": "0xa5ef303108362952477d59794f8be7cae119800278f3ec85db8867388d3146ef",
          "blockNumber": "0x1662688",
          "blockTimestamp": "0x68db0d9b",
          "transactionHash": "0x309bd6d9ac6ec99c9b03a60056b53eedaccd0b4e4be59b1151ad784688c4afe3",
          "transactionIndex": "0xfb",
          "logIndex": "0x27f",
          "removed": false
        },
        {
          "address": "0xbbbbbbbbbb9cc5e90e3b3af64bdaf62c37eeffcb",
          "topics": [
            "0x9d9bd501d0657d7dfe415f779a620a62b78bc508ddc0891fbbd8b7ac0f8fce87",
            "0xb8fc70e82bc5bb53e773626fcc6a23f7eefa036918d7ef216ecfb1950a94a85e"
          ],
          "data": "0x000000000000000000000000000000000000000000000000000000002403549400000000000000000000000000000000000000000000000001720f323c72cae80000000000000000000000000000000000000000000000000000000000000000",
          "blockHash": "0xa5ef303108362952477d59794f8be7cae119800278f3ec85db8867388d3146ef",
          "blockNumber": "0x1662688",
          "blockTimestamp": "0x68db0d9b",
          "transactionHash": "0x309bd6d9ac6ec99c9b03a60056b53eedaccd0b4e4be59b1151ad784688c4afe3",
          "transactionIndex": "0xfb",
          "logIndex": "0x280",
          "removed": false
        },
        {
          "address": "0xbbbbbbbbbb9cc5e90e3b3af64bdaf62c37eeffcb",
          "topics": [
            "0x570954540bed6b1304a87dfe815a5eda4a648f7097a16240dcd85c9b5fd42a43",
            "0xb8fc70e82bc5bb53e773626fcc6a23f7eefa036918d7ef216ecfb1950a94a85e",
            "0x000000000000000000000000b22cd280b29e581e34423e86f65fd259f456d335",
            "0x0000000000000000000000005c37eb148d4a261acd101e2b997a0f163fb3e351"
          ],
          "data": "0x000000000000000000000000b22cd280b29e581e34423e86f65fd259f456d335000000000000000000000000000000000000000000000000000228875801a6ed00000000000000000000000000000000000000000000001fcd3cdd3278e205f5",
          "blockHash": "0xa5ef303108362952477d59794f8be7cae119800278f3ec85db8867388d3146ef",
          "blockNumber": "0x1662688",
          "blockTimestamp": "0x68db0d9b",
          "transactionHash": "0x309bd6d9ac6ec99c9b03a60056b53eedaccd0b4e4be59b1151ad784688c4afe3",
          "transactionIndex": "0xfb",
          "logIndex": "0x281",
          "removed": false
        },
        {
          "address": "0xc02aaa39b223fe8d0a0e5c4f27ead9083c756cc2",
          "topics": [
            "0xddf252ad1be2c89b69c2b068fc378daa952ba7f163c4a11628f55a4df523b3ef",
            "0x000000000000000000000000bbbbbbbbbb9cc5e90e3b3af64bdaf62c37eeffcb",
            "0x0000000000000000000000005c37eb148d4a261acd101e2b997a0f163fb3e351"
          ],
          "data": "0x000000000000000000000000000000000000000000000000000228875801a6ed",
          "blockHash": "0xa5ef303108362952477d59794f8be7cae119800278f3ec85db8867388d3146ef",
          "blockNumber": "0x1662688",
          "blockTimestamp": "0x68db0d9b",
          "transactionHash": "0x309bd6d9ac6ec99c9b03a60056b53eedaccd0b4e4be59b1151ad784688c4afe3",
          "transactionIndex": "0xfb",
          "logIndex": "0x282",
          "removed": false
        },
        {
          "address": "0xc02aaa39b223fe8d0a0e5c4f27ead9083c756cc2",
          "topics": [
            "0xddf252ad1be2c89b69c2b068fc378daa952ba7f163c4a11628f55a4df523b3ef",
            "0x0000000000000000000000005c37eb148d4a261acd101e2b997a0f163fb3e351",
            "0x0000000000000000000000003aa518bd9ee447e3f71c01b69a0d5d49c534e05f"
          ],
          "data": "0x000000000000000000000000000000000000000000000000000228875801a6ed",
          "blockHash": "0xa5ef303108362952477d59794f8be7cae119800278f3ec85db8867388d3146ef",
          "blockNumber": "0x1662688",
          "blockTimestamp": "0x68db0d9b",
          "transactionHash": "0x309bd6d9ac6ec99c9b03a60056b53eedaccd0b4e4be59b1151ad784688c4afe3",
          "transactionIndex": "0xfb",
          "logIndex": "0x283",
          "removed": false
        },
        {
          "address": "0x10041dffbe8fb54ca4dfa56f2286680ec98a37c3",
          "topics": [
            "0xddf252ad1be2c89b69c2b068fc378daa952ba7f163c4a11628f55a4df523b3ef",
            "0x0000000000000000000000000000000000000000000000000000000000000000",
            "0x0000000000000000000000003aa518bd9ee447e3f71c01b69a0d5d49c534e05f"
          ],
          "data": "0x0000000000000000000000000000000000000000000000000001c6bf52634000",
          "blockHash": "0xa5ef303108362952477d59794f8be7cae119800278f3ec85db8867388d3146ef",
          "blockNumber": "0x1662688",
          "blockTimestamp": "0x68db0d9b",
          "transactionHash": "0x309bd6d9ac6ec99c9b03a60056b53eedaccd0b4e4be59b1151ad784688c4afe3",
          "transactionIndex": "0xfb",
          "logIndex": "0x284",
          "removed": false
        },
        {
          "address": "0x5c37eb148d4a261acd101e2b997a0f163fb3e351",
          "topics": [
            "0xca0d4a1151cf4e7c20fcffb441cb3e88636d136769402e584ed509f78f896f61",
            "0x00000000000000000000000010041dffbe8fb54ca4dfa56f2286680ec98a37c3",
            "0x0000000000000000000000003aa518bd9ee447e3f71c01b69a0d5d49c534e05f"
          ],
          "data": "0x00000000000000000000000000000000000000000000000000038d7ea4c68000000000000000000000000000000000000000000000000000000228875801a6ed0000000000000000000000000000000000000000000000000001c6bf5263400000000000000000000000000000000000000000000000000000000000000000000000000000000000000000000000000000000000000000000000000000000000",
          "blockHash": "0xa5ef303108362952477d59794f8be7cae119800278f3ec85db8867388d3146ef",
          "blockNumber": "0x1662688",
          "blockTimestamp": "0x68db0d9b",
          "transactionHash": "0x309bd6d9ac6ec99c9b03a60056b53eedaccd0b4e4be59b1151ad784688c4afe3",
          "transactionIndex": "0xfb",
          "logIndex": "0x285",
          "removed": false
        }
      ],
      "logsBloom": "0x00000000200000000002000000000080000000000008000000040000000000000000400000000000000000004000000002000000080000000000000020a44000000000000010000000000008000100000000200000200000000000080800000000000000020000000000000000000800000000000080000000000010000000000000008000000018000080000000020000000000000000000000100000000000020000000000000000028000000000000000000880000000000001010000000020000202000000300001000000000002001020000000000400000000000020000010204001000008000000208081200000000000008000000000000000000000",
      "type": "0x2",
      "transactionHash": "0x309bd6d9ac6ec99c9b03a60056b53eedaccd0b4e4be59b1151ad784688c4afe3",
      "transactionIndex": "0xfb",
      "blockHash": "0xa5ef303108362952477d59794f8be7cae119800278f3ec85db8867388d3146ef",
      "blockNumber": "0x1662688",
      "gasUsed": "0x604e2",
      "effectiveGasPrice": "0x106a2765",
      "from": "0x3aa518bd9ee447e3f71c01b69a0d5d49c534e05f",
      "to": "0x5c37eb148d4a261acd101e2b997a0f163fb3e351",
      "contractAddress": null
    }
  ],
  "libraries": [],
  "pending": [],
  "returns": {},
  "timestamp": 1759186386522,
  "chain": 1,
  "commit": "e268c12"
}