{
  "transactions": [
    {
      "hash": "0xcc9f099adf7ac333c29243c29c7c3a5c0021ddc62e19466c7e6d9cb4ed9d4a96",
      "transactionType": "CALL",
      "contractName": null,
      "contractAddress": "0xbbbbbbbbbb9cc5e90e3b3af64bdaf62c37eeffcb",
      "function": "borrow((address,address,address,address,uint256),uint256,uint256,address,address)",
      "arguments": [
        "(0x833589fCD6eDb6E08f4c7C32D4f71b54bdA02913, 0x4200000000000000000000000000000000000006, 0xFEa2D58cEfCb9fcb597723c6bAE66fFE4193aFE4, 0x46415998764C29aB2a25CbeA6254146D50D22687, 860000000000000000)",
        "1000000000",
        "0",
        "0x6fB16107207036223289029c154A9273E6c40040",
        "0x6fB16107207036223289029c154A9273E6c40040"
      ],
      "transaction": {
        "from": "0x6fb16107207036223289029c154a9273e6c40040",
        "to": "0xbbbbbbbbbb9cc5e90e3b3af64bdaf62c37eeffcb",
        "gas": "0x2f977",
        "value": "0x0",
        "input": "0x50d8cd4b000000000000000000000000833589fcd6edb6e08f4c7c32d4f71b54bda029130000000000000000000000004200000000000000000000000000000000000006000000000000000000000000fea2d58cefcb9fcb597723c6bae66ffe4193afe400000000000000000000000046415998764c29ab2a25cbea6254146d50d226870000000000000000000000000000000000000000000000000bef55718ad60000000000000000000000000000000000000000000000000000000000003b9aca0000000000000000000000000000000000000000000000000000000000000000000000000000000000000000006fb16107207036223289029c154a9273e6c400400000000000000000000000006fb16107207036223289029c154a9273e6c40040",
        "nonce": "0x1",
        "chainId": "0x2105"
      },
      "additionalContracts": [],
      "isFixedGasLimit": false
    }
  ],
  "receipts": [
    {
      "status": "0x1",
      "cumulativeGasUsed": "0x26569",
      "logs": [
        {
          "address": "0x46415998764c29ab2a25cbea6254146d50d22687",
          "topics": [
            "0x7120161a7b3d31251e01294ab351ef15a41b91659a36032e4641bb89b121e321",
            "0x8793cf302b8ffd655ab97bd1c695dbd967807e8367a65cb2f4edaf1380ba1bda"
          ],
          "data": "0x0000000000000000000000000000000000000000000000000000000058897dfd000000000000000000000000000000000000000000000000000000006112e5a0",
          "blockHash": "0x0a82339c084b1f72d20b604619d4446f2daf22bb4f475f196388ce1fd46410ac",
          "blockNumber": "0x1d08267",
          "blockTimestamp": "0x682b64d6",
          "transactionHash": "0xcc9f099adf7ac333c29243c29c7c3a5c0021ddc62e19466c7e6d9cb4ed9d4a96",
          "transactionIndex": "0x0",
          "logIndex": "0x0",
          "removed": false
        },
        {
          "address": "0xbbbbbbbbbb9cc5e90e3b3af64bdaf62c37eeffcb",
          "topics": [
            "0x9d9bd501d0657d7dfe415f779a620a62b78bc508ddc0891fbbd8b7ac0f8fce87",
            "0x8793cf302b8ffd655ab97bd1c695dbd967807e8367a65cb2f4edaf1380ba1bda"
          ],
          "data": "0x0000000000000000000000000000000000000000000000000000000058897dfd00000000000000000000000000000000000000000000000000000000000fdb750000000000000000000000000000000000000000000000000000000000000000",
          "blockHash": "0x0a82339c084b1f72d20b604619d4446f2daf22bb4f475f196388ce1fd46410ac",
          "blockNumber": "0x1d08267",
          "blockTimestamp": "0x682b64d6",
          "transactionHash": "0xcc9f099adf7ac333c29243c29c7c3a5c0021ddc62e19466c7e6d9cb4ed9d4a96",
          "transactionIndex": "0x0",
          "logIndex": "0x1",
          "removed": false
        },
        {
          "address": "0xbbbbbbbbbb9cc5e90e3b3af64bdaf62c37eeffcb",
          "topics": [
            "0x570954540bed6b1304a87dfe815a5eda4a648f7097a16240dcd85c9b5fd42a43",
            "0x8793cf302b8ffd655ab97bd1c695dbd967807e8367a65cb2f4edaf1380ba1bda",
            "0x0000000000000000000000006fb16107207036223289029c154a9273e6c40040",
            "0x0000000000000000000000006fb16107207036223289029c154a9273e6c40040"
          ],
          "data": "0x0000000000000000000000006fb16107207036223289029c154a9273e6c40040000000000000000000000000000000000000000000000000000000003b9aca0000000000000000000000000000000000000000000000000000035fa78e631403",
          "blockHash": "0x0a82339c084b1f72d20b604619d4446f2daf22bb4f475f196388ce1fd46410ac",
          "blockNumber": "0x1d08267",
          "blockTimestamp": "0x682b64d6",
          "transactionHash": "0xcc9f099adf7ac333c29243c29c7c3a5c0021ddc62e19466c7e6d9cb4ed9d4a96",
          "transactionIndex": "0x0",
          "logIndex": "0x2",
          "removed": false
        },
        {
          "address": "0x833589fcd6edb6e08f4c7c32d4f71b54bda02913",
          "topics": [
            "0xddf252ad1be2c89b69c2b068fc378daa952ba7f163c4a11628f55a4df523b3ef",
            "0x000000000000000000000000bbbbbbbbbb9cc5e90e3b3af64bdaf62c37eeffcb",
            "0x0000000000000000000000006fb16107207036223289029c154a9273e6c40040"
          ],
          "data": "0x000000000000000000000000000000000000000000000000000000003b9aca00",
          "blockHash": "0x0a82339c084b1f72d20b604619d4446f2daf22bb4f475f196388ce1fd46410ac",
          "blockNumber": "0x1d08267",
          "blockTimestamp": "0x682b64d6",
          "transactionHash": "0xcc9f099adf7ac333c29243c29c7c3a5c0021ddc62e19466c7e6d9cb4ed9d4a96",
          "transactionIndex": "0x0",
          "logIndex": "0x3",
          "removed": false
        }
      ],
      "logsBloom": "0x00000000000000000002000000000080000000000000000000000000000000000000400100000100000000000000100000000000000100000000000020804000000000000010000000000008000000000000000000080000000000080000000020800000000000000000000000002000000000000000000000000010000000000000000000000008000002000000000001000000000000000008000000000000000000000000000000000000000000000000000000000000000000000000000020000002000000000000000000000000000100000000000000000000000000000000004001000008000000200001000000000000000000000000000000000000",
      "type": "0x2",
      "transactionHash": "0xcc9f099adf7ac333c29243c29c7c3a5c0021ddc62e19466c7e6d9cb4ed9d4a96",
      "transactionIndex": "0x0",
      "blockHash": "0x0a82339c084b1f72d20b604619d4446f2daf22bb4f475f196388ce1fd46410ac",
      "blockNumber": "0x1d08267",
      "gasUsed": "0x26569",
      "effectiveGasPrice": "0xa89fe",
      "blobGasPrice": "0x1",
      "from": "0x6fb16107207036223289029c154a9273e6c40040",
      "to": "0xbbbbbbbbbb9cc5e90e3b3af64bdaf62c37eeffcb",
      "contractAddress": null
    }
  ],
  "libraries": [],
  "pending": [],
  "returns": {},
  "timestamp": 1747706724,
  "chain": 8453,
  "commit": "2bb3bb5"
}