{
  "transactions": [
    {
      "hash": "0xe9dcf4505bc4dcd41dacb6ca8f07a4eb46a05e319a8f018c0e9c803dd381c4ed",
      "transactionType": "CALL",
      "contractName": null,
      "contractAddress": "0xdbdc1ef57537e34680b898e1febd3d68c7389bcb",
      "function": "approve(address,uint256)",
      "arguments": [
        "0x4466D52b714Ef32657db89ec61FAB1b7E30A0352",
        "10000000000000000000"
      ],
      "transaction": {
        "from": "0x3aa518bd9ee447e3f71c01b69a0d5d49c534e05f",
        "to": "0xdbdc1ef57537e34680b898e1febd3d68c7389bcb",
        "gas": "0xfaa1",
        "value": "0x0",
        "input": "0x095ea7b30000000000000000000000004466d52b714ef32657db89ec61fab1b7e30a03520000000000000000000000000000000000000000000000008ac7230489e80000",
        "nonce": "0x2c",
        "chainId": "0x1"
      },
      "additionalContracts": [],
      "isFixedGasLimit": false
    },
    {
      "hash": "0x071f23bbeb2e618e52694ff1c65869d574badf185494bd972f211143d018d586",
      "transactionType": "CALL",
      "contractName": null,
      "contractAddress": "0x4466d52b714ef32657db89ec61fab1b7e30a0352",
      "function": "deployLeverageTokenAndDeposit((string,string,uint256,uint256),(bytes32,bytes32),(address,address,uint256,uint256,uint256,uint120,uint256,uint256,uint256,uint256),uint256,uint256)",
      "arguments": [
        "(siUSD / USDC 11x Leverage Token, SIUSD-USDC-11x, 0, 0)",
        "(0xbbf7ce1b40d32d3e3048f5cf27eeaa6de8cb27b80194690aab191a63381d8c99, 0x96e33dde029e2ba30b714deda15572e59b7d4f1b07a29cc095bb0c0cb87c9ea9)",
        "(0x1d0c191a0fe2917e244826D3a8d0a64503efAec8, 0x3aA518Bd9ee447E3F71c01B69A0d5d49C534E05F, 1095238095000000000, 1100000000000000000, 1100502513000000000, 3600, 1001000000000000000, 999000000000000000, 1094073377000000000, 5000)",
        "10000000000000000000",
        "500000000000000000"
      ],
      "transaction": {
        "from": "0x3aa518bd9ee447e3f71c01b69a0d5d49c534e05f",
        "to": "0x4466d52b714ef32657db89ec61fab1b7e30a0352",
        "gas": "0x1f8f16",
        "value": "0x0",
        "input": "0x09707fc200000000000000000000000000000000000000000000000000000000000001e0bbf7ce1b40d32d3e3048f5cf27eeaa6de8cb27b80194690aab191a63381d8c9996e33dde029e2ba30b714deda15572e59b7d4f1b07a29cc095bb0c0cb87c9ea90000000000000000000000001d0c191a0fe2917e244826d3a8d0a64503efaec80000000000000000000000003aa518bd9ee447e3f71c01b69a0d5d49c534e05f0000000000000000000000000000000000000000000000000f33113e9cf356000000000000000000000000000000000000000000000000000f43fc2c04ee00000000000000000000000000000000000000000000000000000f45c53471ca2a000000000000000000000000000000000000000000000000000000000000000e100000000000000000000000000000000000000000000000000de444324c2a80000000000000000000000000000000000000000000000000000ddd2935029d80000000000000000000000000000000000000000000000000000f2eedf0924c0a0000000000000000000000000000000000000000000000000000000000000013880000000000000000000000000000000000000000000000008ac7230489e8000000000000000000000000000000000000000000000000000006f05b59d3b20000000000000000000000000000000000000000000000000000000000000000008000000000000000000000000000000000000000000000000000000000000000c000000000000000000000000000000000000000000000000000000000000000000000000000000000000000000000000000000000000000000000000000000000000000000000000000000000000000000000000000000000000000000000001f7369555344202f205553444320313178204c6576657261676520546f6b656e00000000000000000000000000000000000000000000000000000000000000000e53495553442d555344432d313178000000000000000000000000000000000000",
        "nonce": "0x2d",
        "chainId": "0x1"
      },
      "additionalContracts": [
        {
          "transactionType": "CREATE2",
          "contractName": null,
          "address": "0xe9a32ae2d53459ac490f1dbe0cfd0786fb298f1f",
          "initCode": "0x3d602d80600a3d3981f3363d3d373d3d3d363d7300c66934ebca0f2a845812bc368b230f6da11a5c5af43d82803e903d91602b57fd5bf3"
        },
        {
          "transactionType": "CREATE",
          "contractName": "ERC1967Proxy",
          "address": "0xf7356ee83b5e31f1afed5cc0d327ed39f3d6a69f",
          "initCode": "0x60806040526102a88038038061001481610168565b92833981016040828203126101645781516001600160a01b03811692909190838303610164576020810151906001600160401b03821161016457019281601f8501121561016457835161006e610069826101a1565b610168565b9481865260208601936020838301011161016457815f926020809301865e86010152823b15610152577f360894a13ba1a3210667c828492db98dca3e2076cc3735a920a3ca505d382bbc80546001600160a01b031916821790557fbc7cd75a20ee27fd9adebab32041f755214dbc6bffa90cc0225b39da2e5c2d3b5f80a282511561013a575f8091610122945190845af43d15610132573d91610113610069846101a1565b9283523d5f602085013e6101bc565b505b604051608d908161021b8239f35b6060916101bc565b50505034156101245763b398979f60e01b5f5260045ffd5b634c9c8ce360e01b5f5260045260245ffd5b5f80fd5b6040519190601f01601f191682016001600160401b0381118382101761018d57604052565b634e487b7160e01b5f52604160045260245ffd5b6001600160401b03811161018d57601f01601f191660200190565b906101e057508051156101d157805190602001fd5b63d6bda27560e01b5f5260045ffd5b81511580610211575b6101f1575090565b639996b31560e01b5f9081526001600160a01b0391909116600452602490fd5b50803b156101e956fe60806040525f8073ffffffffffffffffffffffffffffffffffffffff7f360894a13ba1a3210667c828492db98dca3e2076cc3735a920a3ca505d382bbc5416368280378136915af43d5f803e156053573d5ff35b3d5ffdfea2646970667358221220efd3ca988fdda9226ffa3fb6a447bf34662af469a6e10f66494d212177be74ab64736f6c634300081e00330000000000000000000000001d0c191a0fe2917e244826d3a8d0a64503efaec80000000000000000000000000000000000000000000000000000000000000040000000000000000000000000000000000000000000000000000000000000016402930bd10000000000000000000000003aa518bd9ee447e3f71c01b69a0d5d49c534e05f0000000000000000000000004466d52b714ef32657db89ec61fab1b7e30a03520000000000000000000000005c37eb148d4a261acd101e2b997a0f163fb3e3510000000000000000000000000000000000000000000000000f33113e9cf356000000000000000000000000000000000000000000000000000f43fc2c04ee00000000000000000000000000000000000000000000000000000f45c53471ca2a000000000000000000000000000000000000000000000000000000000000000e100000000000000000000000000000000000000000000000000de444324c2a80000000000000000000000000000000000000000000000000000ddd2935029d80000000000000000000000000000000000000000000000000000f2eedf0924c0a00000000000000000000000000000000000000000000000000000000000000138800000000000000000000000000000000000000000000000000000000"
        },
        {
          "transactionType": "CREATE2",
          "contractName": "BeaconProxy",
          "address": "0x604d37747f3382fa51519e7542d54f1e730b97a3",
          "initCode": "0x60a08060405261050d80380380916100178285610292565b833981016040828203126101eb5761002e826102c9565b602083015190926001600160401b0382116101eb57019080601f830112156101eb57815161005b816102dd565b926100696040519485610292565b8184526020840192602083830101116101eb57815f926020809301855e84010152823b15610274577fa3f0ad74e5423aebfd80d3ef4346578335a9a72aeaee59ff6cb3582b35133d5080546001600160a01b0319166001600160a01b038516908117909155604051635c60da1b60e01b8152909190602081600481865afa9081156101f7575f9161023a575b50803b1561021a5750817f1cf3b03a6cf19fa2baba4df148e9dcabedea7f8a5c07840e207e5c089be95d3e5f80a282511561020257602060049260405193848092635c60da1b60e01b82525afa9182156101f7575f926101ae575b505f809161018a945190845af43d156101a6573d9161016e836102dd565b9261017c6040519485610292565b83523d5f602085013e6102f8565b505b6080526040516101b6908161035782396080518160460152f35b6060916102f8565b9291506020833d6020116101ef575b816101ca60209383610292565b810103126101eb575f80916101e161018a956102c9565b9394509150610150565b5f80fd5b3d91506101bd565b6040513d5f823e3d90fd5b505050341561018c5763b398979f60e01b5f5260045ffd5b634c9c8ce360e01b5f9081526001600160a01b0391909116600452602490fd5b90506020813d60201161026c575b8161025560209383610292565b810103126101eb57610266906102c9565b5f6100f5565b3d9150610248565b631933b43b60e21b5f9081526001600160a01b038416600452602490fd5b601f909101601f19168101906001600160401b038211908210176102b557604052565b634e487b7160e01b5f52604160045260245ffd5b51906001600160a01b03821682036101eb57565b6001600160401b0381116102b557601f01601f191660200190565b9061031c575080511561030d57805190602001fd5b63d6bda27560e01b5f5260045ffd5b8151158061034d575b61032d575090565b639996b31560e01b5f9081526001600160a01b0391909116600452602490fd5b50803b1561032556fe60806040527f5c60da1b000000000000000000000000000000000000000000000000000000006080526020608060048173ffffffffffffffffffffffffffffffffffffffff7f0000000000000000000000000000000000000000000000000000000000000000165afa8015610107575f9015610163575060203d602011610100575b7fffffffffffffffffffffffffffffffffffffffffffffffffffffffffffffffe0601f820116608001906080821067ffffffffffffffff8311176100d3576100ce91604052608001610112565b610163565b7f4e487b71000000000000000000000000000000000000000000000000000000005f52604160045260245ffd5b503d610081565b6040513d5f823e3d90fd5b7fffffffffffffffffffffffffffffffffffffffffffffffffffffffffffffff80602091011261015f5760805173ffffffffffffffffffffffffffffffffffffffff8116810361015f5790565b5f80fd5b5f8091368280378136915af43d5f803e1561017c573d5ff35b3d5ffdfea26469706673582212205447fc6bdf2f5ebea38dad22e17329c0f45f58320ca5e5ca9b25c8c815cb469264736f6c634300081e0033000000000000000000000000603da735780e6bc7d04f3fb85c26dcccd4ff0a82000000000000000000000000000000000000000000000000000000000000004000000000000000000000000000000000000000000000000000000000000000e4906571470000000000000000000000005c37eb148d4a261acd101e2b997a0f163fb3e351000000000000000000000000000000000000000000000000000000000000006000000000000000000000000000000000000000000000000000000000000000a0000000000000000000000000000000000000000000000000000000000000001f7369555344202f205553444320313178204c6576657261676520546f6b656e00000000000000000000000000000000000000000000000000000000000000000e53495553442d555344432d31317800000000000000000000000000000000000000000000000000000000000000000000000000000000000000000000"
        }
      ],
      "isFixedGasLimit": false
    }
  ],
  "receipts": [
    {
      "status": "0x1",
      "cumulativeGasUsed": "0x1b58544",
      "logs": [
        {
          "address": "0xdbdc1ef57537e34680b898e1febd3d68c7389bcb",
          "topics": [
            "0x8c5be1e5ebec7d5bd14f71427d1e84f3dd0314c0f7b2291e5b200ac8c7c3b925",
            "0x0000000000000000000000003aa518bd9ee447e3f71c01b69a0d5d49c534e05f",
            "0x0000000000000000000000004466d52b714ef32657db89ec61fab1b7e30a0352"
          ],
          "data": "0x0000000000000000000000000000000000000000000000008ac7230489e80000",
          "blockHash": "0xdb3f925000abe8a6780052d83f41507f8048fc97f68385164e3cad5ce5735118",
          "blockNumber": "0x16e807e",
          "blockTimestamp": "0x6940314b",
          "transactionHash": "0xe9dcf4505bc4dcd41dacb6ca8f07a4eb46a05e319a8f018c0e9c803dd381c4ed",
          "transactionIndex": "0xe5",
          "logIndex": "0x3ef",
          "removed": false
        }
      ],
      "logsBloom": "0x00000000200000000000000000000000000000000000000000000000000000000000000000000000000000000000000000000000000000100000000000200000000000000000000000000000000100000000000000000000000000000000000000000000000000000000000000000000000000000000000000000000000000002100000000000000000000000000000000000000000000000000000000000000020000000000000000000000000000000000000000000000000000010000000000000000000000000000000000000000000000000000000000000000000000000014400000000000000000000000000000000000000000000000000000000000",
      "type": "0x2",
      "transactionHash": "0xe9dcf4505bc4dcd41dacb6ca8f07a4eb46a05e319a8f018c0e9c803dd381c4ed",
      "transactionIndex": "0xe5",
      "blockHash": "0xdb3f925000abe8a6780052d83f41507f8048fc97f68385164e3cad5ce5735118",
      "blockNumber": "0x16e807e",
      "gasUsed": "0xb574",
      "effectiveGasPrice": "0x1c6a422a",
      "from": "0x3aa518bd9ee447e3f71c01b69a0d5d49c534e05f",
      "to": "0xdbdc1ef57537e34680b898e1febd3d68c7389bcb",
      "contractAddress": null
    },
    {
      "status": "0x1",
      "cumulativeGasUsed": "0x12e596a",
      "logs": [
        {
          "address": "0xce05fbed9260810bdded179adfdaf737be7ded71",
          "topics": [
            "0x90a228f4b5bc611babf005ecebd48836d9c73714549183b216fec07d3ee4348c"
          ],
          "data": "0x000000000000000000000000e9a32ae2d53459ac490f1dbe0cfd0786fb298f1f",
          "blockHash": "0x46a50a214522427e4706f3442294569f9d21832320c2a637a84845799a3a7585",
          "blockNumber": "0x16e8080",
          "blockTimestamp": "0x69403163",
          "transactionHash": "0x071f23bbeb2e618e52694ff1c65869d574badf185494bd972f211143d018d586",
          "transactionIndex": "0xcb",
          "logIndex": "0x1a8",
          "removed": false
        },
        {
          "address": "0xe9a32ae2d53459ac490f1dbe0cfd0786fb298f1f",
          "topics": [
            "0x4936702b8ba221fe23c531f1a2d5ba3022c8e5238de7a4428155d32b367c129c",
            "0xbbf7ce1b40d32d3e3048f5cf27eeaa6de8cb27b80194690aab191a63381d8c99",
            "0x0000000000000000000000004466d52b714ef32657db89ec61fab1b7e30a0352"
          ],
          "data": "0x000000000000000000000000a0b86991c6218b36c1d19d4a2e9eb0ce3606eb48000000000000000000000000dbdc1ef57537e34680b898e1febd3d68c7389bcb000000000000000000000000d2cc46b9b2d761502ef933320ecf0268ec0dfa6d000000000000000000000000870ac11d48b15db9a138cf899d20f13f79ba00bc0000000000000000000000000000000000000000000000000cb2bba6f17b8000",
          "blockHash": "0x46a50a214522427e4706f3442294569f9d21832320c2a637a84845799a3a7585",
          "blockNumber": "0x16e8080",
          "blockTimestamp": "0x69403163",
          "transactionHash": "0x071f23bbeb2e618e52694ff1c65869d574badf185494bd972f211143d018d586",
          "transactionIndex": "0xcb",
          "logIndex": "0x1a9",
          "removed": false
        },
        {
          "address": "0xe9a32ae2d53459ac490f1dbe0cfd0786fb298f1f",
          "topics": [
            "0xc7f505b2f371ae2175ee4913f4499e1f2633a7b5936321eed1cdaeb6115181d2"
          ],
          "data": "0x0000000000000000000000000000000000000000000000000000000000000001",
          "blockHash": "0x46a50a214522427e4706f3442294569f9d21832320c2a637a84845799a3a7585",
          "blockNumber": "0x16e8080",
          "blockTimestamp": "0x69403163",
          "transactionHash": "0x071f23bbeb2e618e52694ff1c65869d574badf185494bd972f211143d018d586",
          "transactionIndex": "0xcb",
          "logIndex": "0x1aa",
          "removed": false
        },
        {
          "address": "0xf7356ee83b5e31f1afed5cc0d327ed39f3d6a69f",
          "topics": [
            "0xbc7cd75a20ee27fd9adebab32041f755214dbc6bffa90cc0225b39da2e5c2d3b",
            "0x0000000000000000000000001d0c191a0fe2917e244826d3a8d0a64503efaec8"
          ],
          "data": "0x",
          "blockHash": "0x46a50a214522427e4706f3442294569f9d21832320c2a637a84845799a3a7585",
          "blockNumber": "0x16e8080",
          "blockTimestamp": "0x69403163",
          "transactionHash": "0x071f23bbeb2e618e52694ff1c65869d574badf185494bd972f211143d018d586",
          "transactionIndex": "0xcb",
          "logIndex": "0x1ab",
          "removed": false
        },
        {
          "address": "0xf7356ee83b5e31f1afed5cc0d327ed39f3d6a69f",
          "topics": [
            "0x1ac95be1853baa8304ed1d2e0260090f434df21565a173bfcf0e0b6fb2df9f20"
          ],
          "data": "0x0000000000000000000000000000000000000000000000000000000000000e100000000000000000000000000000000000000000000000000de444324c2a80000000000000000000000000000000000000000000000000000ddd2935029d8000",
          "blockHash": "0x46a50a214522427e4706f3442294569f9d21832320c2a637a84845799a3a7585",
          "blockNumber": "0x16e8080",
          "blockTimestamp": "0x69403163",
          "transactionHash": "0x071f23bbeb2e618e52694ff1c65869d574badf185494bd972f211143d018d586",
          "transactionIndex": "0xcb",
          "logIndex": "0x1ac",
          "removed": false
        },
        {
          "address": "0xf7356ee83b5e31f1afed5cc0d327ed39f3d6a69f",
          "topics": [
            "0x907e644655df3921a8519baf7b92482f53ebd8aa56d81dad48e2a324abe8c19a"
          ],
          "data": "0x0000000000000000000000000000000000000000000000000f33113e9cf356000000000000000000000000000000000000000000000000000f43fc2c04ee00000000000000000000000000000000000000000000000000000f45c53471ca2a00",
          "blockHash": "0x46a50a214522427e4706f3442294569f9d21832320c2a637a84845799a3a7585",
          "blockNumber": "0x16e8080",
          "blockTimestamp": "0x69403163",
          "transactionHash": "0x071f23bbeb2e618e52694ff1c65869d574badf185494bd972f211143d018d586",
          "transactionIndex": "0xcb",
          "logIndex": "0x1ad",
          "removed": false
        },
        {
          "address": "0xf7356ee83b5e31f1afed5cc0d327ed39f3d6a69f",
          "topics": [
            "0xae5d896f92e6367724d7b0e838e1ff0fbc15e278bd65035df77c2bdc565d6533"
          ],
          "data": "0x0000000000000000000000000000000000000000000000000f2eedf0924c0a000000000000000000000000000000000000000000000000000000000000001388",
          "blockHash": "0x46a50a214522427e4706f3442294569f9d21832320c2a637a84845799a3a7585",
          "blockNumber": "0x16e8080",
          "blockTimestamp": "0x69403163",
          "transactionHash": "0x071f23bbeb2e618e52694ff1c65869d574badf185494bd972f211143d018d586",
          "transactionIndex": "0xcb",
          "logIndex": "0x1ae",
          "removed": false
        },
        {
          "address": "0xf7356ee83b5e31f1afed5cc0d327ed39f3d6a69f",
          "topics": [
            "0x8be0079c531659141344cd1fd0a4f28419497f9722a3daafe3b4186f6b6457e0",
            "0x0000000000000000000000000000000000000000000000000000000000000000",
            "0x0000000000000000000000003aa518bd9ee447e3f71c01b69a0d5d49c534e05f"
          ],
          "data": "0x",
          "blockHash": "0x46a50a214522427e4706f3442294569f9d21832320c2a637a84845799a3a7585",
          "blockNumber": "0x16e8080",
          "blockTimestamp": "0x69403163",
          "transactionHash": "0x071f23bbeb2e618e52694ff1c65869d574badf185494bd972f211143d018d586",
          "transactionIndex": "0xcb",
          "logIndex": "0x1af",
          "removed": false
        },
        {
          "address": "0xf7356ee83b5e31f1afed5cc0d327ed39f3d6a69f",
          "topics": [
            "0xf76781ab47911f3e8c8434949e746f9832a33ffd9d1e9c1c9e784c802561ede6",
            "0x0000000000000000000000004466d52b714ef32657db89ec61fab1b7e30a0352",
            "0x0000000000000000000000005c37eb148d4a261acd101e2b997a0f163fb3e351"
          ],
          "data": "0x",
          "blockHash": "0x46a50a214522427e4706f3442294569f9d21832320c2a637a84845799a3a7585",
          "blockNumber": "0x16e8080",
          "blockTimestamp": "0x69403163",
          "transactionHash": "0x071f23bbeb2e618e52694ff1c65869d574badf185494bd972f211143d018d586",
          "transactionIndex": "0xcb",
          "logIndex": "0x1b0",
          "removed": false
        },
        {
          "address": "0xf7356ee83b5e31f1afed5cc0d327ed39f3d6a69f",
          "topics": [
            "0xc7f505b2f371ae2175ee4913f4499e1f2633a7b5936321eed1cdaeb6115181d2"
          ],
          "data": "0x0000000000000000000000000000000000000000000000000000000000000001",
          "blockHash": "0x46a50a214522427e4706f3442294569f9d21832320c2a637a84845799a3a7585",
          "blockNumber": "0x16e8080",
          "blockTimestamp": "0x69403163",
          "transactionHash": "0x071f23bbeb2e618e52694ff1c65869d574badf185494bd972f211143d018d586",
          "transactionIndex": "0xcb",
          "logIndex": "0x1b1",
          "removed": false
        },
        {
          "address": "0x604d37747f3382fa51519e7542d54f1e730b97a3",
          "topics": [
            "0x1cf3b03a6cf19fa2baba4df148e9dcabedea7f8a5c07840e207e5c089be95d3e",
            "0x000000000000000000000000603da735780e6bc7d04f3fb85c26dcccd4ff0a82"
          ],
          "data": "0x",
          "blockHash": "0x46a50a214522427e4706f3442294569f9d21832320c2a637a84845799a3a7585",
          "blockNumber": "0x16e8080",
          "blockTimestamp": "0x69403163",
          "transactionHash": "0x071f23bbeb2e618e52694ff1c65869d574badf185494bd972f211143d018d586",
          "transactionIndex": "0xcb",
          "logIndex": "0x1b2",
          "removed": false
        },
        {
          "address": "0x604d37747f3382fa51519e7542d54f1e730b97a3",
          "topics": [
            "0x8be0079c531659141344cd1fd0a4f28419497f9722a3daafe3b4186f6b6457e0",
            "0x0000000000000000000000000000000000000000000000000000000000000000",
            "0x0000000000000000000000005c37eb148d4a261acd101e2b997a0f163fb3e351"
          ],
          "data": "0x",
          "blockHash": "0x46a50a214522427e4706f3442294569f9d21832320c2a637a84845799a3a7585",
          "blockNumber": "0x16e8080",
          "blockTimestamp": "0x69403163",
          "transactionHash": "0x071f23bbeb2e618e52694ff1c65869d574badf185494bd972f211143d018d586",
          "transactionIndex": "0xcb",
          "logIndex": "0x1b3",
          "removed": false
        },
        {
          "address": "0x604d37747f3382fa51519e7542d54f1e730b97a3",
          "topics": [
            "0x57d9c3176493540cc7a0fba3538e0908b18dfe9468541ad54ba54fd474d33fec"
          ],
          "data": "0x00000000000000000000000000000000000000000000000000000000000000400000000000000000000000000000000000000000000000000000000000000080000000000000000000000000000000000000000000000000000000000000001f7369555344202f205553444320313178204c6576657261676520546f6b656e00000000000000000000000000000000000000000000000000000000000000000e53495553442d555344432d313178000000000000000000000000000000000000",
          "blockHash": "0x46a50a214522427e4706f3442294569f9d21832320c2a637a84845799a3a7585",
          "blockNumber": "0x16e8080",
          "blockTimestamp": "0x69403163",
          "transactionHash": "0x071f23bbeb2e618e52694ff1c65869d574badf185494bd972f211143d018d586",
          "transactionIndex": "0xcb",
          "logIndex": "0x1b4",
          "removed": false
        },
        {
          "address": "0x604d37747f3382fa51519e7542d54f1e730b97a3",
          "topics": [
            "0xc7f505b2f371ae2175ee4913f4499e1f2633a7b5936321eed1cdaeb6115181d2"
          ],
          "data": "0x0000000000000000000000000000000000000000000000000000000000000001",
          "blockHash": "0x46a50a214522427e4706f3442294569f9d21832320c2a637a84845799a3a7585",
          "blockNumber": "0x16e8080",
          "blockTimestamp": "0x69403163",
          "transactionHash": "0x071f23bbeb2e618e52694ff1c65869d574badf185494bd972f211143d018d586",
          "transactionIndex": "0xcb",
          "logIndex": "0x1b5",
          "removed": false
        },
        {
          "address": "0x603da735780e6bc7d04f3fb85c26dcccd4ff0a82",
          "topics": [
            "0xfc6ca44b2e0253d7b333f816a6b6e52e7292a56fd5f38e52946f9dfc812d698b",
            "0x000000000000000000000000604d37747f3382fa51519e7542d54f1e730b97a3"
          ],
          "data": "0x0000000000000000000000000000000000000000000000000000000000000040000000000000000000000000000000000000000000000000000000000000000700000000000000000000000000000000000000000000000000000000000000e4906571470000000000000000000000005c37eb148d4a261acd101e2b997a0f163fb3e351000000000000000000000000000000000000000000000000000000000000006000000000000000000000000000000000000000000000000000000000000000a0000000000000000000000000000000000000000000000000000000000000001f7369555344202f205553444320313178204c6576657261676520546f6b656e00000000000000000000000000000000000000000000000000000000000000000e53495553442d555344432d31317800000000000000000000000000000000000000000000000000000000000000000000000000000000000000000000",
          "blockHash": "0x46a50a214522427e4706f3442294569f9d21832320c2a637a84845799a3a7585",
          "blockNumber": "0x16e8080",
          "blockTimestamp": "0x69403163",
          "transactionHash": "0x071f23bbeb2e618e52694ff1c65869d574badf185494bd972f211143d018d586",
          "transactionIndex": "0xcb",
          "logIndex": "0x1b6",
          "removed": false
        },
        {
          "address": "0x5c37eb148d4a261acd101e2b997a0f163fb3e351",
          "topics": [
            "0x9dc95718df096d1d699a19543ccd8b579bc4729ce2021eb4764ff654ed67a5dc",
            "0x000000000000000000000000604d37747f3382fa51519e7542d54f1e730b97a3",
            "0x0000000000000000000000000000000000000000000000000000000000000000"
          ],
          "data": "0x0000000000000000000000000000000000000000000000000000000000000000",
          "blockHash": "0x46a50a214522427e4706f3442294569f9d21832320c2a637a84845799a3a7585",
          "blockNumber": "0x16e8080",
          "blockTimestamp": "0x69403163",
          "transactionHash": "0x071f23bbeb2e618e52694ff1c65869d574badf185494bd972f211143d018d586",
          "transactionIndex": "0xcb",
          "logIndex": "0x1b7",
          "removed": false
        },
        {
          "address": "0x5c37eb148d4a261acd101e2b997a0f163fb3e351",
          "topics": [
            "0x9dc95718df096d1d699a19543ccd8b579bc4729ce2021eb4764ff654ed67a5dc",
            "0x000000000000000000000000604d37747f3382fa51519e7542d54f1e730b97a3",
            "0x0000000000000000000000000000000000000000000000000000000000000001"
          ],
          "data": "0x0000000000000000000000000000000000000000000000000000000000000000",
          "blockHash": "0x46a50a214522427e4706f3442294569f9d21832320c2a637a84845799a3a7585",
          "blockNumber": "0x16e8080",
          "blockTimestamp": "0x69403163",
          "transactionHash": "0x071f23bbeb2e618e52694ff1c65869d574badf185494bd972f211143d018d586",
          "transactionIndex": "0xcb",
          "logIndex": "0x1b8",
          "removed": false
        },
        {
          "address": "0x5c37eb148d4a261acd101e2b997a0f163fb3e351",
          "topics": [
            "0x054728667e9fde2ae95b0b309983329748caba1b3df19081435adb8966c61514",
            "0x000000000000000000000000604d37747f3382fa51519e7542d54f1e730b97a3"
          ],
          "data": "0x0000000000000000000000000000000000000000000000000000000000000000",
          "blockHash": "0x46a50a214522427e4706f3442294569f9d21832320c2a637a84845799a3a7585",
          "blockNumber": "0x16e8080",
          "blockTimestamp": "0x69403163",
          "transactionHash": "0x071f23bbeb2e618e52694ff1c65869d574badf185494bd972f211143d018d586",
          "transactionIndex": "0xcb",
          "logIndex": "0x1b9",
          "removed": false
        },
        {
          "address": "0xe9a32ae2d53459ac490f1dbe0cfd0786fb298f1f",
          "topics": [
            "0xa6df6ca83fcea66b6eed2551b21e0a3f078e6af9eb9dbb02d2312e3d94b5d77b"
          ],
          "data": "0x",
          "blockHash": "0x46a50a214522427e4706f3442294569f9d21832320c2a637a84845799a3a7585",
          "blockNumber": "0x16e8080",
          "blockTimestamp": "0x69403163",
          "transactionHash": "0x071f23bbeb2e618e52694ff1c65869d574badf185494bd972f211143d018d586",
          "transactionIndex": "0xcb",
          "logIndex": "0x1ba",
          "removed": false
        },
        {
          "address": "0xf7356ee83b5e31f1afed5cc0d327ed39f3d6a69f",
          "topics": [
            "0xf2a0f2a76c50e4dc5a5d674a2b409d8fb294b648a1b7ce7a0cf9ddf5b898089a"
          ],
          "data": "0x000000000000000000000000604d37747f3382fa51519e7542d54f1e730b97a3",
          "blockHash": "0x46a50a214522427e4706f3442294569f9d21832320c2a637a84845799a3a7585",
          "blockNumber": "0x16e8080",
          "blockTimestamp": "0x69403163",
          "transactionHash": "0x071f23bbeb2e618e52694ff1c65869d574badf185494bd972f211143d018d586",
          "transactionIndex": "0xcb",
          "logIndex": "0x1bb",
          "removed": false
        },
        {
          "address": "0x5c37eb148d4a261acd101e2b997a0f163fb3e351",
          "topics": [
            "0xc3f4681fb2a57a13e121c6f24fe319c8572bb001497f2b74712695625ee9028e",
            "0x000000000000000000000000604d37747f3382fa51519e7542d54f1e730b97a3"
          ],
          "data": "0x000000000000000000000000dbdc1ef57537e34680b898e1febd3d68c7389bcb000000000000000000000000a0b86991c6218b36c1d19d4a2e9eb0ce3606eb48000000000000000000000000e9a32ae2d53459ac490f1dbe0cfd0786fb298f1f000000000000000000000000f7356ee83b5e31f1afed5cc0d327ed39f3d6a69f00000000000000000000000000000000000000000000000000000000000000000000000000000000000000000000000000000000000000000000000000000000",
          "blockHash": "0x46a50a214522427e4706f3442294569f9d21832320c2a637a84845799a3a7585",
          "blockNumber": "0x16e8080",
          "blockTimestamp": "0x69403163",
          "transactionHash": "0x071f23bbeb2e618e52694ff1c65869d574badf185494bd972f211143d018d586",
          "transactionIndex": "0xcb",
          "logIndex": "0x1bc",
          "removed": false
        },
        {
          "address": "0xdbdc1ef57537e34680b898e1febd3d68c7389bcb",
          "topics": [
            "0xddf252ad1be2c89b69c2b068fc378daa952ba7f163c4a11628f55a4df523b3ef",
            "0x0000000000000000000000003aa518bd9ee447e3f71c01b69a0d5d49c534e05f",
            "0x0000000000000000000000004466d52b714ef32657db89ec61fab1b7e30a0352"
          ],
          "data": "0x0000000000000000000000000000000000000000000000008ac7230489e80000",
          "blockHash": "0x46a50a214522427e4706f3442294569f9d21832320c2a637a84845799a3a7585",
          "blockNumber": "0x16e8080",
          "blockTimestamp": "0x69403163",
          "transactionHash": "0x071f23bbeb2e618e52694ff1c65869d574badf185494bd972f211143d018d586",
          "transactionIndex": "0xcb",
          "logIndex": "0x1bd",
          "removed": false
        },
        {
          "address": "0xdbdc1ef57537e34680b898e1febd3d68c7389bcb",
          "topics": [
            "0x8c5be1e5ebec7d5bd14f71427d1e84f3dd0314c0f7b2291e5b200ac8c7c3b925",
            "0x0000000000000000000000004466d52b714ef32657db89ec61fab1b7e30a0352",
            "0x0000000000000000000000005c37eb148d4a261acd101e2b997a0f163fb3e351"
          ],
          "data": "0x0000000000000000000000000000000000000000000000008ac7230489e80000",
          "blockHash": "0x46a50a214522427e4706f3442294569f9d21832320c2a637a84845799a3a7585",
          "blockNumber": "0x16e8080",
          "blockTimestamp": "0x69403163",
          "transactionHash": "0x071f23bbeb2e618e52694ff1c65869d574badf185494bd972f211143d018d586",
          "transactionIndex": "0xcb",
          "logIndex": "0x1be",
          "removed": false
        },
        {
          "address": "0xdbdc1ef57537e34680b898e1febd3d68c7389bcb",
          "topics": [
            "0xddf252ad1be2c89b69c2b068fc378daa952ba7f163c4a11628f55a4df523b3ef",
            "0x0000000000000000000000004466d52b714ef32657db89ec61fab1b7e30a0352",
            "0x0000000000000000000000005c37eb148d4a261acd101e2b997a0f163fb3e351"
          ],
          "data": "0x0000000000000000000000000000000000000000000000008ac7230489e80000",
          "blockHash": "0x46a50a214522427e4706f3442294569f9d21832320c2a637a84845799a3a7585",
          "blockNumber": "0x16e8080",
          "blockTimestamp": "0x69403163",
          "transactionHash": "0x071f23bbeb2e618e52694ff1c65869d574badf185494bd972f211143d018d586",
          "transactionIndex": "0xcb",
          "logIndex": "0x1bf",
          "removed": false
        },
        {
          "address": "0xdbdc1ef57537e34680b898e1febd3d68c7389bcb",
          "topics": [
            "0x8c5be1e5ebec7d5bd14f71427d1e84f3dd0314c0f7b2291e5b200ac8c7c3b925",
            "0x0000000000000000000000005c37eb148d4a261acd101e2b997a0f163fb3e351",
            "0x000000000000000000000000e9a32ae2d53459ac490f1dbe0cfd0786fb298f1f"
          ],
          "data": "0x0000000000000000000000000000000000000000000000008ac7230489e80000",
          "blockHash": "0x46a50a214522427e4706f3442294569f9d21832320c2a637a84845799a3a7585",
          "blockNumber": "0x16e8080",
          "blockTimestamp": "0x69403163",
          "transactionHash": "0x071f23bbeb2e618e52694ff1c65869d574badf185494bd972f211143d018d586",
          "transactionIndex": "0xcb",
          "logIndex": "0x1c0",
          "removed": false
        },
        {
          "address": "0xdbdc1ef57537e34680b898e1febd3d68c7389bcb",
          "topics": [
            "0xddf252ad1be2c89b69c2b068fc378daa952ba7f163c4a11628f55a4df523b3ef",
            "0x0000000000000000000000005c37eb148d4a261acd101e2b997a0f163fb3e351",
            "0x000000000000000000000000e9a32ae2d53459ac490f1dbe0cfd0786fb298f1f"
          ],
          "data": "0x0000000000000000000000000000000000000000000000008ac7230489e80000",
          "blockHash": "0x46a50a214522427e4706f3442294569f9d21832320c2a637a84845799a3a7585",
          "blockNumber": "0x16e8080",
          "blockTimestamp": "0x69403163",
          "transactionHash": "0x071f23bbeb2e618e52694ff1c65869d574badf185494bd972f211143d018d586",
          "transactionIndex": "0xcb",
          "logIndex": "0x1c1",
          "removed": false
        },
        {
          "address": "0xdbdc1ef57537e34680b898e1febd3d68c7389bcb",
          "topics": [
            "0x8c5be1e5ebec7d5bd14f71427d1e84f3dd0314c0f7b2291e5b200ac8c7c3b925",
            "0x000000000000000000000000e9a32ae2d53459ac490f1dbe0cfd0786fb298f1f",
            "0x000000000000000000000000bbbbbbbbbb9cc5e90e3b3af64bdaf62c37eeffcb"
          ],
          "data": "0x0000000000000000000000000000000000000000000000008ac7230489e80000",
          "blockHash": "0x46a50a214522427e4706f3442294569f9d21832320c2a637a84845799a3a7585",
          "blockNumber": "0x16e8080",
          "blockTimestamp": "0x69403163",
          "transactionHash": "0x071f23bbeb2e618e52694ff1c65869d574badf185494bd972f211143d018d586",
          "transactionIndex": "0xcb",
          "logIndex": "0x1c2",
          "removed": false
        },
        {
          "address": "0xbbbbbbbbbb9cc5e90e3b3af64bdaf62c37eeffcb",
          "topics": [
            "0xa3b9472a1399e17e123f3c2e6586c23e504184d504de59cdaa2b375e880c6184",
            "0xbbf7ce1b40d32d3e3048f5cf27eeaa6de8cb27b80194690aab191a63381d8c99",
            "0x000000000000000000000000e9a32ae2d53459ac490f1dbe0cfd0786fb298f1f",
            "0x000000000000000000000000e9a32ae2d53459ac490f1dbe0cfd0786fb298f1f"
          ],
          "data": "0x0000000000000000000000000000000000000000000000008ac7230489e80000",
          "blockHash": "0x46a50a214522427e4706f3442294569f9d21832320c2a637a84845799a3a7585",
          "blockNumber": "0x16e8080",
          "blockTimestamp": "0x69403163",
          "transactionHash": "0x071f23bbeb2e618e52694ff1c65869d574badf185494bd972f211143d018d586",
          "transactionIndex": "0xcb",
          "logIndex": "0x1c3",
          "removed": false
        },
        {
          "address": "0xdbdc1ef57537e34680b898e1febd3d68c7389bcb",
          "topics": [
            "0xddf252ad1be2c89b69c2b068fc378daa952ba7f163c4a11628f55a4df523b3ef",
            "0x000000000000000000000000e9a32ae2d53459ac490f1dbe0cfd0786fb298f1f",
            "0x000000000000000000000000bbbbbbbbbb9cc5e90e3b3af64bdaf62c37eeffcb"
          ],
          "data": "0x0000000000000000000000000000000000000000000000008ac7230489e80000",
          "blockHash": "0x46a50a214522427e4706f3442294569f9d21832320c2a637a84845799a3a7585",
          "blockNumber": "0x16e8080",
          "blockTimestamp": "0x69403163",
          "transactionHash": "0x071f23bbeb2e618e52694ff1c65869d574badf185494bd972f211143d018d586",
          "transactionIndex": "0xcb",
          "logIndex": "0x1c4",
          "removed": false
        },
        {
          "address": "0x870ac11d48b15db9a138cf899d20f13f79ba00bc",
          "topics": [
            "0x7120161a7b3d31251e01294ab351ef15a41b91659a36032e4641bb89b121e321",
            "0xbbf7ce1b40d32d3e3048f5cf27eeaa6de8cb27b80194690aab191a63381d8c99"
          ],
          "data": "0x000000000000000000000000000000000000000000000000000000005f3812f700000000000000000000000000000000000000000000000000000000613941a7",
          "blockHash": "0x46a50a214522427e4706f3442294569f9d21832320c2a637a84845799a3a7585",
          "blockNumber": "0x16e8080",
          "blockTimestamp": "0x69403163",
          "transactionHash": "0x071f23bbeb2e618e52694ff1c65869d574badf185494bd972f211143d018d586",
          "transactionIndex": "0xcb",
          "logIndex": "0x1c5",
          "removed": false
        },
        {
          "address": "0xbbbbbbbbbb9cc5e90e3b3af64bdaf62c37eeffcb",
          "topics": [
            "0x9d9bd501d0657d7dfe415f779a620a62b78bc508ddc0891fbbd8b7ac0f8fce87",
            "0xbbf7ce1b40d32d3e3048f5cf27eeaa6de8cb27b80194690aab191a63381d8c99"
          ],
          "data": "0x000000000000000000000000000000000000000000000000000000005f3812f700000000000000000000000000000000000000000000000000000000018d39d10000000000000000000000000000000000000000000000000000000000000000",
          "blockHash": "0x46a50a214522427e4706f3442294569f9d21832320c2a637a84845799a3a7585",
          "blockNumber": "0x16e8080",
          "blockTimestamp": "0x69403163",
          "transactionHash": "0x071f23bbeb2e618e52694ff1c65869d574badf185494bd972f211143d018d586",
          "transactionIndex": "0xcb",
          "logIndex": "0x1c6",
          "removed": false
        },
        {
          "address": "0xbbbbbbbbbb9cc5e90e3b3af64bdaf62c37eeffcb",
          "topics": [
            "0x570954540bed6b1304a87dfe815a5eda4a648f7097a16240dcd85c9b5fd42a43",
            "0xbbf7ce1b40d32d3e3048f5cf27eeaa6de8cb27b80194690aab191a63381d8c99",
            "0x000000000000000000000000e9a32ae2d53459ac490f1dbe0cfd0786fb298f1f",
            "0x0000000000000000000000005c37eb148d4a261acd101e2b997a0f163fb3e351"
          ],
          "data": "0x000000000000000000000000e9a32ae2d53459ac490f1dbe0cfd0786fb298f1f000000000000000000000000000000000000000000000000000000000090f28100000000000000000000000000000000000000000000000000000858c612084f",
          "blockHash": "0x46a50a214522427e4706f3442294569f9d21832320c2a637a84845799a3a7585",
          "blockNumber": "0x16e8080",
          "blockTimestamp": "0x69403163",
          "transactionHash": "0x071f23bbeb2e618e52694ff1c65869d574badf185494bd972f211143d018d586",
          "transactionIndex": "0xcb",
          "logIndex": "0x1c7",
          "removed": false
        },
        {
          "address": "0xa0b86991c6218b36c1d19d4a2e9eb0ce3606eb48",
          "topics": [
            "0xddf252ad1be2c89b69c2b068fc378daa952ba7f163c4a11628f55a4df523b3ef",
            "0x000000000000000000000000bbbbbbbbbb9cc5e90e3b3af64bdaf62c37eeffcb",
            "0x0000000000000000000000005c37eb148d4a261acd101e2b997a0f163fb3e351"
          ],
          "data": "0x000000000000000000000000000000000000000000000000000000000090f281",
          "blockHash": "0x46a50a214522427e4706f3442294569f9d21832320c2a637a84845799a3a7585",
          "blockNumber": "0x16e8080",
          "blockTimestamp": "0x69403163",
          "transactionHash": "0x071f23bbeb2e618e52694ff1c65869d574badf185494bd972f211143d018d586",
          "transactionIndex": "0xcb",
          "logIndex": "0x1c8",
          "removed": false
        },
        {
          "address": "0xa0b86991c6218b36c1d19d4a2e9eb0ce3606eb48",
          "topics": [
            "0xddf252ad1be2c89b69c2b068fc378daa952ba7f163c4a11628f55a4df523b3ef",
            "0x0000000000000000000000005c37eb148d4a261acd101e2b997a0f163fb3e351",
            "0x0000000000000000000000004466d52b714ef32657db89ec61fab1b7e30a0352"
          ],
          "data": "0x000000000000000000000000000000000000000000000000000000000090f281",
          "blockHash": "0x46a50a214522427e4706f3442294569f9d21832320c2a637a84845799a3a7585",
          "blockNumber": "0x16e8080",
          "blockTimestamp": "0x69403163",
          "transactionHash": "0x071f23bbeb2e618e52694ff1c65869d574badf185494bd972f211143d018d586",
          "transactionIndex": "0xcb",
          "logIndex": "0x1c9",
          "removed": false
        },
        {
          "address": "0x604d37747f3382fa51519e7542d54f1e730b97a3",
          "topics": [
            "0xddf252ad1be2c89b69c2b068fc378daa952ba7f163c4a11628f55a4df523b3ef",
            "0x0000000000000000000000000000000000000000000000000000000000000000",
            "0x0000000000000000000000004466d52b714ef32657db89ec61fab1b7e30a0352"
          ],
          "data": "0x0000000000000000000000000000000000000000000000000c9dbd5d80e68ba2",
          "blockHash": "0x46a50a214522427e4706f3442294569f9d21832320c2a637a84845799a3a7585",
          "blockNumber": "0x16e8080",
          "blockTimestamp": "0x69403163",
          "transactionHash": "0x071f23bbeb2e618e52694ff1c65869d574badf185494bd972f211143d018d586",
          "transactionIndex": "0xcb",
          "logIndex": "0x1ca",
          "removed": false
        },
        {
          "address": "0x5c37eb148d4a261acd101e2b997a0f163fb3e351",
          "topics": [
            "0xca0d4a1151cf4e7c20fcffb441cb3e88636d136769402e584ed509f78f896f61",
            "0x000000000000000000000000604d37747f3382fa51519e7542d54f1e730b97a3",
            "0x0000000000000000000000004466d52b714ef32657db89ec61fab1b7e30a0352"
          ],
          "data": "0x0000000000000000000000000000000000000000000000008ac7230489e80000000000000000000000000000000000000000000000000000000000000090f2810000000000000000000000000000000000000000000000000c9dbd5d80e68ba200000000000000000000000000000000000000000000000000000000000000000000000000000000000000000000000000000000000000000000000000000000",
          "blockHash": "0x46a50a214522427e4706f3442294569f9d21832320c2a637a84845799a3a7585",
          "blockNumber": "0x16e8080",
          "blockTimestamp": "0x69403163",
          "transactionHash": "0x071f23bbeb2e618e52694ff1c65869d574badf185494bd972f211143d018d586",
          "transactionIndex": "0xcb",
          "logIndex": "0x1cb",
          "removed": false
        },
        {
          "address": "0x604d37747f3382fa51519e7542d54f1e730b97a3",
          "topics": [
            "0xddf252ad1be2c89b69c2b068fc378daa952ba7f163c4a11628f55a4df523b3ef",
            "0x0000000000000000000000004466d52b714ef32657db89ec61fab1b7e30a0352",
            "0x0000000000000000000000003aa518bd9ee447e3f71c01b69a0d5d49c534e05f"
          ],
          "data": "0x0000000000000000000000000000000000000000000000000c9dbd5d80e68ba2",
          "blockHash": "0x46a50a214522427e4706f3442294569f9d21832320c2a637a84845799a3a7585",
          "blockNumber": "0x16e8080",
          "blockTimestamp": "0x69403163",
          "transactionHash": "0x071f23bbeb2e618e52694ff1c65869d574badf185494bd972f211143d018d586",
          "transactionIndex": "0xcb",
          "logIndex": "0x1cc",
          "removed": false
        },
        {
          "address": "0xa0b86991c6218b36c1d19d4a2e9eb0ce3606eb48",
          "topics": [
            "0xddf252ad1be2c89b69c2b068fc378daa952ba7f163c4a11628f55a4df523b3ef",
            "0x0000000000000000000000004466d52b714ef32657db89ec61fab1b7e30a0352",
            "0x0000000000000000000000003aa518bd9ee447e3f71c01b69a0d5d49c534e05f"
          ],
          "data": "0x000000000000000000000000000000000000000000000000000000000090f281",
          "blockHash": "0x46a50a214522427e4706f3442294569f9d21832320c2a637a84845799a3a7585",
          "blockNumber": "0x16e8080",
          "blockTimestamp": "0x69403163",
          "transactionHash": "0x071f23bbeb2e618e52694ff1c65869d574badf185494bd972f211143d018d586",
          "transactionIndex": "0xcb",
          "logIndex": "0x1cd",
          "removed": false
        }
      ],
      "logsBloom": "0x00000200200000000002820000000080500000004038104000848000004200000000c00000200000000002000400000004000000000180180040000020a4404200020000001020000800000800110200800100200024000000000008080200000000000002000000008000000002480004000400800000000000001400000044210000800000000800080000000008040000000001008020200000000010400002000000400030000042400000000041000000080000000000400101000000002000066280000000000100000002100000000020000400040080080000006210001448440110000800000020008120000000010000c000000010200000008000",
      "type": "0x2",
      "transactionHash": "0x071f23bbeb2e618e52694ff1c65869d574badf185494bd972f211143d018d586",
      "transactionIndex": "0xcb",
      "blockHash": "0x46a50a214522427e4706f3442294569f9d21832320c2a637a84845799a3a7585",
      "blockNumber": "0x16e8080",
      "gasUsed": "0x15942a",
      "effectiveGasPrice": "0x1c11bbd1",
      "from": "0x3aa518bd9ee447e3f71c01b69a0d5d49c534e05f",
      "to": "0x4466d52b714ef32657db89ec61fab1b7e30a0352",
      "contractAddress": null
    }
  ],
  "libraries": [],
  "pending": [],
  "returns": {},
  "timestamp": 1765814629730,
  "chain": 1,
  "commit": "e352b9c"
}