{
  "transactions": [
    {
      "hash": "0xd6e756ff76f577ad0e294b9bb4ed80fd601250ce1fe685b298fa131729a2ca57",
      "transactionType": "CREATE",
      "contractName": "RebalanceAdapterCow",
      "contractAddress": "0xa7288619e5fffa37ac14ea579cac7fb9422ea25a",
      "function": null,
      "arguments": null,
      "transaction": {
        "from": "0x7964b32ed0e5ad3fb17a268f7374adcca430b1aa",
        "gas": "0x392a3e",
        "value": "0x0",
        "input": "0x60a0806040523460295730608052613378908161002e82396080518181816111f901526118d40152f35b5f80fdfe60806040526004361015610011575f80fd5b5f5f3560e01c806303882edf14611df55780631e009f3114611dd957806321da49ce14611c225780632b30743914611bd35780632e6a43b114611bb95780634f1ef2861461184b5780634f9bfd35146117f95780634fd9efc41461127157806352d1902d146111d15780635ddd4eed14611194578063715018a6146110d65780637327df251461107a57806378cb51af1461102c57806383180ab41461081c5780638b1e30d7146107df5780638da5cb5b1461078c5780639b4faa8014610765578063a089c63914610712578063ad3cb1cc14610680578063bc6449161461065b578063cbf24d2514610614578063cd4b9378146105f1578063defd89a11461059e578063e5f1237b14610561578063edf32aad14610524578063ef65dbfd146104e7578063f2fde38b146104bd578063f39b10291461048a578063f581144714610270578063f5b8fbbb14610233578063f9216f84146101e0578063fdaab574146101a35763fe67a54b14610185575f80fd5b346101a057806003193601126101a05761019d6126a9565b80f35b80fd5b50346101a057806003193601126101a05760207fb16e43fdb4a23e2eb5ac7d6fe250e1e010c7a5096910e708d8b2faba66b7d80154604051908152f35b50346101a05760a06003193601126101a05760206101fc611e1f565b61020536611f27565b61020f8183612c68565b9182610222575b50506040519015158152f35b61022c9250612d88565b8280610216565b50346101a057806003193601126101a05760207fb16e43fdb4a23e2eb5ac7d6fe250e1e010c7a5096910e708d8b2faba66b7d80054604051908152f35b50346101a057806003193601126101a0576102896126a9565b610291611ff3565b9015610462576effffffffffffffffffffffffffffff42166effffffffffffffffffffffffffffff7f5a17ed03c9224a83c249c4c9f6b3c3ee77f4a278901f975cbdbdcd094252ab02541681016effffffffffffffffffffffffffffff8111610435579161042f917ff4abeb4e86da8daeeedadd019e0dc8ceb3b8bb0c60174482bcdb533332f89ac8936040519261032884611eae565b15159182845260208401526effffffffffffffffffffffffffffff811660408401527fff0000000000000000000000000000000000000000000000000000000000000060ff7effffffffffffffffffffffffffffff000000000000000000000000000000007f5a17ed03c9224a83c249c4c9f6b3c3ee77f4a278901f975cbdbdcd094252ab01549360801b1693169116176fffffffffffffffffffffffffffffff004260081b1617177f5a17ed03c9224a83c249c4c9f6b3c3ee77f4a278901f975cbdbdcd094252ab01556040519182918291909160406effffffffffffffffffffffffffffff816060840195805115158552826020820151166020860152015116910152565b0390a180f35b6024847f4e487b710000000000000000000000000000000000000000000000000000000081526011600452fd5b6004827f83232b52000000000000000000000000000000000000000000000000000000008152fd5b50346101a057806003193601126101a05773ffffffffffffffffffffffffffffffffffffffff6020915416604051908152f35b50346101a05760206003193601126101a05761019d6104da611e1f565b6104e2612bfc565b6125bc565b50346101a057806003193601126101a05760207f5a17ed03c9224a83c249c4c9f6b3c3ee77f4a278901f975cbdbdcd094252ab0454604051908152f35b50346101a057806003193601126101a05760207f5a17ed03c9224a83c249c4c9f6b3c3ee77f4a278901f975cbdbdcd094252ab0354604051908152f35b50346101a057806003193601126101a05760207f0c0c36e5d849345ad68de971568490058599308849c5c9b43b43ea5781d5130254604051908152f35b50346101a057806003193601126101a057602073ffffffffffffffffffffffffffffffffffffffff7fb8978c109109e89ddaa83c20e08d73ed7aedae610788761a7cdcbd1d2ce423015416604051908152f35b50346101a057806003193601126101a0576020604051670de0b6b3a76400008152f35b50346101a05760206003193601126101a05761062e611e1f565b5060207f0c0c36e5d849345ad68de971568490058599308849c5c9b43b43ea5781d5130154604051908152f35b50346101a057806003193601126101a0576020610676612570565b6040519015158152f35b50346101a057806003193601126101a0576040805161069f8282611ee6565b600581527fffffffffffffffffffffffffffffffffffffffffffffffffffffffffffffffe0601f602083017f352e302e3000000000000000000000000000000000000000000000000000000081528451958694602086525180928160208801528787015e85828601015201168101030190f35b50346101a057806003193601126101a057602073ffffffffffffffffffffffffffffffffffffffff7fb8978c109109e89ddaa83c20e08d73ed7aedae610788761a7cdcbd1d2ce423005416604051908152f35b50346101a05760206003193601126101a0576020610784600435612365565b604051908152f35b50346101a057806003193601126101a057602073ffffffffffffffffffffffffffffffffffffffff7f9016d09d72d40fdae2fd8ceac6b6234c7706214fd39c1cd1e609a0528c1993005416604051908152f35b50346101a057806003193601126101a05760207f0c0c36e5d849345ad68de971568490058599308849c5c9b43b43ea5781d5130154604051908152f35b50346101a0576101806003193601126101a057604051610180810181811067ffffffffffffffff821117610fff57604052610855611e1f565b815261085f611e42565b602082019081526044359173ffffffffffffffffffffffffffffffffffffffff83168303610ffb5760408101928352606081019160643583526080820191608435835260a081019260a435845260c435946effffffffffffffffffffffffffffff86168603610ff75760c0830195865260e083019160e4358352610100840195610104358752610120850192610124358452610140860194610144358652610164359873ffffffffffffffffffffffffffffffffffffffff8a168a03610ff3576101608801998a527ff0c57e16840df040f15088dc2f81fe391c3923bec73e23a9662efc9c229c6a00549a60ff8c60401c16159b8c67ffffffffffffffff821680159182610feb575b506001149081610fe1575b159081610fd8575b50610fb0578c60017fffffffffffffffffffffffffffffffffffffffffffffffff00000000000000008316177ff0c57e16840df040f15088dc2f81fe391c3923bec73e23a9662efc9c229c6a0055610f5b575b508d8d6004602073ffffffffffffffffffffffffffffffffffffffff8a51935116604051928380927fdd1dc3250000000000000000000000000000000000000000000000000000000082525afa928315610f4f5792610f17575b501115610eea576effffffffffffffffffffffffffffff9051169151905190610a4f6131cb565b808211610ec2578215610e9a57916060917f1ac95be1853baa8304ed1d2e0260090f434df21565a173bfcf0e0b6fb2df9f2093827fffffffffffffffffffffffffffffffffff0000000000000000000000000000007f5a17ed03c9224a83c249c4c9f6b3c3ee77f4a278901f975cbdbdcd094252ab025416177f5a17ed03c9224a83c249c4c9f6b3c3ee77f4a278901f975cbdbdcd094252ab0255807f5a17ed03c9224a83c249c4c9f6b3c3ee77f4a278901f975cbdbdcd094252ab0355817f5a17ed03c9224a83c249c4c9f6b3c3ee77f4a278901f975cbdbdcd094252ab045560405192835260208301526040820152a1519151905190610b4f6131cb565b8083111580610e90575b15610e6857947fae5d896f92e6367724d7b0e838e1ff0fbc15e278bd65035df77c2bdc565d6533604073ffffffffffffffffffffffffffffffffffffffff9895968998977f907e644655df3921a8519baf7b92482f53ebd8aa56d81dad48e2a324abe8c19a6060888c9b988c99610ca79b7f0c0c36e5d849345ad68de971568490058599308849c5c9b43b43ea5781d5130055807f0c0c36e5d849345ad68de971568490058599308849c5c9b43b43ea5781d5130155817f0c0c36e5d849345ad68de971568490058599308849c5c9b43b43ea5781d51302558751928352602083015286820152a1519051610c4c6131cb565b817fb16e43fdb4a23e2eb5ac7d6fe250e1e010c7a5096910e708d8b2faba66b7d80055807fb16e43fdb4a23e2eb5ac7d6fe250e1e010c7a5096910e708d8b2faba66b7d8015582519182526020820152a151166104e26131cb565b511694857fffffffffffffffffffffffff00000000000000000000000000000000000000007fb8978c109109e89ddaa83c20e08d73ed7aedae610788761a7cdcbd1d2ce423005416177fb8978c109109e89ddaa83c20e08d73ed7aedae610788761a7cdcbd1d2ce4230055511691827fffffffffffffffffffffffff00000000000000000000000000000000000000007fb8978c109109e89ddaa83c20e08d73ed7aedae610788761a7cdcbd1d2ce423015416177fb8978c109109e89ddaa83c20e08d73ed7aedae610788761a7cdcbd1d2ce423015551167fffffffffffffffffffffffff0000000000000000000000000000000000000000855416178455604051927ff76781ab47911f3e8c8434949e746f9832a33ffd9d1e9c1c9e784c802561ede68580a3610dd6575080f35b60207fc7f505b2f371ae2175ee4913f4499e1f2633a7b5936321eed1cdaeb6115181d2917fffffffffffffffffffffffffffffffffffffffffffffff00ffffffffffffffff7ff0c57e16840df040f15088dc2f81fe391c3923bec73e23a9662efc9c229c6a0054167ff0c57e16840df040f15088dc2f81fe391c3923bec73e23a9662efc9c229c6a005560018152a180f35b60048b7f2ca97516000000000000000000000000000000000000000000000000000000008152fd5b5081811115610b59565b60048e7fa2ee050e000000000000000000000000000000000000000000000000000000008152fd5b60048e7f77cc03f7000000000000000000000000000000000000000000000000000000008152fd5b60248e87517f2a0a9d03000000000000000000000000000000000000000000000000000000008252600452fd5b9091506020813d602011610f47575b81610f3360209383611ee6565b81010312610f435751905f610a28565b5f80fd5b3d9150610f26565b604051903d90823e3d90fd5b7fffffffffffffffffffffffffffffffffffffffffffffff0000000000000000001668010000000000000001177ff0c57e16840df040f15088dc2f81fe391c3923bec73e23a9662efc9c229c6a00555f6109ce565b60048f7ff92ee8a9000000000000000000000000000000000000000000000000000000008152fd5b9050155f61097b565b303b159150610973565b91508e610968565b8c80fd5b8780fd5b8380fd5b6024837f4e487b710000000000000000000000000000000000000000000000000000000081526041600452fd5b50346101a057806003193601126101a05760206effffffffffffffffffffffffffffff7f5a17ed03c9224a83c249c4c9f6b3c3ee77f4a278901f975cbdbdcd094252ab025416604051908152f35b50346101a057806003193601126101a0576110d26110966122c3565b6040519182918291909160406effffffffffffffffffffffffffffff816060840195805115158552826020820151166020860152015116910152565b0390f35b50346101a057806003193601126101a0576110ef612bfc565b8073ffffffffffffffffffffffffffffffffffffffff7f9016d09d72d40fdae2fd8ceac6b6234c7706214fd39c1cd1e609a0528c199300547fffffffffffffffffffffffff000000000000000000000000000000000000000081167f9016d09d72d40fdae2fd8ceac6b6234c7706214fd39c1cd1e609a0528c19930055167f8be0079c531659141344cd1fd0a4f28419497f9722a3daafe3b4186f6b6457e08280a380f35b50346101a057806003193601126101a05760207f0c0c36e5d849345ad68de971568490058599308849c5c9b43b43ea5781d5130054604051908152f35b50346101a057806003193601126101a05773ffffffffffffffffffffffffffffffffffffffff7f00000000000000000000000000000000000000000000000000000000000000001630036112495760206040517f360894a13ba1a3210667c828492db98dca3e2076cc3735a920a3ca505d382bbc8152f35b807fe07c8dba0000000000000000000000000000000000000000000000000000000060049252fd5b5034610f43576020600319360112610f435760043573ffffffffffffffffffffffffffffffffffffffff5f541633036117d1576112ac612570565b156117a9576112ba81612365565b906112c36122c3565b51156115745773ffffffffffffffffffffffffffffffffffffffff7f5a17ed03c9224a83c249c4c9f6b3c3ee77f4a278901f975cbdbdcd094252ab00541673ffffffffffffffffffffffffffffffffffffffff7fb8978c109109e89ddaa83c20e08d73ed7aedae610788761a7cdcbd1d2ce42301541684604051927ff3d4510b000000000000000000000000000000000000000000000000000000008452806004850152602084602481865afa938415611569578294611548575b50604051937fa792e3a8000000000000000000000000000000000000000000000000000000008552816004860152602085602481875afa94851561153d57839561150c575b506113cc612a77565b936040516113d981611e65565b8481528860208201526113eb86612ae1565b526113f585612ae1565b5060405161140281611e65565b6002815287602082015261141586612b1b565b5261141f85612b1b565b5061142c88303385612fe1565b61143788828461304f565b803b15610ffb57859484809461147e8a8c6040519a8b98899788967f42cff3f800000000000000000000000000000000000000000000000000000000885260048801612b2b565b03925af19182156114ff5784926114e6575b505061149d913390613169565b60405191825260208201527ff5613330dc61b3b3dfa6c4c8d2b6ab5bd5ae627e2792cdc5caf6ad26da362cf160403392a26114d6612570565b156114de5780f35b61019d6126a9565b819250906114f391611ee6565b610ffb5781845f611490565b50604051903d90823e3d90fd5b61152f91955060203d602011611536575b6115278183611ee6565b810190612339565b935f6113c3565b503d61151d565b6040513d85823e3d90fd5b61156291945060203d602011611536576115278183611ee6565b925f61137e565b6040513d84823e3d90fd5b73ffffffffffffffffffffffffffffffffffffffff7f5a17ed03c9224a83c249c4c9f6b3c3ee77f4a278901f975cbdbdcd094252ab00541673ffffffffffffffffffffffffffffffffffffffff7fb8978c109109e89ddaa83c20e08d73ed7aedae610788761a7cdcbd1d2ce423015416604051917ff3d4510b000000000000000000000000000000000000000000000000000000008352806004840152602083602481855afa92831561175e575f93611788575b506040517fa792e3a8000000000000000000000000000000000000000000000000000000008152816004820152602081602481865afa90811561175e575f91611769575b50611675612a77565b9260405161168281611e65565b6003815287602082015261169585612ae1565b5261169f84612ae1565b506040516116ac81611e65565b600181528660208201526116bf85612b1b565b526116c984612b1b565b506116d687303385612fe1565b6116e187828461304f565b803b15610f435784935f8094611728898b604051998a98899788967f42cff3f800000000000000000000000000000000000000000000000000000000885260048801612b2b565b03925af1801561175e57611749575b5081611744913390613169565b61149d565b6117569194505f90611ee6565b5f9281611737565b6040513d5f823e3d90fd5b611782915060203d602011611536576115278183611ee6565b5f61166c565b6117a291935060203d602011611536576115278183611ee6565b915f611628565b7fe86a39ce000000000000000000000000000000000000000000000000000000005f5260045ffd5b7f5db343e2000000000000000000000000000000000000000000000000000000005f5260045ffd5b34610f43575f600319360112610f4357602073ffffffffffffffffffffffffffffffffffffffff7f5a17ed03c9224a83c249c4c9f6b3c3ee77f4a278901f975cbdbdcd094252ab005416604051908152f35b6040600319360112610f435761185f611e1f565b6024359067ffffffffffffffff8211610f435736602383011215610f435781600401359061188c82611f7d565b9161189a6040519384611ee6565b80835260208301933660248383010111610f4357815f9260246020930187378401015273ffffffffffffffffffffffffffffffffffffffff7f000000000000000000000000000000000000000000000000000000000000000016803014908115611b77575b50611b4f5761190c612bfc565b73ffffffffffffffffffffffffffffffffffffffff8116926040517f52d1902d000000000000000000000000000000000000000000000000000000008152602081600481885afa5f9181611b1b575b5061198c57847f4c9c8ce3000000000000000000000000000000000000000000000000000000005f5260045260245ffd5b807f360894a13ba1a3210667c828492db98dca3e2076cc3735a920a3ca505d382bbc869203611af05750823b15611ac557807fffffffffffffffffffffffff00000000000000000000000000000000000000007f360894a13ba1a3210667c828492db98dca3e2076cc3735a920a3ca505d382bbc5416177f360894a13ba1a3210667c828492db98dca3e2076cc3735a920a3ca505d382bbc557fbc7cd75a20ee27fd9adebab32041f755214dbc6bffa90cc0225b39da2e5c2d3b5f80a2825115611a93575f8091611a89945190845af43d15611a8b573d91611a6d83611f7d565b92611a7b6040519485611ee6565b83523d5f602085013e6132a9565b005b6060916132a9565b50505034611a9d57005b7fb398979f000000000000000000000000000000000000000000000000000000005f5260045ffd5b7f4c9c8ce3000000000000000000000000000000000000000000000000000000005f5260045260245ffd5b7faa1d49a4000000000000000000000000000000000000000000000000000000005f5260045260245ffd5b9091506020813d602011611b47575b81611b3760209383611ee6565b81010312610f435751908661195b565b3d9150611b2a565b7fe07c8dba000000000000000000000000000000000000000000000000000000005f5260045ffd5b905073ffffffffffffffffffffffffffffffffffffffff7f360894a13ba1a3210667c828492db98dca3e2076cc3735a920a3ca505d382bbc54161415846118ff565b34610f43575f600319360112610f435760206107846121c0565b34610f435760c0600319360112610f4357611bec611e1f565b611bf536611f27565b9060a43573ffffffffffffffffffffffffffffffffffffffff81168103610f43576020926106769261211a565b34610f43576040600319360112610f4357611c3b611e1f565b611c43611e42565b9073ffffffffffffffffffffffffffffffffffffffff7fb8978c109109e89ddaa83c20e08d73ed7aedae610788761a7cdcbd1d2ce4230154163303611db15773ffffffffffffffffffffffffffffffffffffffff807fb8978c109109e89ddaa83c20e08d73ed7aedae610788761a7cdcbd1d2ce423005416911603611db15773ffffffffffffffffffffffffffffffffffffffff167f5a17ed03c9224a83c249c4c9f6b3c3ee77f4a278901f975cbdbdcd094252ab005473ffffffffffffffffffffffffffffffffffffffff8116611d8957817ff2a0f2a76c50e4dc5a5d674a2b409d8fb294b648a1b7ce7a0cf9ddf5b898089a927fffffffffffffffffffffffff000000000000000000000000000000000000000060209316177f5a17ed03c9224a83c249c4c9f6b3c3ee77f4a278901f975cbdbdcd094252ab0055604051908152a1005b7f9c2641a1000000000000000000000000000000000000000000000000000000005f5260045ffd5b7f82b42900000000000000000000000000000000000000000000000000000000005f5260045ffd5b34610f43575f600319360112610f435760206040516127108152f35b34610f43575f600319360112610f43576040611e0f611ff3565b8251911515825215156020820152f35b6004359073ffffffffffffffffffffffffffffffffffffffff82168203610f4357565b6024359073ffffffffffffffffffffffffffffffffffffffff82168203610f4357565b6040810190811067ffffffffffffffff821117611e8157604052565b7f4e487b71000000000000000000000000000000000000000000000000000000005f52604160045260245ffd5b6060810190811067ffffffffffffffff821117611e8157604052565b6080810190811067ffffffffffffffff821117611e8157604052565b90601f7fffffffffffffffffffffffffffffffffffffffffffffffffffffffffffffffe0910116810190811067ffffffffffffffff821117611e8157604052565b7fffffffffffffffffffffffffffffffffffffffffffffffffffffffffffffffdc6080910112610f435760405190611f5e82611eca565b6024358252604435602083015260643560408301526084356060830152565b67ffffffffffffffff8111611e8157601f017fffffffffffffffffffffffffffffffffffffffffffffffffffffffffffffffe01660200190565b90816080910312610f4357606060405191611fd183611eca565b8051835260208101516020840152604081015160408401520151606082015290565b60249073ffffffffffffffffffffffffffffffffffffffff7f5a17ed03c9224a83c249c4c9f6b3c3ee77f4a278901f975cbdbdcd094252ab00541673ffffffffffffffffffffffffffffffffffffffff7fb8978c109109e89ddaa83c20e08d73ed7aedae610788761a7cdcbd1d2ce4230154169060807f0c0c36e5d849345ad68de971568490058599308849c5c9b43b43ea5781d513015492604051958680927f9571d2120000000000000000000000000000000000000000000000000000000082528560048301525afa93841561175e575f946120e2575b506120db60609185309161211a565b9301511190565b606091945061210b6120db9160803d608011612113575b6121038183611ee6565b810190611fb7565b9491506120cc565b503d6120f9565b9173ffffffffffffffffffffffffffffffffffffffff309116149182612172575b508115612146575090565b6060915001517fb16e43fdb4a23e2eb5ac7d6fe250e1e010c7a5096910e708d8b2faba66b7d800541190565b8192509061217f91612726565b905f61213b565b9190820391821161219357565b7f4e487b71000000000000000000000000000000000000000000000000000000005f52601160045260245ffd5b6121c86122c3565b602081016effffffffffffffffffffffffffffff8060406121ec8285511642612186565b9401511691511690036effffffffffffffffffffffffffffff8111612193576effffffffffffffffffffffffffffff167f5a17ed03c9224a83c249c4c9f6b3c3ee77f4a278901f975cbdbdcd094252ab0454917f5a17ed03c9224a83c249c4c9f6b3c3ee77f4a278901f975cbdbdcd094252ab0354918082116122bd5761227291612832565b670de0b6b3a76400000390670de0b6b3a76400008211612193576122ac836122a66122a0856122b196612933565b80612933565b92612186565b612933565b81018091116121935790565b50505090565b5f604080516122d181611eae565b82815282602082015201526040516122e881611eae565b6effffffffffffffffffffffffffffff7f5a17ed03c9224a83c249c4c9f6b3c3ee77f4a278901f975cbdbdcd094252ab015460ff811615158352818160081c16602084015260801c16604082015290565b90816020910312610f43575173ffffffffffffffffffffffffffffffffffffffff81168103610f435790565b61236d6122c3565b51151573ffffffffffffffffffffffffffffffffffffffff7fb8978c109109e89ddaa83c20e08d73ed7aedae610788761a7cdcbd1d2ce42301541690602073ffffffffffffffffffffffffffffffffffffffff7f5a17ed03c9224a83c249c4c9f6b3c3ee77f4a278901f975cbdbdcd094252ab0054166024604051809581937fa341017c00000000000000000000000000000000000000000000000000000000835260048301525afa801561175e5773ffffffffffffffffffffffffffffffffffffffff936020935f92612550575b50602491925f146124d25760405194859384927f195420f90000000000000000000000000000000000000000000000000000000084526004840152165afa801561175e575f9061249e575b61249b91505b6124956121c0565b90612933565b90565b506020813d6020116124ca575b816124b860209383611ee6565b81010312610f435761249b9051612487565b3d91506124ab565b60405194859384927f17a9a1a70000000000000000000000000000000000000000000000000000000084526004840152165afa801561175e575f9061251c575b61249b915061248d565b506020813d602011612548575b8161253660209383611ee6565b81010312610f435761249b9051612512565b3d9150612529565b6024925061256a90853d8711611536576115278183611ee6565b9161243c565b612578611ff3565b90156125b7576125866122c3565b9081511515901515036125b757604001516effffffffffffffffffffffffffffff1642116125b357600190565b5f90565b505f90565b73ffffffffffffffffffffffffffffffffffffffff16801561267d5773ffffffffffffffffffffffffffffffffffffffff7f9016d09d72d40fdae2fd8ceac6b6234c7706214fd39c1cd1e609a0528c19930054827fffffffffffffffffffffffff00000000000000000000000000000000000000008216177f9016d09d72d40fdae2fd8ceac6b6234c7706214fd39c1cd1e609a0528c19930055167f8be0079c531659141344cd1fd0a4f28419497f9722a3daafe3b4186f6b6457e05f80a3565b7f1e4fbdf7000000000000000000000000000000000000000000000000000000005f525f60045260245ffd5b6126b1612570565b6126fe575f7f5a17ed03c9224a83c249c4c9f6b3c3ee77f4a278901f975cbdbdcd094252ab01557fa0e92984607195c326795751263414ee1074526323552e694c90ef2b99ae3f295f80a1565b7f5eedf760000000000000000000000000000000000000000000000000000000005f5260045ffd5b8151159081156127a1575b506125b7577f0c0c36e5d849345ad68de971568490058599308849c5c9b43b43ea5781d51300549060607f0c0c36e5d849345ad68de971568490058599308849c5c9b43b43ea5781d5130254910151918210159182612796575b50506125b357600190565b111590505f8061278b565b73ffffffffffffffffffffffffffffffffffffffff91506020906004604051809481937f18160ddd000000000000000000000000000000000000000000000000000000008352165afa90811561175e575f91612800575b50155f612731565b90506020813d60201161282a575b8161281b60209383611ee6565b81010312610f4357515f6127f8565b3d915061280e565b90670de0b6b3a76400008202907fffffffffffffffffffffffffffffffffffffffffffffffffffffffffffffffff670de0b6b3a76400008409928280851094039380850394146128f957838211156128e157670de0b6b3a7640000829109815f0382168092046002816003021880820260020302808202600203028082026002030280820260020302808202600203028091026002030293600183805f03040190848311900302920304170290565b50634e487b715f52156003026011186020526024601cfd5b5080925015612906570490565b7f4e487b71000000000000000000000000000000000000000000000000000000005f52601260045260245ffd5b9190915f838202917fffffffffffffffffffffffffffffffffffffffffffffffffffffffffffffffff858209918380841093039280840393146129d45782670de0b6b3a764000011156129c257507faccb18165bd6fe31ae1cf318dc5b51eee0e1ba569b88cd74c1773b91fac106699394670de0b6b3a7640000910990828211900360ee1b910360121c170290565b634e487b71905260116020526024601cfd5b505050670de0b6b3a76400009192500490565b9190915f838202917fffffffffffffffffffffffffffffffffffffffffffffffffffffffffffffffff85820991838084109303928084039314612a6a578261271011156129c257507fbc01a36e2eb1c432ca57a786c226809d495182a9930be0ded288ce703afb7e919394612710910990828211900360fc1b910360041c170290565b5050506127109192500490565b60405160609190612a888382611ee6565b60028152917fffffffffffffffffffffffffffffffffffffffffffffffffffffffffffffffe001825f5b828110612abe57505050565b602090604051612acd81611e65565b5f81525f8382015282828501015201612ab2565b805115612aee5760200190565b7f4e487b71000000000000000000000000000000000000000000000000000000005f52603260045260245ffd5b805160011015612aee5760400190565b939190969594929673ffffffffffffffffffffffffffffffffffffffff60c086019116855260c060208601528151809152602060e086019201905f5b818110612ba05750505073ffffffffffffffffffffffffffffffffffffffff968716604085015295166060830152608082015260a00152565b90919283518051906004821015612bcf5790825260209081015181830152604090910193019190600101612b67565b7f4e487b71000000000000000000000000000000000000000000000000000000005f52602160045260245ffd5b73ffffffffffffffffffffffffffffffffffffffff7f9016d09d72d40fdae2fd8ceac6b6234c7706214fd39c1cd1e609a0528c19930054163303612c3c57565b7f118cdaa7000000000000000000000000000000000000000000000000000000005f523360045260245ffd5b907f0c0c36e5d849345ad68de971568490058599308849c5c9b43b43ea5781d513015490608073ffffffffffffffffffffffffffffffffffffffff6024817fb8978c109109e89ddaa83c20e08d73ed7aedae610788761a7cdcbd1d2ce4230154169560405196879384927f9571d2120000000000000000000000000000000000000000000000000000000084521660048301525afa92831561175e575f93612d62575b5060609081015192015190808311908115612d5b5780915b15612d55575082905b8210908115612d4b575b50612d4557146125b357600190565b50505f90565b905081115f612d36565b90612d2c565b8391612d23565b6060919350612d80829160803d608011612113576121038183611ee6565b939150612d0b565b60608201517fb16e43fdb4a23e2eb5ac7d6fe250e1e010c7a5096910e708d8b2faba66b7d800541115612fda5773ffffffffffffffffffffffffffffffffffffffff7fb8978c109109e89ddaa83c20e08d73ed7aedae610788761a7cdcbd1d2ce4230154169073ffffffffffffffffffffffffffffffffffffffff604051917fa341017c00000000000000000000000000000000000000000000000000000000835216806004830152602082602481865afa91821561175e575f92612fb6575b506080906024604051809581937f9571d21200000000000000000000000000000000000000000000000000000000835260048301525afa90811561175e5773ffffffffffffffffffffffffffffffffffffffff925f92612f92575b506020906004604051809581937f1e522b29000000000000000000000000000000000000000000000000000000008352165afa91821561175e575f92612f5d575b50604080612f41612f1a612f4c957fb16e43fdb4a23e2eb5ac7d6fe250e1e010c7a5096910e708d8b2faba66b7d80154906129e7565b6020870180519060208701908151928381115f14612f5157506122ac925051905190612186565b920151930151612186565b111590565b9150506122ac91612186565b91506020823d602011612f8a575b81612f7860209383611ee6565b81010312610f43579051906040612ee4565b3d9150612f6b565b6020919250612faf9060803d608011612113576121038183611ee6565b9190612ea3565b6080919250612fd39060203d602011611536576115278183611ee6565b9190612e48565b5050600190565b90919273ffffffffffffffffffffffffffffffffffffffff61304d9481604051957f23b872dd000000000000000000000000000000000000000000000000000000006020880152166024860152166044840152606483015260648252613048608483611ee6565b613222565b565b6040517f095ea7b300000000000000000000000000000000000000000000000000000000602080830191825273ffffffffffffffffffffffffffffffffffffffff85166024840152604480840196909652948252929390925f906130b4606486611ee6565b84519082855af15f513d82613137575b5050156130d057505050565b61304861304d9373ffffffffffffffffffffffffffffffffffffffff604051917f095ea7b30000000000000000000000000000000000000000000000000000000060208401521660248201525f604482015260448152613131606482611ee6565b82613222565b909150613161575073ffffffffffffffffffffffffffffffffffffffff81163b15155b5f806130c4565b60011461315a565b6040517fa9059cbb00000000000000000000000000000000000000000000000000000000602082015273ffffffffffffffffffffffffffffffffffffffff92909216602483015260448083019390935291815261304d91613048606483611ee6565b60ff7ff0c57e16840df040f15088dc2f81fe391c3923bec73e23a9662efc9c229c6a005460401c16156131fa57565b7fd7e6bcf8000000000000000000000000000000000000000000000000000000005f5260045ffd5b905f602091828151910182855af11561175e575f513d6132a0575073ffffffffffffffffffffffffffffffffffffffff81163b155b61325e5750565b73ffffffffffffffffffffffffffffffffffffffff907f5274afe7000000000000000000000000000000000000000000000000000000005f521660045260245ffd5b60011415613257565b906132e657508051156132be57805190602001fd5b7fd6bda275000000000000000000000000000000000000000000000000000000005f5260045ffd5b81511580613339575b6132f7575090565b73ffffffffffffffffffffffffffffffffffffffff907f9996b315000000000000000000000000000000000000000000000000000000005f521660045260245ffd5b50803b156132ef56fea26469706673582212204abb2b80fbfcc438510eeb646c7a66aea3a30bc42495e439714ad45c8afb5d0e64736f6c634300081e0033",
        "nonce": "0x41",
        "chainId": "0x1"
      },
      "additionalContracts": [],
      "isFixedGasLimit": false
    },
    {
      "hash": "0x71f9612b9d9e67ecd0518e12c7d063d7fae194ac7c0602ba276bff8bfc752d38",
      "transactionType": "CALL",
      "contractName": null,
      "contractAddress": "0x7f39c581f595b53c5cb19bd0b3f8da6c935e2ca0",
      "function": "approve(address,uint256)",
      "arguments": [
        "0xb0c0FafD54843389B496B1691a8875ACb1826eEB",
        "1000000000000000"
      ],
      "transaction": {
        "from": "0x7964b32ed0e5ad3fb17a268f7374adcca430b1aa",
        "to": "0x7f39c581f595b53c5cb19bd0b3f8da6c935e2ca0",
        "gas": "0xf95b",
        "value": "0x0",
        "input": "0x095ea7b3000000000000000000000000b0c0fafd54843389b496b1691a8875acb1826eeb00000000000000000000000000000000000000000000000000038d7ea4c68000",
        "nonce": "0x42",
        "chainId": "0x1"
      },
      "additionalContracts": [],
      "isFixedGasLimit": false
    },
    {
      "hash": "0x04dc1ad44dbc37882d3df6ff4cf31aa38e111a45685d2ea7f9bfc9b180232c49",
      "transactionType": "CALL",
      "contractName": null,
      "contractAddress": "0xb0c0fafd54843389b496b1691a8875acb1826eeb",
      "function": "deployLeverageTokenAndDeposit((string,string,uint256,uint256),(bytes32,bytes32),(address,address,uint256,uint256,uint256,uint120,uint256,uint256,uint256,uint256,address),uint256,uint256)",
      "arguments": [
        "(wstETH / WETH 2x Leverage Token, WSTETH-WETH-2x, 0, 10)",
        "(0xb8fc70e82bc5bb53e773626fcc6a23f7eefa036918d7ef216ecfb1950a94a85e, 0x274c24c6c97468b90fffee277f0ac2c9e7ecd3d495506a9b50d0f68c2686a0c3)",
        "(0xa7288619E5FFFa37AC14Ea579CAc7FB9422eA25a, 0x3aA518Bd9ee447E3F71c01B69A0d5d49C534E05F, 1990099010000000000, 2000000000000000000, 2000100010000000000, 345600, 90000000000000000, 90000000000000000, 1038461538000000000, 3000, 0x60Bf78233f48eC42eE3F101b9a05eC7878728006)",
        "1000000000000000",
        "500000000000000"
      ],
      "transaction": {
        "from": "0x7964b32ed0e5ad3fb17a268f7374adcca430b1aa",
        "to": "0xb0c0fafd54843389b496b1691a8875acb1826eeb",
        "gas": "0x1e8006",
        "value": "0x0",
        "input": "0x4cefd6a50000000000000000000000000000000000000000000000000000000000000200b8fc70e82bc5bb53e773626fcc6a23f7eefa036918d7ef216ecfb1950a94a85e274c24c6c97468b90fffee277f0ac2c9e7ecd3d495506a9b50d0f68c2686a0c3000000000000000000000000a7288619e5fffa37ac14ea579cac7fb9422ea25a0000000000000000000000003aa518bd9ee447e3f71c01b69a0d5d49c534e05f0000000000000000000000000000000000000000000000001b9e40816ee814000000000000000000000000000000000000000000000000001bc16d674ec800000000000000000000000000000000000000000000000000001bc1c85cb34e24000000000000000000000000000000000000000000000000000000000000054600000000000000000000000000000000000000000000000000013fbe85edc90000000000000000000000000000000000000000000000000000013fbe85edc900000000000000000000000000000000000000000000000000000e695b444d6554000000000000000000000000000000000000000000000000000000000000000bb800000000000000000000000060bf78233f48ec42ee3f101b9a05ec787872800600000000000000000000000000000000000000000000000000038d7ea4c680000000000000000000000000000000000000000000000000000001c6bf52634000000000000000000000000000000000000000000000000000000000000000008000000000000000000000000000000000000000000000000000000000000000c00000000000000000000000000000000000000000000000000000000000000000000000000000000000000000000000000000000000000000000000000000000a000000000000000000000000000000000000000000000000000000000000001f777374455448202f2057455448203278204c6576657261676520546f6b656e00000000000000000000000000000000000000000000000000000000000000000e5753544554482d574554482d3278000000000000000000000000000000000000",
        "nonce": "0x43",
        "chainId": "0x1"
      },
      "additionalContracts": [
        {
          "transactionType": "CREATE2",
          "contractName": null,
          "address": "0xd04dfd949facee65da71490da42b2bf9c8ccf297",
          "initCode": "0x3d602d80600a3d3981f3363d3d373d3d3d363d7300c66934ebca0f2a845812bc368b230f6da11a5c5af43d82803e903d91602b57fd5bf3"
        },
        {
          "transactionType": "CREATE",
          "contractName": "ERC1967Proxy",
          "address": "0x92acd02b7df2357a88956607a88ca171e09efa16",
          "initCode": "0x60806040526102a88038038061001481610168565b92833981016040828203126101645781516001600160a01b03811692909190838303610164576020810151906001600160401b03821161016457019281601f8501121561016457835161006e610069826101a1565b610168565b9481865260208601936020838301011161016457815f926020809301865e86010152823b15610152577f360894a13ba1a3210667c828492db98dca3e2076cc3735a920a3ca505d382bbc80546001600160a01b031916821790557fbc7cd75a20ee27fd9adebab32041f755214dbc6bffa90cc0225b39da2e5c2d3b5f80a282511561013a575f8091610122945190845af43d15610132573d91610113610069846101a1565b9283523d5f602085013e6101bc565b505b604051608d908161021b8239f35b6060916101bc565b50505034156101245763b398979f60e01b5f5260045ffd5b634c9c8ce360e01b5f5260045260245ffd5b5f80fd5b6040519190601f01601f191682016001600160401b0381118382101761018d57604052565b634e487b7160e01b5f52604160045260245ffd5b6001600160401b03811161018d57601f01601f191660200190565b906101e057508051156101d157805190602001fd5b63d6bda27560e01b5f5260045ffd5b81511580610211575b6101f1575090565b639996b31560e01b5f9081526001600160a01b0391909116600452602490fd5b50803b156101e956fe60806040525f8073ffffffffffffffffffffffffffffffffffffffff7f360894a13ba1a3210667c828492db98dca3e2076cc3735a920a3ca505d382bbc5416368280378136915af43d5f803e156053573d5ff35b3d5ffdfea2646970667358221220efd3ca988fdda9226ffa3fb6a447bf34662af469a6e10f66494d212177be74ab64736f6c634300081e0033000000000000000000000000a7288619e5fffa37ac14ea579cac7fb9422ea25a0000000000000000000000000000000000000000000000000000000000000040000000000000000000000000000000000000000000000000000000000000018483180ab40000000000000000000000003aa518bd9ee447e3f71c01b69a0d5d49c534e05f000000000000000000000000b0c0fafd54843389b496b1691a8875acb1826eeb0000000000000000000000005c37eb148d4a261acd101e2b997a0f163fb3e3510000000000000000000000000000000000000000000000001b9e40816ee814000000000000000000000000000000000000000000000000001bc16d674ec800000000000000000000000000000000000000000000000000001bc1c85cb34e24000000000000000000000000000000000000000000000000000000000000054600000000000000000000000000000000000000000000000000013fbe85edc90000000000000000000000000000000000000000000000000000013fbe85edc900000000000000000000000000000000000000000000000000000e695b444d6554000000000000000000000000000000000000000000000000000000000000000bb800000000000000000000000060bf78233f48ec42ee3f101b9a05ec787872800600000000000000000000000000000000000000000000000000000000"
        },
        {
          "transactionType": "CREATE2",
          "contractName": "BeaconProxy",
          "address": "0x7097644aa6c4a664f7644385bf1be5e522162b6c",
          "initCode": "0x60a08060405261050d80380380916100178285610292565b833981016040828203126101eb5761002e826102c9565b602083015190926001600160401b0382116101eb57019080601f830112156101eb57815161005b816102dd565b926100696040519485610292565b8184526020840192602083830101116101eb57815f926020809301855e84010152823b15610274577fa3f0ad74e5423aebfd80d3ef4346578335a9a72aeaee59ff6cb3582b35133d5080546001600160a01b0319166001600160a01b038516908117909155604051635c60da1b60e01b8152909190602081600481865afa9081156101f7575f9161023a575b50803b1561021a5750817f1cf3b03a6cf19fa2baba4df148e9dcabedea7f8a5c07840e207e5c089be95d3e5f80a282511561020257602060049260405193848092635c60da1b60e01b82525afa9182156101f7575f926101ae575b505f809161018a945190845af43d156101a6573d9161016e836102dd565b9261017c6040519485610292565b83523d5f602085013e6102f8565b505b6080526040516101b6908161035782396080518160460152f35b6060916102f8565b9291506020833d6020116101ef575b816101ca60209383610292565b810103126101eb575f80916101e161018a956102c9565b9394509150610150565b5f80fd5b3d91506101bd565b6040513d5f823e3d90fd5b505050341561018c5763b398979f60e01b5f5260045ffd5b634c9c8ce360e01b5f9081526001600160a01b0391909116600452602490fd5b90506020813d60201161026c575b8161025560209383610292565b810103126101eb57610266906102c9565b5f6100f5565b3d9150610248565b631933b43b60e21b5f9081526001600160a01b038416600452602490fd5b601f909101601f19168101906001600160401b038211908210176102b557604052565b634e487b7160e01b5f52604160045260245ffd5b51906001600160a01b03821682036101eb57565b6001600160401b0381116102b557601f01601f191660200190565b9061031c575080511561030d57805190602001fd5b63d6bda27560e01b5f5260045ffd5b8151158061034d575b61032d575090565b639996b31560e01b5f9081526001600160a01b0391909116600452602490fd5b50803b1561032556fe60806040527f5c60da1b000000000000000000000000000000000000000000000000000000006080526020608060048173ffffffffffffffffffffffffffffffffffffffff7f0000000000000000000000000000000000000000000000000000000000000000165afa8015610107575f9015610163575060203d602011610100575b7fffffffffffffffffffffffffffffffffffffffffffffffffffffffffffffffe0601f820116608001906080821067ffffffffffffffff8311176100d3576100ce91604052608001610112565b610163565b7f4e487b71000000000000000000000000000000000000000000000000000000005f52604160045260245ffd5b503d610081565b6040513d5f823e3d90fd5b7fffffffffffffffffffffffffffffffffffffffffffffffffffffffffffffff80602091011261015f5760805173ffffffffffffffffffffffffffffffffffffffff8116810361015f5790565b5f80fd5b5f8091368280378136915af43d5f803e1561017c573d5ff35b3d5ffdfea26469706673582212205447fc6bdf2f5ebea38dad22e17329c0f45f58320ca5e5ca9b25c8c815cb469264736f6c634300081e0033000000000000000000000000603da735780e6bc7d04f3fb85c26dcccd4ff0a82000000000000000000000000000000000000000000000000000000000000004000000000000000000000000000000000000000000000000000000000000000e4906571470000000000000000000000005c37eb148d4a261acd101e2b997a0f163fb3e351000000000000000000000000000000000000000000000000000000000000006000000000000000000000000000000000000000000000000000000000000000a0000000000000000000000000000000000000000000000000000000000000001f777374455448202f2057455448203278204c6576657261676520546f6b656e00000000000000000000000000000000000000000000000000000000000000000e5753544554482d574554482d327800000000000000000000000000000000000000000000000000000000000000000000000000000000000000000000"
        }
      ],
      "isFixedGasLimit": false
    }
  ],
  "receipts": [
    {
      "status": "0x1",
      "cumulativeGasUsed": "0x2bf91c",
      "logs": [],
      "logsBloom": "0x00000000000000000000000000000000000000000000000000000000000000000000000000000000000000000000000000000000000000000000000000000000000000000000000000000000000000000000000000000000000000000000000000000000000000000000000000000000000000000000000000000000000000000000000000000000000000000000000000000000000000000000000000000000000000000000000000000000000000000000000000000000000000000000000000000000000000000000000000000000000000000000000000000000000000000000000000000000000000000000000000000000000000000000000000000000",
      "type": "0x2",
      "transactionHash": "0xd6e756ff76f577ad0e294b9bb4ed80fd601250ce1fe685b298fa131729a2ca57",
      "transactionIndex": "0x0",
      "blockHash": "0x16a5364fc90992732f5d451ca050bbbf4cf7fb4db872722bdaae419905b32d62",
      "blockNumber": "0x16e9ea6",
      "gasUsed": "0x2bf91c",
      "effectiveGasPrice": "0x2",
      "blobGasUsed": "0x0",
      "from": "0x7964b32ed0e5ad3fb17a268f7374adcca430b1aa",
      "to": null,
      "contractAddress": "0xa7288619e5fffa37ac14ea579cac7fb9422ea25a"
    },
    {
      "status": "0x1",
      "cumulativeGasUsed": "0xb488",
      "logs": [
        {
          "address": "0x7f39c581f595b53c5cb19bd0b3f8da6c935e2ca0",
          "topics": [
            "0x8c5be1e5ebec7d5bd14f71427d1e84f3dd0314c0f7b2291e5b200ac8c7c3b925",
            "0x0000000000000000000000007964b32ed0e5ad3fb17a268f7374adcca430b1aa",
            "0x000000000000000000000000b0c0fafd54843389b496b1691a8875acb1826eeb"
          ],
          "data": "0x00000000000000000000000000000000000000000000000000038d7ea4c68000",
          "blockHash": "0x2597ddcc058ea87edbca0a4eba38d07b38ab83c85b3f0f22f0750de868bfff1b",
          "blockNumber": "0x16e9ea7",
          "transactionHash": "0x71f9612b9d9e67ecd0518e12c7d063d7fae194ac7c0602ba276bff8bfc752d38",
          "transactionIndex": "0x0",
          "logIndex": "0x0",
          "removed": false
        }
      ],
      "logsBloom": "0x00000000000000000000000000000000000000000000000000000000000000000000000000000000000000000000000000000000000000000000000100200000000000000000000000000000000000000000000000000020000000000000000000000000000000000000000000000000000000000000000000000000000000000000000000000000000080000000000000000000000000000000000000000000020000000000000000000000000000000000000000000000000000000000000000000000000000100000000500000000000000000000000000000000000000000010000000000000000800008008000000000000000000000000000000000000",
      "type": "0x2",
      "transactionHash": "0x71f9612b9d9e67ecd0518e12c7d063d7fae194ac7c0602ba276bff8bfc752d38",
      "transactionIndex": "0x0",
      "blockHash": "0x2597ddcc058ea87edbca0a4eba38d07b38ab83c85b3f0f22f0750de868bfff1b",
      "blockNumber": "0x16e9ea7",
      "gasUsed": "0xb488",
      "effectiveGasPrice": "0x2",
      "blobGasUsed": "0x0",
      "from": "0x7964b32ed0e5ad3fb17a268f7374adcca430b1aa",
      "to": "0x7f39c581f595b53c5cb19bd0b3f8da6c935e2ca0",
      "contractAddress": null
    },
    {
      "status": "0x1",
      "cumulativeGasUsed": "0x1614df",
      "logs": [
        {
          "address": "0xce05fbed9260810bdded179adfdaf737be7ded71",
          "topics": [
            "0x90a228f4b5bc611babf005ecebd48836d9c73714549183b216fec07d3ee4348c"
          ],
          "data": "0x000000000000000000000000d04dfd949facee65da71490da42b2bf9c8ccf297",
          "blockHash": "0x89a38a34b5aec24406abd79bb5b36ed83bbe8e6982096fdea33ccadb307e4828",
          "blockNumber": "0x16e9ea8",
          "transactionHash": "0x04dc1ad44dbc37882d3df6ff4cf31aa38e111a45685d2ea7f9bfc9b180232c49",
          "transactionIndex": "0x0",
          "logIndex": "0x0",
          "removed": false
        },
        {
          "address": "0xd04dfd949facee65da71490da42b2bf9c8ccf297",
          "topics": [
            "0x4936702b8ba221fe23c531f1a2d5ba3022c8e5238de7a4428155d32b367c129c",
            "0xb8fc70e82bc5bb53e773626fcc6a23f7eefa036918d7ef216ecfb1950a94a85e",
            "0x000000000000000000000000b0c0fafd54843389b496b1691a8875acb1826eeb"
          ],
          "data": "0x000000000000000000000000c02aaa39b223fe8d0a0e5c4f27ead9083c756cc20000000000000000000000007f39c581f595b53c5cb19bd0b3f8da6c935e2ca0000000000000000000000000bd60a6770b27e084e8617335dde769241b0e71d8000000000000000000000000870ac11d48b15db9a138cf899d20f13f79ba00bc0000000000000000000000000000000000000000000000000d645e6320408000",
          "blockHash": "0x89a38a34b5aec24406abd79bb5b36ed83bbe8e6982096fdea33ccadb307e4828",
          "blockNumber": "0x16e9ea8",
          "transactionHash": "0x04dc1ad44dbc37882d3df6ff4cf31aa38e111a45685d2ea7f9bfc9b180232c49",
          "transactionIndex": "0x0",
          "logIndex": "0x1",
          "removed": false
        },
        {
          "address": "0xd04dfd949facee65da71490da42b2bf9c8ccf297",
          "topics": [
            "0xc7f505b2f371ae2175ee4913f4499e1f2633a7b5936321eed1cdaeb6115181d2"
          ],
          "data": "0x0000000000000000000000000000000000000000000000000000000000000001",
          "blockHash": "0x89a38a34b5aec24406abd79bb5b36ed83bbe8e6982096fdea33ccadb307e4828",
          "blockNumber": "0x16e9ea8",
          "transactionHash": "0x04dc1ad44dbc37882d3df6ff4cf31aa38e111a45685d2ea7f9bfc9b180232c49",
          "transactionIndex": "0x0",
          "logIndex": "0x2",
          "removed": false
        },
        {
          "address": "0x92acd02b7df2357a88956607a88ca171e09efa16",
          "topics": [
            "0xbc7cd75a20ee27fd9adebab32041f755214dbc6bffa90cc0225b39da2e5c2d3b",
            "0x000000000000000000000000a7288619e5fffa37ac14ea579cac7fb9422ea25a"
          ],
          "data": "0x",
          "blockHash": "0x89a38a34b5aec24406abd79bb5b36ed83bbe8e6982096fdea33ccadb307e4828",
          "blockNumber": "0x16e9ea8",
          "transactionHash": "0x04dc1ad44dbc37882d3df6ff4cf31aa38e111a45685d2ea7f9bfc9b180232c49",
          "transactionIndex": "0x0",
          "logIndex": "0x3",
          "removed": false
        },
        {
          "address": "0x92acd02b7df2357a88956607a88ca171e09efa16",
          "topics": [
            "0x1ac95be1853baa8304ed1d2e0260090f434df21565a173bfcf0e0b6fb2df9f20"
          ],
          "data": "0x0000000000000000000000000000000000000000000000000000000000054600000000000000000000000000000000000000000000000000013fbe85edc90000000000000000000000000000000000000000000000000000013fbe85edc90000",
          "blockHash": "0x89a38a34b5aec24406abd79bb5b36ed83bbe8e6982096fdea33ccadb307e4828",
          "blockNumber": "0x16e9ea8",
          "transactionHash": "0x04dc1ad44dbc37882d3df6ff4cf31aa38e111a45685d2ea7f9bfc9b180232c49",
          "transactionIndex": "0x0",
          "logIndex": "0x4",
          "removed": false
        },
        {
          "address": "0x92acd02b7df2357a88956607a88ca171e09efa16",
          "topics": [
            "0x907e644655df3921a8519baf7b92482f53ebd8aa56d81dad48e2a324abe8c19a"
          ],
          "data": "0x0000000000000000000000000000000000000000000000001b9e40816ee814000000000000000000000000000000000000000000000000001bc16d674ec800000000000000000000000000000000000000000000000000001bc1c85cb34e2400",
          "blockHash": "0x89a38a34b5aec24406abd79bb5b36ed83bbe8e6982096fdea33ccadb307e4828",
          "blockNumber": "0x16e9ea8",
          "transactionHash": "0x04dc1ad44dbc37882d3df6ff4cf31aa38e111a45685d2ea7f9bfc9b180232c49",
          "transactionIndex": "0x0",
          "logIndex": "0x5",
          "removed": false
        },
        {
          "address": "0x92acd02b7df2357a88956607a88ca171e09efa16",
          "topics": [
            "0xae5d896f92e6367724d7b0e838e1ff0fbc15e278bd65035df77c2bdc565d6533"
          ],
          "data": "0x0000000000000000000000000000000000000000000000000e695b444d6554000000000000000000000000000000000000000000000000000000000000000bb8",
          "blockHash": "0x89a38a34b5aec24406abd79bb5b36ed83bbe8e6982096fdea33ccadb307e4828",
          "blockNumber": "0x16e9ea8",
          "transactionHash": "0x04dc1ad44dbc37882d3df6ff4cf31aa38e111a45685d2ea7f9bfc9b180232c49",
          "transactionIndex": "0x0",
          "logIndex": "0x6",
          "removed": false
        },
        {
          "address": "0x92acd02b7df2357a88956607a88ca171e09efa16",
          "topics": [
            "0x8be0079c531659141344cd1fd0a4f28419497f9722a3daafe3b4186f6b6457e0",
            "0x0000000000000000000000000000000000000000000000000000000000000000",
            "0x0000000000000000000000003aa518bd9ee447e3f71c01b69a0d5d49c534e05f"
          ],
          "data": "0x",
          "blockHash": "0x89a38a34b5aec24406abd79bb5b36ed83bbe8e6982096fdea33ccadb307e4828",
          "blockNumber": "0x16e9ea8",
          "transactionHash": "0x04dc1ad44dbc37882d3df6ff4cf31aa38e111a45685d2ea7f9bfc9b180232c49",
          "transactionIndex": "0x0",
          "logIndex": "0x7",
          "removed": false
        },
        {
          "address": "0x92acd02b7df2357a88956607a88ca171e09efa16",
          "topics": [
            "0xf76781ab47911f3e8c8434949e746f9832a33ffd9d1e9c1c9e784c802561ede6",
            "0x000000000000000000000000b0c0fafd54843389b496b1691a8875acb1826eeb",
            "0x0000000000000000000000005c37eb148d4a261acd101e2b997a0f163fb3e351"
          ],
          "data": "0x",
          "blockHash": "0x89a38a34b5aec24406abd79bb5b36ed83bbe8e6982096fdea33ccadb307e4828",
          "blockNumber": "0x16e9ea8",
          "transactionHash": "0x04dc1ad44dbc37882d3df6ff4cf31aa38e111a45685d2ea7f9bfc9b180232c49",
          "transactionIndex": "0x0",
          "logIndex": "0x8",
          "removed": false
        },
        {
          "address": "0x92acd02b7df2357a88956607a88ca171e09efa16",
          "topics": [
            "0xc7f505b2f371ae2175ee4913f4499e1f2633a7b5936321eed1cdaeb6115181d2"
          ],
          "data": "0x0000000000000000000000000000000000000000000000000000000000000001",
          "blockHash": "0x89a38a34b5aec24406abd79bb5b36ed83bbe8e6982096fdea33ccadb307e4828",
          "blockNumber": "0x16e9ea8",
          "transactionHash": "0x04dc1ad44dbc37882d3df6ff4cf31aa38e111a45685d2ea7f9bfc9b180232c49",
          "transactionIndex": "0x0",
          "logIndex": "0x9",
          "removed": false
        },
        {
          "address": "0x7097644aa6c4a664f7644385bf1be5e522162b6c",
          "topics": [
            "0x1cf3b03a6cf19fa2baba4df148e9dcabedea7f8a5c07840e207e5c089be95d3e",
            "0x000000000000000000000000603da735780e6bc7d04f3fb85c26dcccd4ff0a82"
          ],
          "data": "0x",
          "blockHash": "0x89a38a34b5aec24406abd79bb5b36ed83bbe8e6982096fdea33ccadb307e4828",
          "blockNumber": "0x16e9ea8",
          "transactionHash": "0x04dc1ad44dbc37882d3df6ff4cf31aa38e111a45685d2ea7f9bfc9b180232c49",
          "transactionIndex": "0x0",
          "logIndex": "0xa",
          "removed": false
        },
        {
          "address": "0x7097644aa6c4a664f7644385bf1be5e522162b6c",
          "topics": [
            "0x8be0079c531659141344cd1fd0a4f28419497f9722a3daafe3b4186f6b6457e0",
            "0x0000000000000000000000000000000000000000000000000000000000000000",
            "0x0000000000000000000000005c37eb148d4a261acd101e2b997a0f163fb3e351"
          ],
          "data": "0x",
          "blockHash": "0x89a38a34b5aec24406abd79bb5b36ed83bbe8e6982096fdea33ccadb307e4828",
          "blockNumber": "0x16e9ea8",
          "transactionHash": "0x04dc1ad44dbc37882d3df6ff4cf31aa38e111a45685d2ea7f9bfc9b180232c49",
          "transactionIndex": "0x0",
          "logIndex": "0xb",
          "removed": false
        },
        {
          "address": "0x7097644aa6c4a664f7644385bf1be5e522162b6c",
          "topics": [
            "0x57d9c3176493540cc7a0fba3538e0908b18dfe9468541ad54ba54fd474d33fec"
          ],
          "data": "0x00000000000000000000000000000000000000000000000000000000000000400000000000000000000000000000000000000000000000000000000000000080000000000000000000000000000000000000000000000000000000000000001f777374455448202f2057455448203278204c6576657261676520546f6b656e00000000000000000000000000000000000000000000000000000000000000000e5753544554482d574554482d3278000000000000000000000000000000000000",
          "blockHash": "0x89a38a34b5aec24406abd79bb5b36ed83bbe8e6982096fdea33ccadb307e4828",
          "blockNumber": "0x16e9ea8",
          "transactionHash": "0x04dc1ad44dbc37882d3df6ff4cf31aa38e111a45685d2ea7f9bfc9b180232c49",
          "transactionIndex": "0x0",
          "logIndex": "0xc",
          "removed": false
        },
        {
          "address": "0x7097644aa6c4a664f7644385bf1be5e522162b6c",
          "topics": [
            "0xc7f505b2f371ae2175ee4913f4499e1f2633a7b5936321eed1cdaeb6115181d2"
          ],
          "data": "0x0000000000000000000000000000000000000000000000000000000000000001",
          "blockHash": "0x89a38a34b5aec24406abd79bb5b36ed83bbe8e6982096fdea33ccadb307e4828",
          "blockNumber": "0x16e9ea8",
          "transactionHash": "0x04dc1ad44dbc37882d3df6ff4cf31aa38e111a45685d2ea7f9bfc9b180232c49",
          "transactionIndex": "0x0",
          "logIndex": "0xd",
          "removed": false
        },
        {
          "address": "0x603da735780e6bc7d04f3fb85c26dcccd4ff0a82",
          "topics": [
            "0xfc6ca44b2e0253d7b333f816a6b6e52e7292a56fd5f38e52946f9dfc812d698b",
            "0x0000000000000000000000007097644aa6c4a664f7644385bf1be5e522162b6c"
          ],
          "data": "0x0000000000000000000000000000000000000000000000000000000000000040000000000000000000000000000000000000000000000000000000000000000d00000000000000000000000000000000000000000000000000000000000000e4906571470000000000000000000000005c37eb148d4a261acd101e2b997a0f163fb3e351000000000000000000000000000000000000000000000000000000000000006000000000000000000000000000000000000000000000000000000000000000a0000000000000000000000000000000000000000000000000000000000000001f777374455448202f2057455448203278204c6576657261676520546f6b656e00000000000000000000000000000000000000000000000000000000000000000e5753544554482d574554482d327800000000000000000000000000000000000000000000000000000000000000000000000000000000000000000000",
          "blockHash": "0x89a38a34b5aec24406abd79bb5b36ed83bbe8e6982096fdea33ccadb307e4828",
          "blockNumber": "0x16e9ea8",
          "transactionHash": "0x04dc1ad44dbc37882d3df6ff4cf31aa38e111a45685d2ea7f9bfc9b180232c49",
          "transactionIndex": "0x0",
          "logIndex": "0xe",
          "removed": false
        },
        {
          "address": "0x5c37eb148d4a261acd101e2b997a0f163fb3e351",
          "topics": [
            "0x9dc95718df096d1d699a19543ccd8b579bc4729ce2021eb4764ff654ed67a5dc",
            "0x0000000000000000000000007097644aa6c4a664f7644385bf1be5e522162b6c",
            "0x0000000000000000000000000000000000000000000000000000000000000000"
          ],
          "data": "0x0000000000000000000000000000000000000000000000000000000000000000",
          "blockHash": "0x89a38a34b5aec24406abd79bb5b36ed83bbe8e6982096fdea33ccadb307e4828",
          "blockNumber": "0x16e9ea8",
          "transactionHash": "0x04dc1ad44dbc37882d3df6ff4cf31aa38e111a45685d2ea7f9bfc9b180232c49",
          "transactionIndex": "0x0",
          "logIndex": "0xf",
          "removed": false
        },
        {
          "address": "0x5c37eb148d4a261acd101e2b997a0f163fb3e351",
          "topics": [
            "0x9dc95718df096d1d699a19543ccd8b579bc4729ce2021eb4764ff654ed67a5dc",
            "0x0000000000000000000000007097644aa6c4a664f7644385bf1be5e522162b6c",
            "0x0000000000000000000000000000000000000000000000000000000000000001"
          ],
          "data": "0x000000000000000000000000000000000000000000000000000000000000000a",
          "blockHash": "0x89a38a34b5aec24406abd79bb5b36ed83bbe8e6982096fdea33ccadb307e4828",
          "blockNumber": "0x16e9ea8",
          "transactionHash": "0x04dc1ad44dbc37882d3df6ff4cf31aa38e111a45685d2ea7f9bfc9b180232c49",
          "transactionIndex": "0x0",
          "logIndex": "0x10",
          "removed": false
        },
        {
          "address": "0x5c37eb148d4a261acd101e2b997a0f163fb3e351",
          "topics": [
            "0x054728667e9fde2ae95b0b309983329748caba1b3df19081435adb8966c61514",
            "0x0000000000000000000000007097644aa6c4a664f7644385bf1be5e522162b6c"
          ],
          "data": "0x0000000000000000000000000000000000000000000000000000000000000000",
          "blockHash": "0x89a38a34b5aec24406abd79bb5b36ed83bbe8e6982096fdea33ccadb307e4828",
          "blockNumber": "0x16e9ea8",
          "transactionHash": "0x04dc1ad44dbc37882d3df6ff4cf31aa38e111a45685d2ea7f9bfc9b180232c49",
          "transactionIndex": "0x0",
          "logIndex": "0x11",
          "removed": false
        },
        {
          "address": "0xd04dfd949facee65da71490da42b2bf9c8ccf297",
          "topics": [
            "0xa6df6ca83fcea66b6eed2551b21e0a3f078e6af9eb9dbb02d2312e3d94b5d77b"
          ],
          "data": "0x",
          "blockHash": "0x89a38a34b5aec24406abd79bb5b36ed83bbe8e6982096fdea33ccadb307e4828",
          "blockNumber": "0x16e9ea8",
          "transactionHash": "0x04dc1ad44dbc37882d3df6ff4cf31aa38e111a45685d2ea7f9bfc9b180232c49",
          "transactionIndex": "0x0",
          "logIndex": "0x12",
          "removed": false
        },
        {
          "address": "0x92acd02b7df2357a88956607a88ca171e09efa16",
          "topics": [
            "0xf2a0f2a76c50e4dc5a5d674a2b409d8fb294b648a1b7ce7a0cf9ddf5b898089a"
          ],
          "data": "0x0000000000000000000000007097644aa6c4a664f7644385bf1be5e522162b6c",
          "blockHash": "0x89a38a34b5aec24406abd79bb5b36ed83bbe8e6982096fdea33ccadb307e4828",
          "blockNumber": "0x16e9ea8",
          "transactionHash": "0x04dc1ad44dbc37882d3df6ff4cf31aa38e111a45685d2ea7f9bfc9b180232c49",
          "transactionIndex": "0x0",
          "logIndex": "0x13",
          "removed": false
        },
        {
          "address": "0x5c37eb148d4a261acd101e2b997a0f163fb3e351",
          "topics": [
            "0xc3f4681fb2a57a13e121c6f24fe319c8572bb001497f2b74712695625ee9028e",
            "0x0000000000000000000000007097644aa6c4a664f7644385bf1be5e522162b6c"
          ],
          "data": "0x0000000000000000000000007f39c581f595b53c5cb19bd0b3f8da6c935e2ca0000000000000000000000000c02aaa39b223fe8d0a0e5c4f27ead9083c756cc2000000000000000000000000d04dfd949facee65da71490da42b2bf9c8ccf29700000000000000000000000092acd02b7df2357a88956607a88ca171e09efa160000000000000000000000000000000000000000000000000000000000000000000000000000000000000000000000000000000000000000000000000000000a",
          "blockHash": "0x89a38a34b5aec24406abd79bb5b36ed83bbe8e6982096fdea33ccadb307e4828",
          "blockNumber": "0x16e9ea8",
          "transactionHash": "0x04dc1ad44dbc37882d3df6ff4cf31aa38e111a45685d2ea7f9bfc9b180232c49",
          "transactionIndex": "0x0",
          "logIndex": "0x14",
          "removed": false
        },
        {
          "address": "0x7f39c581f595b53c5cb19bd0b3f8da6c935e2ca0",
          "topics": [
            "0xddf252ad1be2c89b69c2b068fc378daa952ba7f163c4a11628f55a4df523b3ef",
            "0x0000000000000000000000007964b32ed0e5ad3fb17a268f7374adcca430b1aa",
            "0x000000000000000000000000b0c0fafd54843389b496b1691a8875acb1826eeb"
          ],
          "data": "0x00000000000000000000000000000000000000000000000000038d7ea4c68000",
          "blockHash": "0x89a38a34b5aec24406abd79bb5b36ed83bbe8e6982096fdea33ccadb307e4828",
          "blockNumber": "0x16e9ea8",
          "transactionHash": "0x04dc1ad44dbc37882d3df6ff4cf31aa38e111a45685d2ea7f9bfc9b180232c49",
          "transactionIndex": "0x0",
          "logIndex": "0x15",
          "removed": false
        },
        {
          "address": "0x7f39c581f595b53c5cb19bd0b3f8da6c935e2ca0",
          "topics": [
            "0x8c5be1e5ebec7d5bd14f71427d1e84f3dd0314c0f7b2291e5b200ac8c7c3b925",
            "0x0000000000000000000000007964b32ed0e5ad3fb17a268f7374adcca430b1aa",
            "0x000000000000000000000000b0c0fafd54843389b496b1691a8875acb1826eeb"
          ],
          "data": "0x0000000000000000000000000000000000000000000000000000000000000000",
          "blockHash": "0x89a38a34b5aec24406abd79bb5b36ed83bbe8e6982096fdea33ccadb307e4828",
          "blockNumber": "0x16e9ea8",
          "transactionHash": "0x04dc1ad44dbc37882d3df6ff4cf31aa38e111a45685d2ea7f9bfc9b180232c49",
          "transactionIndex": "0x0",
          "logIndex": "0x16",
          "removed": false
        },
        {
          "address": "0x7f39c581f595b53c5cb19bd0b3f8da6c935e2ca0",
          "topics": [
            "0x8c5be1e5ebec7d5bd14f71427d1e84f3dd0314c0f7b2291e5b200ac8c7c3b925",
            "0x000000000000000000000000b0c0fafd54843389b496b1691a8875acb1826eeb",
            "0x0000000000000000000000005c37eb148d4a261acd101e2b997a0f163fb3e351"
          ],
          "data": "0x00000000000000000000000000000000000000000000000000038d7ea4c68000",
          "blockHash": "0x89a38a34b5aec24406abd79bb5b36ed83bbe8e6982096fdea33ccadb307e4828",
          "blockNumber": "0x16e9ea8",
          "transactionHash": "0x04dc1ad44dbc37882d3df6ff4cf31aa38e111a45685d2ea7f9bfc9b180232c49",
          "transactionIndex": "0x0",
          "logIndex": "0x17",
          "removed": false
        },
        {
          "address": "0x7f39c581f595b53c5cb19bd0b3f8da6c935e2ca0",
          "topics": [
            "0xddf252ad1be2c89b69c2b068fc378daa952ba7f163c4a11628f55a4df523b3ef",
            "0x000000000000000000000000b0c0fafd54843389b496b1691a8875acb1826eeb",
            "0x0000000000000000000000005c37eb148d4a261acd101e2b997a0f163fb3e351"
          ],
          "data": "0x00000000000000000000000000000000000000000000000000038d7ea4c68000",
          "blockHash": "0x89a38a34b5aec24406abd79bb5b36ed83bbe8e6982096fdea33ccadb307e4828",
          "blockNumber": "0x16e9ea8",
          "transactionHash": "0x04dc1ad44dbc37882d3df6ff4cf31aa38e111a45685d2ea7f9bfc9b180232c49",
          "transactionIndex": "0x0",
          "logIndex": "0x18",
          "removed": false
        },
        {
          "address": "0x7f39c581f595b53c5cb19bd0b3f8da6c935e2ca0",
          "topics": [
            "0x8c5be1e5ebec7d5bd14f71427d1e84f3dd0314c0f7b2291e5b200ac8c7c3b925",
            "0x000000000000000000000000b0c0fafd54843389b496b1691a8875acb1826eeb",
            "0x0000000000000000000000005c37eb148d4a261acd101e2b997a0f163fb3e351"
          ],
          "data": "0x0000000000000000000000000000000000000000000000000000000000000000",
          "blockHash": "0x89a38a34b5aec24406abd79bb5b36ed83bbe8e6982096fdea33ccadb307e4828",
          "blockNumber": "0x16e9ea8",
          "transactionHash": "0x04dc1ad44dbc37882d3df6ff4cf31aa38e111a45685d2ea7f9bfc9b180232c49",
          "transactionIndex": "0x0",
          "logIndex": "0x19",
          "removed": false
        },
        {
          "address": "0x7f39c581f595b53c5cb19bd0b3f8da6c935e2ca0",
          "topics": [
            "0x8c5be1e5ebec7d5bd14f71427d1e84f3dd0314c0f7b2291e5b200ac8c7c3b925",
            "0x0000000000000000000000005c37eb148d4a261acd101e2b997a0f163fb3e351",
            "0x000000000000000000000000d04dfd949facee65da71490da42b2bf9c8ccf297"
          ],
          "data": "0x00000000000000000000000000000000000000000000000000038d7ea4c68000",
          "blockHash": "0x89a38a34b5aec24406abd79bb5b36ed83bbe8e6982096fdea33ccadb307e4828",
          "blockNumber": "0x16e9ea8",
          "transactionHash": "0x04dc1ad44dbc37882d3df6ff4cf31aa38e111a45685d2ea7f9bfc9b180232c49",
          "transactionIndex": "0x0",
          "logIndex": "0x1a",
          "removed": false
        },
        {
          "address": "0x7f39c581f595b53c5cb19bd0b3f8da6c935e2ca0",
          "topics": [
            "0xddf252ad1be2c89b69c2b068fc378daa952ba7f163c4a11628f55a4df523b3ef",
            "0x0000000000000000000000005c37eb148d4a261acd101e2b997a0f163fb3e351",
            "0x000000000000000000000000d04dfd949facee65da71490da42b2bf9c8ccf297"
          ],
          "data": "0x00000000000000000000000000000000000000000000000000038d7ea4c68000",
          "blockHash": "0x89a38a34b5aec24406abd79bb5b36ed83bbe8e6982096fdea33ccadb307e4828",
          "blockNumber": "0x16e9ea8",
          "transactionHash": "0x04dc1ad44dbc37882d3df6ff4cf31aa38e111a45685d2ea7f9bfc9b180232c49",
          "transactionIndex": "0x0",
          "logIndex": "0x1b",
          "removed": false
        },
        {
          "address": "0x7f39c581f595b53c5cb19bd0b3f8da6c935e2ca0",
          "topics": [
            "0x8c5be1e5ebec7d5bd14f71427d1e84f3dd0314c0f7b2291e5b200ac8c7c3b925",
            "0x0000000000000000000000005c37eb148d4a261acd101e2b997a0f163fb3e351",
            "0x000000000000000000000000d04dfd949facee65da71490da42b2bf9c8ccf297"
          ],
          "data": "0x0000000000000000000000000000000000000000000000000000000000000000",
          "blockHash": "0x89a38a34b5aec24406abd79bb5b36ed83bbe8e6982096fdea33ccadb307e4828",
          "blockNumber": "0x16e9ea8",
          "transactionHash": "0x04dc1ad44dbc37882d3df6ff4cf31aa38e111a45685d2ea7f9bfc9b180232c49",
          "transactionIndex": "0x0",
          "logIndex": "0x1c",
          "removed": false
        },
        {
          "address": "0x7f39c581f595b53c5cb19bd0b3f8da6c935e2ca0",
          "topics": [
            "0x8c5be1e5ebec7d5bd14f71427d1e84f3dd0314c0f7b2291e5b200ac8c7c3b925",
            "0x000000000000000000000000d04dfd949facee65da71490da42b2bf9c8ccf297",
            "0x000000000000000000000000bbbbbbbbbb9cc5e90e3b3af64bdaf62c37eeffcb"
          ],
          "data": "0x00000000000000000000000000000000000000000000000000038d7ea4c68000",
          "blockHash": "0x89a38a34b5aec24406abd79bb5b36ed83bbe8e6982096fdea33ccadb307e4828",
          "blockNumber": "0x16e9ea8",
          "transactionHash": "0x04dc1ad44dbc37882d3df6ff4cf31aa38e111a45685d2ea7f9bfc9b180232c49",
          "transactionIndex": "0x0",
          "logIndex": "0x1d",
          "removed": false
        },
        {
          "address": "0xbbbbbbbbbb9cc5e90e3b3af64bdaf62c37eeffcb",
          "topics": [
            "0xa3b9472a1399e17e123f3c2e6586c23e504184d504de59cdaa2b375e880c6184",
            "0xb8fc70e82bc5bb53e773626fcc6a23f7eefa036918d7ef216ecfb1950a94a85e",
            "0x000000000000000000000000d04dfd949facee65da71490da42b2bf9c8ccf297",
            "0x000000000000000000000000d04dfd949facee65da71490da42b2bf9c8ccf297"
          ],
          "data": "0x00000000000000000000000000000000000000000000000000038d7ea4c68000",
          "blockHash": "0x89a38a34b5aec24406abd79bb5b36ed83bbe8e6982096fdea33ccadb307e4828",
          "blockNumber": "0x16e9ea8",
          "transactionHash": "0x04dc1ad44dbc37882d3df6ff4cf31aa38e111a45685d2ea7f9bfc9b180232c49",
          "transactionIndex": "0x0",
          "logIndex": "0x1e",
          "removed": false
        },
        {
          "address": "0x7f39c581f595b53c5cb19bd0b3f8da6c935e2ca0",
          "topics": [
            "0xddf252ad1be2c89b69c2b068fc378daa952ba7f163c4a11628f55a4df523b3ef",
            "0x000000000000000000000000d04dfd949facee65da71490da42b2bf9c8ccf297",
            "0x000000000000000000000000bbbbbbbbbb9cc5e90e3b3af64bdaf62c37eeffcb"
          ],
          "data": "0x00000000000000000000000000000000000000000000000000038d7ea4c68000",
          "blockHash": "0x89a38a34b5aec24406abd79bb5b36ed83bbe8e6982096fdea33ccadb307e4828",
          "blockNumber": "0x16e9ea8",
          "transactionHash": "0x04dc1ad44dbc37882d3df6ff4cf31aa38e111a45685d2ea7f9bfc9b180232c49",
          "transactionIndex": "0x0",
          "logIndex": "0x1f",
          "removed": false
        },
        {
          "address": "0x7f39c581f595b53c5cb19bd0b3f8da6c935e2ca0",
          "topics": [
            "0x8c5be1e5ebec7d5bd14f71427d1e84f3dd0314c0f7b2291e5b200ac8c7c3b925",
            "0x000000000000000000000000d04dfd949facee65da71490da42b2bf9c8ccf297",
            "0x000000000000000000000000bbbbbbbbbb9cc5e90e3b3af64bdaf62c37eeffcb"
          ],
          "data": "0x0000000000000000000000000000000000000000000000000000000000000000",
          "blockHash": "0x89a38a34b5aec24406abd79bb5b36ed83bbe8e6982096fdea33ccadb307e4828",
          "blockNumber": "0x16e9ea8",
          "transactionHash": "0x04dc1ad44dbc37882d3df6ff4cf31aa38e111a45685d2ea7f9bfc9b180232c49",
          "transactionIndex": "0x0",
          "logIndex": "0x20",
          "removed": false
        },
        {
          "address": "0x870ac11d48b15db9a138cf899d20f13f79ba00bc",
          "topics": [
            "0x7120161a7b3d31251e01294ab351ef15a41b91659a36032e4641bb89b121e321",
            "0xb8fc70e82bc5bb53e773626fcc6a23f7eefa036918d7ef216ecfb1950a94a85e"
          ],
          "data": "0x000000000000000000000000000000000000000000000000000000004b984c590000000000000000000000000000000000000000000000000000000049a1f0d4",
          "blockHash": "0x89a38a34b5aec24406abd79bb5b36ed83bbe8e6982096fdea33ccadb307e4828",
          "blockNumber": "0x16e9ea8",
          "transactionHash": "0x04dc1ad44dbc37882d3df6ff4cf31aa38e111a45685d2ea7f9bfc9b180232c49",
          "transactionIndex": "0x0",
          "logIndex": "0x21",
          "removed": false
        },
        {
          "address": "0xbbbbbbbbbb9cc5e90e3b3af64bdaf62c37eeffcb",
          "topics": [
            "0x9d9bd501d0657d7dfe415f779a620a62b78bc508ddc0891fbbd8b7ac0f8fce87",
            "0xb8fc70e82bc5bb53e773626fcc6a23f7eefa036918d7ef216ecfb1950a94a85e"
          ],
          "data": "0x000000000000000000000000000000000000000000000000000000004b984c590000000000000000000000000000000000000000000000099921516564d228ec0000000000000000000000000000000000000000000000000000000000000000",
          "blockHash": "0x89a38a34b5aec24406abd79bb5b36ed83bbe8e6982096fdea33ccadb307e4828",
          "blockNumber": "0x16e9ea8",
          "transactionHash": "0x04dc1ad44dbc37882d3df6ff4cf31aa38e111a45685d2ea7f9bfc9b180232c49",
          "transactionIndex": "0x0",
          "logIndex": "0x22",
          "removed": false
        },
        {
          "address": "0xbbbbbbbbbb9cc5e90e3b3af64bdaf62c37eeffcb",
          "topics": [
            "0x570954540bed6b1304a87dfe815a5eda4a648f7097a16240dcd85c9b5fd42a43",
            "0xb8fc70e82bc5bb53e773626fcc6a23f7eefa036918d7ef216ecfb1950a94a85e",
            "0x000000000000000000000000d04dfd949facee65da71490da42b2bf9c8ccf297",
            "0x0000000000000000000000005c37eb148d4a261acd101e2b997a0f163fb3e351"
          ],
          "data": "0x000000000000000000000000d04dfd949facee65da71490da42b2bf9c8ccf29700000000000000000000000000000000000000000000000000022bb0279f2cf200000000000000000000000000000000000000000000001fb66e84f232299969",
          "blockHash": "0x89a38a34b5aec24406abd79bb5b36ed83bbe8e6982096fdea33ccadb307e4828",
          "blockNumber": "0x16e9ea8",
          "transactionHash": "0x04dc1ad44dbc37882d3df6ff4cf31aa38e111a45685d2ea7f9bfc9b180232c49",
          "transactionIndex": "0x0",
          "logIndex": "0x23",
          "removed": false
        },
        {
          "address": "0xc02aaa39b223fe8d0a0e5c4f27ead9083c756cc2",
          "topics": [
            "0xddf252ad1be2c89b69c2b068fc378daa952ba7f163c4a11628f55a4df523b3ef",
            "0x000000000000000000000000bbbbbbbbbb9cc5e90e3b3af64bdaf62c37eeffcb",
            "0x0000000000000000000000005c37eb148d4a261acd101e2b997a0f163fb3e351"
          ],
          "data": "0x00000000000000000000000000000000000000000000000000022bb0279f2cf2",
          "blockHash": "0x89a38a34b5aec24406abd79bb5b36ed83bbe8e6982096fdea33ccadb307e4828",
          "blockNumber": "0x16e9ea8",
          "transactionHash": "0x04dc1ad44dbc37882d3df6ff4cf31aa38e111a45685d2ea7f9bfc9b180232c49",
          "transactionIndex": "0x0",
          "logIndex": "0x24",
          "removed": false
        },
        {
          "address": "0xc02aaa39b223fe8d0a0e5c4f27ead9083c756cc2",
          "topics": [
            "0xddf252ad1be2c89b69c2b068fc378daa952ba7f163c4a11628f55a4df523b3ef",
            "0x0000000000000000000000005c37eb148d4a261acd101e2b997a0f163fb3e351",
            "0x000000000000000000000000b0c0fafd54843389b496b1691a8875acb1826eeb"
          ],
          "data": "0x00000000000000000000000000000000000000000000000000022bb0279f2cf2",
          "blockHash": "0x89a38a34b5aec24406abd79bb5b36ed83bbe8e6982096fdea33ccadb307e4828",
          "blockNumber": "0x16e9ea8",
          "transactionHash": "0x04dc1ad44dbc37882d3df6ff4cf31aa38e111a45685d2ea7f9bfc9b180232c49",
          "transactionIndex": "0x0",
          "logIndex": "0x25",
          "removed": false
        },
        {
          "address": "0x7097644aa6c4a664f7644385bf1be5e522162b6c",
          "topics": [
            "0xddf252ad1be2c89b69c2b068fc378daa952ba7f163c4a11628f55a4df523b3ef",
            "0x0000000000000000000000000000000000000000000000000000000000000000",
            "0x000000000000000000000000b0c0fafd54843389b496b1691a8875acb1826eeb"
          ],
          "data": "0x0000000000000000000000000000000000000000000000000001c6bf52634000",
          "blockHash": "0x89a38a34b5aec24406abd79bb5b36ed83bbe8e6982096fdea33ccadb307e4828",
          "blockNumber": "0x16e9ea8",
          "transactionHash": "0x04dc1ad44dbc37882d3df6ff4cf31aa38e111a45685d2ea7f9bfc9b180232c49",
          "transactionIndex": "0x0",
          "logIndex": "0x26",
          "removed": false
        },
        {
          "address": "0x5c37eb148d4a261acd101e2b997a0f163fb3e351",
          "topics": [
            "0xca0d4a1151cf4e7c20fcffb441cb3e88636d136769402e584ed509f78f896f61",
            "0x0000000000000000000000007097644aa6c4a664f7644385bf1be5e522162b6c",
            "0x000000000000000000000000b0c0fafd54843389b496b1691a8875acb1826eeb"
          ],
          "data": "0x00000000000000000000000000000000000000000000000000038d7ea4c6800000000000000000000000000000000000000000000000000000022bb0279f2cf20000000000000000000000000000000000000000000000000001c6bf5263400000000000000000000000000000000000000000000000000000000000000000000000000000000000000000000000000000000000000000000000000000000000",
          "blockHash": "0x89a38a34b5aec24406abd79bb5b36ed83bbe8e6982096fdea33ccadb307e4828",
          "blockNumber": "0x16e9ea8",
          "transactionHash": "0x04dc1ad44dbc37882d3df6ff4cf31aa38e111a45685d2ea7f9bfc9b180232c49",
          "transactionIndex": "0x0",
          "logIndex": "0x27",
          "removed": false
        },
        {
          "address": "0x7097644aa6c4a664f7644385bf1be5e522162b6c",
          "topics": [
            "0xddf252ad1be2c89b69c2b068fc378daa952ba7f163c4a11628f55a4df523b3ef",
            "0x000000000000000000000000b0c0fafd54843389b496b1691a8875acb1826eeb",
            "0x0000000000000000000000007964b32ed0e5ad3fb17a268f7374adcca430b1aa"
          ],
          "data": "0x0000000000000000000000000000000000000000000000000001c6bf52634000",
          "blockHash": "0x89a38a34b5aec24406abd79bb5b36ed83bbe8e6982096fdea33ccadb307e4828",
          "blockNumber": "0x16e9ea8",
          "transactionHash": "0x04dc1ad44dbc37882d3df6ff4cf31aa38e111a45685d2ea7f9bfc9b180232c49",
          "transactionIndex": "0x0",
          "logIndex": "0x28",
          "removed": false
        },
        {
          "address": "0xc02aaa39b223fe8d0a0e5c4f27ead9083c756cc2",
          "topics": [
            "0xddf252ad1be2c89b69c2b068fc378daa952ba7f163c4a11628f55a4df523b3ef",
            "0x000000000000000000000000b0c0fafd54843389b496b1691a8875acb1826eeb",
            "0x0000000000000000000000007964b32ed0e5ad3fb17a268f7374adcca430b1aa"
          ],
          "data": "0x00000000000000000000000000000000000000000000000000022bb0279f2cf2",
          "blockHash": "0x89a38a34b5aec24406abd79bb5b36ed83bbe8e6982096fdea33ccadb307e4828",
          "blockNumber": "0x16e9ea8",
          "transactionHash": "0x04dc1ad44dbc37882d3df6ff4cf31aa38e111a45685d2ea7f9bfc9b180232c49",
          "transactionIndex": "0x0",
          "logIndex": "0x29",
          "removed": false
        }
      ],
      "logsBloom": "0x00000200220000000002820000000080500000004038104000848000004000000100400000200000000802000400200006000000080180000040000120a440400002000000102000080020080011020080010000002400200000000808020000400000000200000000800000000248000000040080000002000000140000004400000080000000080008800000000800000000000000b0202000100000004000020000004000100100420000000000010000000880000000000001010000000020020662000000300001000500020000040000200004000400800800000062000010204001000008401800208089220000000100008000000010000000008000",
      "type": "0x2",
      "transactionHash": "0x04dc1ad44dbc37882d3df6ff4cf31aa38e111a45685d2ea7f9bfc9b180232c49",
      "transactionIndex": "0x0",
      "blockHash": "0x89a38a34b5aec24406abd79bb5b36ed83bbe8e6982096fdea33ccadb307e4828",
      "blockNumber": "0x16e9ea8",
      "gasUsed": "0x1614df",
      "effectiveGasPrice": "0x2",
      "blobGasUsed": "0x0",
      "from": "0x7964b32ed0e5ad3fb17a268f7374adcca430b1aa",
      "to": "0xb0c0fafd54843389b496b1691a8875acb1826eeb",
      "contractAddress": null
    }
  ],
  "libraries": [],
  "pending": [],
  "returns": {},
  "timestamp": 1769132773193,
  "chain": 1,
  "commit": "a7c5cc9"
}