{
  "transactions": [
    {
      "hash": "0x78e4a88dbb77d5683d488817b45c3eec32fc100c8a143bc19154d819456765ce",
      "transactionType": "CALL",
      "contractName": null,
      "contractAddress": "0x3a70f0c696dcb3a4ab3833cd9726397dd61ac85e",
      "function": "approve(address,uint256)",
      "arguments": [
        "0x4466D52b714Ef32657db89ec61FAB1b7E30A0352",
        "2000000"
      ],
      "transaction": {
        "from": "0x3aa518bd9ee447e3f71c01b69a0d5d49c534e05f",
        "to": "0x3a70f0c696dcb3a4ab3833cd9726397dd61ac85e",
        "gas": "0xf7f4",
        "value": "0x0",
        "input": "0x095ea7b30000000000000000000000004466d52b714ef32657db89ec61fab1b7e30a035200000000000000000000000000000000000000000000000000000000001e8480",
        "nonce": "0x23",
        "chainId": "0x1"
      },
      "additionalContracts": [],
      "isFixedGasLimit": false
    },
    {
      "hash": "0x35795404d4ce40ad6934e2bdd81c6776453bae7e9df0b260a5be4828b904254f",
      "transactionType": "CALL",
      "contractName": "LeverageTokenDeploymentBatcher",
      "contractAddress": "0x4466d52b714ef32657db89ec61fab1b7e30a0352",
      "function": "deployLeverageTokenAndDeposit((string,string,uint256,uint256),(bytes32,bytes32),(address,address,uint256,uint256,uint256,uint120,uint256,uint256,uint256,uint256),uint256,uint256)",
      "arguments": [
        "(PT-RLP-4DEC2025 / USDC 2x Leverage Token, PT-RLP-4DEC2025-USDC-2x, 0, 0)",
        "(0xa02ad0cf521ba5e5b20d1bcb98043eb091807e2b3bf26df5aad1ad154a3b8d45, 0x0400d848c74dad64976572a127dc03d86137b37c0a4691e1ecf7cd73220f3a67)",
        "(0x1d0c191a0fe2917e244826D3a8d0a64503efAec8, 0x3aA518Bd9ee447E3F71c01B69A0d5d49C534E05F, 1990099010000000000, 2000000000000000000, 2000100010000000000, 3600, 1010000000000000000, 960000000000000000, 1166666667000000000, 3000)",
        "2000000",
        "1000000000000000000"
      ],
      "transaction": {
        "from": "0x3aa518bd9ee447e3f71c01b69a0d5d49c534e05f",
        "to": "0x4466d52b714ef32657db89ec61fab1b7e30a0352",
        "gas": "0x224de9",
        "value": "0x0",
        "input": "0x09707fc200000000000000000000000000000000000000000000000000000000000001e0a02ad0cf521ba5e5b20d1bcb98043eb091807e2b3bf26df5aad1ad154a3b8d450400d848c74dad64976572a127dc03d86137b37c0a4691e1ecf7cd73220f3a670000000000000000000000001d0c191a0fe2917e244826d3a8d0a64503efaec80000000000000000000000003aa518bd9ee447e3f71c01b69a0d5d49c534e05f0000000000000000000000000000000000000000000000001b9e40816ee814000000000000000000000000000000000000000000000000001bc16d674ec800000000000000000000000000000000000000000000000000001bc1c85cb34e24000000000000000000000000000000000000000000000000000000000000000e100000000000000000000000000000000000000000000000000e043da6172500000000000000000000000000000000000000000000000000000d529ae9e86000000000000000000000000000000000000000000000000000001030d52701d2ee000000000000000000000000000000000000000000000000000000000000000bb800000000000000000000000000000000000000000000000000000000001e84800000000000000000000000000000000000000000000000000de0b6b3a7640000000000000000000000000000000000000000000000000000000000000000008000000000000000000000000000000000000000000000000000000000000000e000000000000000000000000000000000000000000000000000000000000000000000000000000000000000000000000000000000000000000000000000000000000000000000000000000000000000000000000000000000000000000000002850542d524c502d3444454332303235202f2055534443203278204c6576657261676520546f6b656e000000000000000000000000000000000000000000000000000000000000000000000000000000000000000000000000000000000000001750542d524c502d34444543323032352d555344432d3278000000000000000000",
        "nonce": "0x24",
        "chainId": "0x1"
      },
      "additionalContracts": [
        {
          "transactionType": "CREATE2",
          "contractName": null,
          "address": "0x3c91152121c194dce99492e1fb35af8f98a5d292",
          "initCode": "0x3d602d80600a3d3981f3363d3d373d3d3d363d7300c66934ebca0f2a845812bc368b230f6da11a5c5af43d82803e903d91602b57fd5bf3"
        },
        {
          "transactionType": "CREATE",
          "contractName": "ERC1967Proxy",
          "address": "0x317133c30ea2555358d86d98d3c4d28fc7bd3bec",
          "initCode": "0x60806040526102a88038038061001481610168565b92833981016040828203126101645781516001600160a01b03811692909190838303610164576020810151906001600160401b03821161016457019281601f8501121561016457835161006e610069826101a1565b610168565b9481865260208601936020838301011161016457815f926020809301865e86010152823b15610152577f360894a13ba1a3210667c828492db98dca3e2076cc3735a920a3ca505d382bbc80546001600160a01b031916821790557fbc7cd75a20ee27fd9adebab32041f755214dbc6bffa90cc0225b39da2e5c2d3b5f80a282511561013a575f8091610122945190845af43d15610132573d91610113610069846101a1565b9283523d5f602085013e6101bc565b505b604051608d908161021b8239f35b6060916101bc565b50505034156101245763b398979f60e01b5f5260045ffd5b634c9c8ce360e01b5f5260045260245ffd5b5f80fd5b6040519190601f01601f191682016001600160401b0381118382101761018d57604052565b634e487b7160e01b5f52604160045260245ffd5b6001600160401b03811161018d57601f01601f191660200190565b906101e057508051156101d157805190602001fd5b63d6bda27560e01b5f5260045ffd5b81511580610211575b6101f1575090565b639996b31560e01b5f9081526001600160a01b0391909116600452602490fd5b50803b156101e956fe60806040525f8073ffffffffffffffffffffffffffffffffffffffff7f360894a13ba1a3210667c828492db98dca3e2076cc3735a920a3ca505d382bbc5416368280378136915af43d5f803e156053573d5ff35b3d5ffdfea2646970667358221220efd3ca988fdda9226ffa3fb6a447bf34662af469a6e10f66494d212177be74ab64736f6c634300081e00330000000000000000000000001d0c191a0fe2917e244826d3a8d0a64503efaec80000000000000000000000000000000000000000000000000000000000000040000000000000000000000000000000000000000000000000000000000000016402930bd10000000000000000000000003aa518bd9ee447e3f71c01b69a0d5d49c534e05f0000000000000000000000004466d52b714ef32657db89ec61fab1b7e30a03520000000000000000000000005c37eb148d4a261acd101e2b997a0f163fb3e3510000000000000000000000000000000000000000000000001b9e40816ee814000000000000000000000000000000000000000000000000001bc16d674ec800000000000000000000000000000000000000000000000000001bc1c85cb34e24000000000000000000000000000000000000000000000000000000000000000e100000000000000000000000000000000000000000000000000e043da6172500000000000000000000000000000000000000000000000000000d529ae9e86000000000000000000000000000000000000000000000000000001030d52701d2ee000000000000000000000000000000000000000000000000000000000000000bb800000000000000000000000000000000000000000000000000000000"
        },
        {
          "transactionType": "CREATE2",
          "contractName": "BeaconProxy",
          "address": "0x0e5eb844bc0a29c9b949137bbb13327f86809779",
          "initCode": "0x60a08060405261050d80380380916100178285610292565b833981016040828203126101eb5761002e826102c9565b602083015190926001600160401b0382116101eb57019080601f830112156101eb57815161005b816102dd565b926100696040519485610292565b8184526020840192602083830101116101eb57815f926020809301855e84010152823b15610274577fa3f0ad74e5423aebfd80d3ef4346578335a9a72aeaee59ff6cb3582b35133d5080546001600160a01b0319166001600160a01b038516908117909155604051635c60da1b60e01b8152909190602081600481865afa9081156101f7575f9161023a575b50803b1561021a5750817f1cf3b03a6cf19fa2baba4df148e9dcabedea7f8a5c07840e207e5c089be95d3e5f80a282511561020257602060049260405193848092635c60da1b60e01b82525afa9182156101f7575f926101ae575b505f809161018a945190845af43d156101a6573d9161016e836102dd565b9261017c6040519485610292565b83523d5f602085013e6102f8565b505b6080526040516101b6908161035782396080518160460152f35b6060916102f8565b9291506020833d6020116101ef575b816101ca60209383610292565b810103126101eb575f80916101e161018a956102c9565b9394509150610150565b5f80fd5b3d91506101bd565b6040513d5f823e3d90fd5b505050341561018c5763b398979f60e01b5f5260045ffd5b634c9c8ce360e01b5f9081526001600160a01b0391909116600452602490fd5b90506020813d60201161026c575b8161025560209383610292565b810103126101eb57610266906102c9565b5f6100f5565b3d9150610248565b631933b43b60e21b5f9081526001600160a01b038416600452602490fd5b601f909101601f19168101906001600160401b038211908210176102b557604052565b634e487b7160e01b5f52604160045260245ffd5b51906001600160a01b03821682036101eb57565b6001600160401b0381116102b557601f01601f191660200190565b9061031c575080511561030d57805190602001fd5b63d6bda27560e01b5f5260045ffd5b8151158061034d575b61032d575090565b639996b31560e01b5f9081526001600160a01b0391909116600452602490fd5b50803b1561032556fe60806040527f5c60da1b000000000000000000000000000000000000000000000000000000006080526020608060048173ffffffffffffffffffffffffffffffffffffffff7f0000000000000000000000000000000000000000000000000000000000000000165afa8015610107575f9015610163575060203d602011610100575b7fffffffffffffffffffffffffffffffffffffffffffffffffffffffffffffffe0601f820116608001906080821067ffffffffffffffff8311176100d3576100ce91604052608001610112565b610163565b7f4e487b71000000000000000000000000000000000000000000000000000000005f52604160045260245ffd5b503d610081565b6040513d5f823e3d90fd5b7fffffffffffffffffffffffffffffffffffffffffffffffffffffffffffffff80602091011261015f5760805173ffffffffffffffffffffffffffffffffffffffff8116810361015f5790565b5f80fd5b5f8091368280378136915af43d5f803e1561017c573d5ff35b3d5ffdfea26469706673582212205447fc6bdf2f5ebea38dad22e17329c0f45f58320ca5e5ca9b25c8c815cb469264736f6c634300081e0033000000000000000000000000603da735780e6bc7d04f3fb85c26dcccd4ff0a8200000000000000000000000000000000000000000000000000000000000000400000000000000000000000000000000000000000000000000000000000000104906571470000000000000000000000005c37eb148d4a261acd101e2b997a0f163fb3e351000000000000000000000000000000000000000000000000000000000000006000000000000000000000000000000000000000000000000000000000000000c0000000000000000000000000000000000000000000000000000000000000002850542d524c502d3444454332303235202f2055534443203278204c6576657261676520546f6b656e000000000000000000000000000000000000000000000000000000000000000000000000000000000000000000000000000000000000001750542d524c502d34444543323032352d555344432d327800000000000000000000000000000000000000000000000000000000000000000000000000"
        }
      ],
      "isFixedGasLimit": false
    }
  ],
  "receipts": [
    {
      "status": "0x1",
      "cumulativeGasUsed": "0x154b366",
      "logs": [
        {
          "address": "0x3a70f0c696dcb3a4ab3833cd9726397dd61ac85e",
          "topics": [
            "0x8c5be1e5ebec7d5bd14f71427d1e84f3dd0314c0f7b2291e5b200ac8c7c3b925",
            "0x0000000000000000000000003aa518bd9ee447e3f71c01b69a0d5d49c534e05f",
            "0x0000000000000000000000004466d52b714ef32657db89ec61fab1b7e30a0352"
          ],
          "data": "0x00000000000000000000000000000000000000000000000000000000001e8480",
          "blockHash": "0xe8bd29c2ad83d28ff73d0afa41b9f5985092e2d58fd8b59e68c060eaaff464c1",
          "blockNumber": "0x16a4585",
          "blockTimestamp": "0x690cdf67",
          "transactionHash": "0x78e4a88dbb77d5683d488817b45c3eec32fc100c8a143bc19154d819456765ce",
          "transactionIndex": "0xbd",
          "logIndex": "0x273",
          "removed": false
        }
      ],
      "logsBloom": "0x00000000200000000000000010000000000000000000000000000000000000000000000000000000000000000000000000000000000000000000000000200000000000000000000001000000000100000000000000000000000000000000000000000000000000000000000000000000000000000000000000000000000000002000000000000000000000000000000000000000000000000000000000000000120000000000000000000000000000000000000000000000000000010000000000000000000000000000000000000000000000000000000000000000000000000014400000000000000000000000000000000000000000000000000000000000",
      "type": "0x2",
      "transactionHash": "0x78e4a88dbb77d5683d488817b45c3eec32fc100c8a143bc19154d819456765ce",
      "transactionIndex": "0xbd",
      "blockHash": "0xe8bd29c2ad83d28ff73d0afa41b9f5985092e2d58fd8b59e68c060eaaff464c1",
      "blockNumber": "0x16a4585",
      "gasUsed": "0xb384",
      "effectiveGasPrice": "0x5c16e135",
      "from": "0x3aa518bd9ee447e3f71c01b69a0d5d49c534e05f",
      "to": "0x3a70f0c696dcb3a4ab3833cd9726397dd61ac85e",
      "contractAddress": null
    },
    {
      "status": "0x1",
      "cumulativeGasUsed": "0xdbd332",
      "logs": [
        {
          "address": "0xce05fbed9260810bdded179adfdaf737be7ded71",
          "topics": [
            "0x90a228f4b5bc611babf005ecebd48836d9c73714549183b216fec07d3ee4348c"
          ],
          "data": "0x0000000000000000000000003c91152121c194dce99492e1fb35af8f98a5d292",
          "blockHash": "0xd637d087180cafbb6fcc2928a52cc7edc4127be2543d75f64715caa9799af351",
          "blockNumber": "0x16a4586",
          "blockTimestamp": "0x690cdf73",
          "transactionHash": "0x35795404d4ce40ad6934e2bdd81c6776453bae7e9df0b260a5be4828b904254f",
          "transactionIndex": "0x53",
          "logIndex": "0x1a0",
          "removed": false
        },
        {
          "address": "0x3c91152121c194dce99492e1fb35af8f98a5d292",
          "topics": [
            "0x4936702b8ba221fe23c531f1a2d5ba3022c8e5238de7a4428155d32b367c129c",
            "0xa02ad0cf521ba5e5b20d1bcb98043eb091807e2b3bf26df5aad1ad154a3b8d45",
            "0x0000000000000000000000004466d52b714ef32657db89ec61fab1b7e30a0352"
          ],
          "data": "0x000000000000000000000000a0b86991c6218b36c1d19d4a2e9eb0ce3606eb480000000000000000000000003a70f0c696dcb3a4ab3833cd9726397dd61ac85e00000000000000000000000078b00016ebca1325a27ce201e26c07acdcd52e5e000000000000000000000000870ac11d48b15db9a138cf899d20f13f79ba00bc0000000000000000000000000000000000000000000000000bef55718ad60000",
          "blockHash": "0xd637d087180cafbb6fcc2928a52cc7edc4127be2543d75f64715caa9799af351",
          "blockNumber": "0x16a4586",
          "blockTimestamp": "0x690cdf73",
          "transactionHash": "0x35795404d4ce40ad6934e2bdd81c6776453bae7e9df0b260a5be4828b904254f",
          "transactionIndex": "0x53",
          "logIndex": "0x1a1",
          "removed": false
        },
        {
          "address": "0x3c91152121c194dce99492e1fb35af8f98a5d292",
          "topics": [
            "0xc7f505b2f371ae2175ee4913f4499e1f2633a7b5936321eed1cdaeb6115181d2"
          ],
          "data": "0x0000000000000000000000000000000000000000000000000000000000000001",
          "blockHash": "0xd637d087180cafbb6fcc2928a52cc7edc4127be2543d75f64715caa9799af351",
          "blockNumber": "0x16a4586",
          "blockTimestamp": "0x690cdf73",
          "transactionHash": "0x35795404d4ce40ad6934e2bdd81c6776453bae7e9df0b260a5be4828b904254f",
          "transactionIndex": "0x53",
          "logIndex": "0x1a2",
          "removed": false
        },
        {
          "address": "0x317133c30ea2555358d86d98d3c4d28fc7bd3bec",
          "topics": [
            "0xbc7cd75a20ee27fd9adebab32041f755214dbc6bffa90cc0225b39da2e5c2d3b",
            "0x0000000000000000000000001d0c191a0fe2917e244826d3a8d0a64503efaec8"
          ],
          "data": "0x",
          "blockHash": "0xd637d087180cafbb6fcc2928a52cc7edc4127be2543d75f64715caa9799af351",
          "blockNumber": "0x16a4586",
          "blockTimestamp": "0x690cdf73",
          "transactionHash": "0x35795404d4ce40ad6934e2bdd81c6776453bae7e9df0b260a5be4828b904254f",
          "transactionIndex": "0x53",
          "logIndex": "0x1a3",
          "removed": false
        },
        {
          "address": "0x317133c30ea2555358d86d98d3c4d28fc7bd3bec",
          "topics": [
            "0x1ac95be1853baa8304ed1d2e0260090f434df21565a173bfcf0e0b6fb2df9f20"
          ],
          "data": "0x0000000000000000000000000000000000000000000000000000000000000e100000000000000000000000000000000000000000000000000e043da6172500000000000000000000000000000000000000000000000000000d529ae9e8600000",
          "blockHash": "0xd637d087180cafbb6fcc2928a52cc7edc4127be2543d75f64715caa9799af351",
          "blockNumber": "0x16a4586",
          "blockTimestamp": "0x690cdf73",
          "transactionHash": "0x35795404d4ce40ad6934e2bdd81c6776453bae7e9df0b260a5be4828b904254f",
          "transactionIndex": "0x53",
          "logIndex": "0x1a4",
          "removed": false
        },
        {
          "address": "0x317133c30ea2555358d86d98d3c4d28fc7bd3bec",
          "topics": [
            "0x907e644655df3921a8519baf7b92482f53ebd8aa56d81dad48e2a324abe8c19a"
          ],
          "data": "0x0000000000000000000000000000000000000000000000001b9e40816ee814000000000000000000000000000000000000000000000000001bc16d674ec800000000000000000000000000000000000000000000000000001bc1c85cb34e2400",
          "blockHash": "0xd637d087180cafbb6fcc2928a52cc7edc4127be2543d75f64715caa9799af351",
          "blockNumber": "0x16a4586",
          "blockTimestamp": "0x690cdf73",
          "transactionHash": "0x35795404d4ce40ad6934e2bdd81c6776453bae7e9df0b260a5be4828b904254f",
          "transactionIndex": "0x53",
          "logIndex": "0x1a5",
          "removed": false
        },
        {
          "address": "0x317133c30ea2555358d86d98d3c4d28fc7bd3bec",
          "topics": [
            "0xae5d896f92e6367724d7b0e838e1ff0fbc15e278bd65035df77c2bdc565d6533"
          ],
          "data": "0x0000000000000000000000000000000000000000000000001030d52701d2ee000000000000000000000000000000000000000000000000000000000000000bb8",
          "blockHash": "0xd637d087180cafbb6fcc2928a52cc7edc4127be2543d75f64715caa9799af351",
          "blockNumber": "0x16a4586",
          "blockTimestamp": "0x690cdf73",
          "transactionHash": "0x35795404d4ce40ad6934e2bdd81c6776453bae7e9df0b260a5be4828b904254f",
          "transactionIndex": "0x53",
          "logIndex": "0x1a6",
          "removed": false
        },
        {
          "address": "0x317133c30ea2555358d86d98d3c4d28fc7bd3bec",
          "topics": [
            "0x8be0079c531659141344cd1fd0a4f28419497f9722a3daafe3b4186f6b6457e0",
            "0x0000000000000000000000000000000000000000000000000000000000000000",
            "0x0000000000000000000000003aa518bd9ee447e3f71c01b69a0d5d49c534e05f"
          ],
          "data": "0x",
          "blockHash": "0xd637d087180cafbb6fcc2928a52cc7edc4127be2543d75f64715caa9799af351",
          "blockNumber": "0x16a4586",
          "blockTimestamp": "0x690cdf73",
          "transactionHash": "0x35795404d4ce40ad6934e2bdd81c6776453bae7e9df0b260a5be4828b904254f",
          "transactionIndex": "0x53",
          "logIndex": "0x1a7",
          "removed": false
        },
        {
          "address": "0x317133c30ea2555358d86d98d3c4d28fc7bd3bec",
          "topics": [
            "0xf76781ab47911f3e8c8434949e746f9832a33ffd9d1e9c1c9e784c802561ede6",
            "0x0000000000000000000000004466d52b714ef32657db89ec61fab1b7e30a0352",
            "0x0000000000000000000000005c37eb148d4a261acd101e2b997a0f163fb3e351"
          ],
          "data": "0x",
          "blockHash": "0xd637d087180cafbb6fcc2928a52cc7edc4127be2543d75f64715caa9799af351",
          "blockNumber": "0x16a4586",
          "blockTimestamp": "0x690cdf73",
          "transactionHash": "0x35795404d4ce40ad6934e2bdd81c6776453bae7e9df0b260a5be4828b904254f",
          "transactionIndex": "0x53",
          "logIndex": "0x1a8",
          "removed": false
        },
        {
          "address": "0x317133c30ea2555358d86d98d3c4d28fc7bd3bec",
          "topics": [
            "0xc7f505b2f371ae2175ee4913f4499e1f2633a7b5936321eed1cdaeb6115181d2"
          ],
          "data": "0x0000000000000000000000000000000000000000000000000000000000000001",
          "blockHash": "0xd637d087180cafbb6fcc2928a52cc7edc4127be2543d75f64715caa9799af351",
          "blockNumber": "0x16a4586",
          "blockTimestamp": "0x690cdf73",
          "transactionHash": "0x35795404d4ce40ad6934e2bdd81c6776453bae7e9df0b260a5be4828b904254f",
          "transactionIndex": "0x53",
          "logIndex": "0x1a9",
          "removed": false
        },
        {
          "address": "0x0e5eb844bc0a29c9b949137bbb13327f86809779",
          "topics": [
            "0x1cf3b03a6cf19fa2baba4df148e9dcabedea7f8a5c07840e207e5c089be95d3e",
            "0x000000000000000000000000603da735780e6bc7d04f3fb85c26dcccd4ff0a82"
          ],
          "data": "0x",
          "blockHash": "0xd637d087180cafbb6fcc2928a52cc7edc4127be2543d75f64715caa9799af351",
          "blockNumber": "0x16a4586",
          "blockTimestamp": "0x690cdf73",
          "transactionHash": "0x35795404d4ce40ad6934e2bdd81c6776453bae7e9df0b260a5be4828b904254f",
          "transactionIndex": "0x53",
          "logIndex": "0x1aa",
          "removed": false
        },
        {
          "address": "0x0e5eb844bc0a29c9b949137bbb13327f86809779",
          "topics": [
            "0x8be0079c531659141344cd1fd0a4f28419497f9722a3daafe3b4186f6b6457e0",
            "0x0000000000000000000000000000000000000000000000000000000000000000",
            "0x0000000000000000000000005c37eb148d4a261acd101e2b997a0f163fb3e351"
          ],
          "data": "0x",
          "blockHash": "0xd637d087180cafbb6fcc2928a52cc7edc4127be2543d75f64715caa9799af351",
          "blockNumber": "0x16a4586",
          "blockTimestamp": "0x690cdf73",
          "transactionHash": "0x35795404d4ce40ad6934e2bdd81c6776453bae7e9df0b260a5be4828b904254f",
          "transactionIndex": "0x53",
          "logIndex": "0x1ab",
          "removed": false
        },
        {
          "address": "0x0e5eb844bc0a29c9b949137bbb13327f86809779",
          "topics": [
            "0x57d9c3176493540cc7a0fba3538e0908b18dfe9468541ad54ba54fd474d33fec"
          ],
          "data": "0x000000000000000000000000000000000000000000000000000000000000004000000000000000000000000000000000000000000000000000000000000000a0000000000000000000000000000000000000000000000000000000000000002850542d524c502d3444454332303235202f2055534443203278204c6576657261676520546f6b656e000000000000000000000000000000000000000000000000000000000000000000000000000000000000000000000000000000000000001750542d524c502d34444543323032352d555344432d3278000000000000000000",
          "blockHash": "0xd637d087180cafbb6fcc2928a52cc7edc4127be2543d75f64715caa9799af351",
          "blockNumber": "0x16a4586",
          "blockTimestamp": "0x690cdf73",
          "transactionHash": "0x35795404d4ce40ad6934e2bdd81c6776453bae7e9df0b260a5be4828b904254f",
          "transactionIndex": "0x53",
          "logIndex": "0x1ac",
          "removed": false
        },
        {
          "address": "0x0e5eb844bc0a29c9b949137bbb13327f86809779",
          "topics": [
            "0xc7f505b2f371ae2175ee4913f4499e1f2633a7b5936321eed1cdaeb6115181d2"
          ],
          "data": "0x0000000000000000000000000000000000000000000000000000000000000001",
          "blockHash": "0xd637d087180cafbb6fcc2928a52cc7edc4127be2543d75f64715caa9799af351",
          "blockNumber": "0x16a4586",
          "blockTimestamp": "0x690cdf73",
          "transactionHash": "0x35795404d4ce40ad6934e2bdd81c6776453bae7e9df0b260a5be4828b904254f",
          "transactionIndex": "0x53",
          "logIndex": "0x1ad",
          "removed": false
        },
        {
          "address": "0x603da735780e6bc7d04f3fb85c26dcccd4ff0a82",
          "topics": [
            "0xfc6ca44b2e0253d7b333f816a6b6e52e7292a56fd5f38e52946f9dfc812d698b",
            "0x0000000000000000000000000e5eb844bc0a29c9b949137bbb13327f86809779"
          ],
          "data": "0x000000000000000000000000000000000000000000000000000000000000004000000000000000000000000000000000000000000000000000000000000000030000000000000000000000000000000000000000000000000000000000000104906571470000000000000000000000005c37eb148d4a261acd101e2b997a0f163fb3e351000000000000000000000000000000000000000000000000000000000000006000000000000000000000000000000000000000000000000000000000000000c0000000000000000000000000000000000000000000000000000000000000002850542d524c502d3444454332303235202f2055534443203278204c6576657261676520546f6b656e000000000000000000000000000000000000000000000000000000000000000000000000000000000000000000000000000000000000001750542d524c502d34444543323032352d555344432d327800000000000000000000000000000000000000000000000000000000000000000000000000",
          "blockHash": "0xd637d087180cafbb6fcc2928a52cc7edc4127be2543d75f64715caa9799af351",
          "blockNumber": "0x16a4586",
          "blockTimestamp": "0x690cdf73",
          "transactionHash": "0x35795404d4ce40ad6934e2bdd81c6776453bae7e9df0b260a5be4828b904254f",
          "transactionIndex": "0x53",
          "logIndex": "0x1ae",
          "removed": false
        },
        {
          "address": "0x5c37eb148d4a261acd101e2b997a0f163fb3e351",
          "topics": [
            "0x9dc95718df096d1d699a19543ccd8b579bc4729ce2021eb4764ff654ed67a5dc",
            "0x0000000000000000000000000e5eb844bc0a29c9b949137bbb13327f86809779",
            "0x0000000000000000000000000000000000000000000000000000000000000000"
          ],
          "data": "0x0000000000000000000000000000000000000000000000000000000000000000",
          "blockHash": "0xd637d087180cafbb6fcc2928a52cc7edc4127be2543d75f64715caa9799af351",
          "blockNumber": "0x16a4586",
          "blockTimestamp": "0x690cdf73",
          "transactionHash": "0x35795404d4ce40ad6934e2bdd81c6776453bae7e9df0b260a5be4828b904254f",
          "transactionIndex": "0x53",
          "logIndex": "0x1af",
          "removed": false
        },
        {
          "address": "0x5c37eb148d4a261acd101e2b997a0f163fb3e351",
          "topics": [
            "0x9dc95718df096d1d699a19543ccd8b579bc4729ce2021eb4764ff654ed67a5dc",
            "0x0000000000000000000000000e5eb844bc0a29c9b949137bbb13327f86809779",
            "0x0000000000000000000000000000000000000000000000000000000000000001"
          ],
          "data": "0x0000000000000000000000000000000000000000000000000000000000000000",
          "blockHash": "0xd637d087180cafbb6fcc2928a52cc7edc4127be2543d75f64715caa9799af351",
          "blockNumber": "0x16a4586",
          "blockTimestamp": "0x690cdf73",
          "transactionHash": "0x35795404d4ce40ad6934e2bdd81c6776453bae7e9df0b260a5be4828b904254f",
          "transactionIndex": "0x53",
          "logIndex": "0x1b0",
          "removed": false
        },
        {
          "address": "0x5c37eb148d4a261acd101e2b997a0f163fb3e351",
          "topics": [
            "0x054728667e9fde2ae95b0b309983329748caba1b3df19081435adb8966c61514",
            "0x0000000000000000000000000e5eb844bc0a29c9b949137bbb13327f86809779"
          ],
          "data": "0x0000000000000000000000000000000000000000000000000000000000000000",
          "blockHash": "0xd637d087180cafbb6fcc2928a52cc7edc4127be2543d75f64715caa9799af351",
          "blockNumber": "0x16a4586",
          "blockTimestamp": "0x690cdf73",
          "transactionHash": "0x35795404d4ce40ad6934e2bdd81c6776453bae7e9df0b260a5be4828b904254f",
          "transactionIndex": "0x53",
          "logIndex": "0x1b1",
          "removed": false
        },
        {
          "address": "0x3c91152121c194dce99492e1fb35af8f98a5d292",
          "topics": [
            "0xa6df6ca83fcea66b6eed2551b21e0a3f078e6af9eb9dbb02d2312e3d94b5d77b"
          ],
          "data": "0x",
          "blockHash": "0xd637d087180cafbb6fcc2928a52cc7edc4127be2543d75f64715caa9799af351",
          "blockNumber": "0x16a4586",
          "blockTimestamp": "0x690cdf73",
          "transactionHash": "0x35795404d4ce40ad6934e2bdd81c6776453bae7e9df0b260a5be4828b904254f",
          "transactionIndex": "0x53",
          "logIndex": "0x1b2",
          "removed": false
        },
        {
          "address": "0x317133c30ea2555358d86d98d3c4d28fc7bd3bec",
          "topics": [
            "0xf2a0f2a76c50e4dc5a5d674a2b409d8fb294b648a1b7ce7a0cf9ddf5b898089a"
          ],
          "data": "0x0000000000000000000000000e5eb844bc0a29c9b949137bbb13327f86809779",
          "blockHash": "0xd637d087180cafbb6fcc2928a52cc7edc4127be2543d75f64715caa9799af351",
          "blockNumber": "0x16a4586",
          "blockTimestamp": "0x690cdf73",
          "transactionHash": "0x35795404d4ce40ad6934e2bdd81c6776453bae7e9df0b260a5be4828b904254f",
          "transactionIndex": "0x53",
          "logIndex": "0x1b3",
          "removed": false
        },
        {
          "address": "0x5c37eb148d4a261acd101e2b997a0f163fb3e351",
          "topics": [
            "0xc3f4681fb2a57a13e121c6f24fe319c8572bb001497f2b74712695625ee9028e",
            "0x0000000000000000000000000e5eb844bc0a29c9b949137bbb13327f86809779"
          ],
          "data": "0x0000000000000000000000003a70f0c696dcb3a4ab3833cd9726397dd61ac85e000000000000000000000000a0b86991c6218b36c1d19d4a2e9eb0ce3606eb480000000000000000000000003c91152121c194dce99492e1fb35af8f98a5d292000000000000000000000000317133c30ea2555358d86d98d3c4d28fc7bd3bec00000000000000000000000000000000000000000000000000000000000000000000000000000000000000000000000000000000000000000000000000000000",
          "blockHash": "0xd637d087180cafbb6fcc2928a52cc7edc4127be2543d75f64715caa9799af351",
          "blockNumber": "0x16a4586",
          "blockTimestamp": "0x690cdf73",
          "transactionHash": "0x35795404d4ce40ad6934e2bdd81c6776453bae7e9df0b260a5be4828b904254f",
          "transactionIndex": "0x53",
          "logIndex": "0x1b4",
          "removed": false
        },
        {
          "address": "0x3a70f0c696dcb3a4ab3833cd9726397dd61ac85e",
          "topics": [
            "0x8c5be1e5ebec7d5bd14f71427d1e84f3dd0314c0f7b2291e5b200ac8c7c3b925",
            "0x0000000000000000000000003aa518bd9ee447e3f71c01b69a0d5d49c534e05f",
            "0x0000000000000000000000004466d52b714ef32657db89ec61fab1b7e30a0352"
          ],
          "data": "0x0000000000000000000000000000000000000000000000000000000000000000",
          "blockHash": "0xd637d087180cafbb6fcc2928a52cc7edc4127be2543d75f64715caa9799af351",
          "blockNumber": "0x16a4586",
          "blockTimestamp": "0x690cdf73",
          "transactionHash": "0x35795404d4ce40ad6934e2bdd81c6776453bae7e9df0b260a5be4828b904254f",
          "transactionIndex": "0x53",
          "logIndex": "0x1b5",
          "removed": false
        },
        {
          "address": "0x3a70f0c696dcb3a4ab3833cd9726397dd61ac85e",
          "topics": [
            "0xddf252ad1be2c89b69c2b068fc378daa952ba7f163c4a11628f55a4df523b3ef",
            "0x0000000000000000000000003aa518bd9ee447e3f71c01b69a0d5d49c534e05f",
            "0x0000000000000000000000004466d52b714ef32657db89ec61fab1b7e30a0352"
          ],
          "data": "0x00000000000000000000000000000000000000000000000000000000001e8480",
          "blockHash": "0xd637d087180cafbb6fcc2928a52cc7edc4127be2543d75f64715caa9799af351",
          "blockNumber": "0x16a4586",
          "blockTimestamp": "0x690cdf73",
          "transactionHash": "0x35795404d4ce40ad6934e2bdd81c6776453bae7e9df0b260a5be4828b904254f",
          "transactionIndex": "0x53",
          "logIndex": "0x1b6",
          "removed": false
        },
        {
          "address": "0x3a70f0c696dcb3a4ab3833cd9726397dd61ac85e",
          "topics": [
            "0x8c5be1e5ebec7d5bd14f71427d1e84f3dd0314c0f7b2291e5b200ac8c7c3b925",
            "0x0000000000000000000000004466d52b714ef32657db89ec61fab1b7e30a0352",
            "0x0000000000000000000000005c37eb148d4a261acd101e2b997a0f163fb3e351"
          ],
          "data": "0x00000000000000000000000000000000000000000000000000000000001e8480",
          "blockHash": "0xd637d087180cafbb6fcc2928a52cc7edc4127be2543d75f64715caa9799af351",
          "blockNumber": "0x16a4586",
          "blockTimestamp": "0x690cdf73",
          "transactionHash": "0x35795404d4ce40ad6934e2bdd81c6776453bae7e9df0b260a5be4828b904254f",
          "transactionIndex": "0x53",
          "logIndex": "0x1b7",
          "removed": false
        },
        {
          "address": "0x3a70f0c696dcb3a4ab3833cd9726397dd61ac85e",
          "topics": [
            "0x8c5be1e5ebec7d5bd14f71427d1e84f3dd0314c0f7b2291e5b200ac8c7c3b925",
            "0x0000000000000000000000004466d52b714ef32657db89ec61fab1b7e30a0352",
            "0x0000000000000000000000005c37eb148d4a261acd101e2b997a0f163fb3e351"
          ],
          "data": "0x0000000000000000000000000000000000000000000000000000000000000000",
          "blockHash": "0xd637d087180cafbb6fcc2928a52cc7edc4127be2543d75f64715caa9799af351",
          "blockNumber": "0x16a4586",
          "blockTimestamp": "0x690cdf73",
          "transactionHash": "0x35795404d4ce40ad6934e2bdd81c6776453bae7e9df0b260a5be4828b904254f",
          "transactionIndex": "0x53",
          "logIndex": "0x1b8",
          "removed": false
        },
        {
          "address": "0x3a70f0c696dcb3a4ab3833cd9726397dd61ac85e",
          "topics": [
            "0xddf252ad1be2c89b69c2b068fc378daa952ba7f163c4a11628f55a4df523b3ef",
            "0x0000000000000000000000004466d52b714ef32657db89ec61fab1b7e30a0352",
            "0x0000000000000000000000005c37eb148d4a261acd101e2b997a0f163fb3e351"
          ],
          "data": "0x00000000000000000000000000000000000000000000000000000000001e8480",
          "blockHash": "0xd637d087180cafbb6fcc2928a52cc7edc4127be2543d75f64715caa9799af351",
          "blockNumber": "0x16a4586",
          "blockTimestamp": "0x690cdf73",
          "transactionHash": "0x35795404d4ce40ad6934e2bdd81c6776453bae7e9df0b260a5be4828b904254f",
          "transactionIndex": "0x53",
          "logIndex": "0x1b9",
          "removed": false
        },
        {
          "address": "0x3a70f0c696dcb3a4ab3833cd9726397dd61ac85e",
          "topics": [
            "0x8c5be1e5ebec7d5bd14f71427d1e84f3dd0314c0f7b2291e5b200ac8c7c3b925",
            "0x0000000000000000000000005c37eb148d4a261acd101e2b997a0f163fb3e351",
            "0x0000000000000000000000003c91152121c194dce99492e1fb35af8f98a5d292"
          ],
          "data": "0x00000000000000000000000000000000000000000000000000000000001e8480",
          "blockHash": "0xd637d087180cafbb6fcc2928a52cc7edc4127be2543d75f64715caa9799af351",
          "blockNumber": "0x16a4586",
          "blockTimestamp": "0x690cdf73",
          "transactionHash": "0x35795404d4ce40ad6934e2bdd81c6776453bae7e9df0b260a5be4828b904254f",
          "transactionIndex": "0x53",
          "logIndex": "0x1ba",
          "removed": false
        },
        {
          "address": "0x3a70f0c696dcb3a4ab3833cd9726397dd61ac85e",
          "topics": [
            "0x8c5be1e5ebec7d5bd14f71427d1e84f3dd0314c0f7b2291e5b200ac8c7c3b925",
            "0x0000000000000000000000005c37eb148d4a261acd101e2b997a0f163fb3e351",
            "0x0000000000000000000000003c91152121c194dce99492e1fb35af8f98a5d292"
          ],
          "data": "0x0000000000000000000000000000000000000000000000000000000000000000",
          "blockHash": "0xd637d087180cafbb6fcc2928a52cc7edc4127be2543d75f64715caa9799af351",
          "blockNumber": "0x16a4586",
          "blockTimestamp": "0x690cdf73",
          "transactionHash": "0x35795404d4ce40ad6934e2bdd81c6776453bae7e9df0b260a5be4828b904254f",
          "transactionIndex": "0x53",
          "logIndex": "0x1bb",
          "removed": false
        },
        {
          "address": "0x3a70f0c696dcb3a4ab3833cd9726397dd61ac85e",
          "topics": [
            "0xddf252ad1be2c89b69c2b068fc378daa952ba7f163c4a11628f55a4df523b3ef",
            "0x0000000000000000000000005c37eb148d4a261acd101e2b997a0f163fb3e351",
            "0x0000000000000000000000003c91152121c194dce99492e1fb35af8f98a5d292"
          ],
          "data": "0x00000000000000000000000000000000000000000000000000000000001e8480",
          "blockHash": "0xd637d087180cafbb6fcc2928a52cc7edc4127be2543d75f64715caa9799af351",
          "blockNumber": "0x16a4586",
          "blockTimestamp": "0x690cdf73",
          "transactionHash": "0x35795404d4ce40ad6934e2bdd81c6776453bae7e9df0b260a5be4828b904254f",
          "transactionIndex": "0x53",
          "logIndex": "0x1bc",
          "removed": false
        },
        {
          "address": "0x3a70f0c696dcb3a4ab3833cd9726397dd61ac85e",
          "topics": [
            "0x8c5be1e5ebec7d5bd14f71427d1e84f3dd0314c0f7b2291e5b200ac8c7c3b925",
            "0x0000000000000000000000003c91152121c194dce99492e1fb35af8f98a5d292",
            "0x000000000000000000000000bbbbbbbbbb9cc5e90e3b3af64bdaf62c37eeffcb"
          ],
          "data": "0x00000000000000000000000000000000000000000000000000000000001e8480",
          "blockHash": "0xd637d087180cafbb6fcc2928a52cc7edc4127be2543d75f64715caa9799af351",
          "blockNumber": "0x16a4586",
          "blockTimestamp": "0x690cdf73",
          "transactionHash": "0x35795404d4ce40ad6934e2bdd81c6776453bae7e9df0b260a5be4828b904254f",
          "transactionIndex": "0x53",
          "logIndex": "0x1bd",
          "removed": false
        },
        {
          "address": "0xbbbbbbbbbb9cc5e90e3b3af64bdaf62c37eeffcb",
          "topics": [
            "0xa3b9472a1399e17e123f3c2e6586c23e504184d504de59cdaa2b375e880c6184",
            "0xa02ad0cf521ba5e5b20d1bcb98043eb091807e2b3bf26df5aad1ad154a3b8d45",
            "0x0000000000000000000000003c91152121c194dce99492e1fb35af8f98a5d292",
            "0x0000000000000000000000003c91152121c194dce99492e1fb35af8f98a5d292"
          ],
          "data": "0x00000000000000000000000000000000000000000000000000000000001e8480",
          "blockHash": "0xd637d087180cafbb6fcc2928a52cc7edc4127be2543d75f64715caa9799af351",
          "blockNumber": "0x16a4586",
          "blockTimestamp": "0x690cdf73",
          "transactionHash": "0x35795404d4ce40ad6934e2bdd81c6776453bae7e9df0b260a5be4828b904254f",
          "transactionIndex": "0x53",
          "logIndex": "0x1be",
          "removed": false
        },
        {
          "address": "0x3a70f0c696dcb3a4ab3833cd9726397dd61ac85e",
          "topics": [
            "0x8c5be1e5ebec7d5bd14f71427d1e84f3dd0314c0f7b2291e5b200ac8c7c3b925",
            "0x0000000000000000000000003c91152121c194dce99492e1fb35af8f98a5d292",
            "0x000000000000000000000000bbbbbbbbbb9cc5e90e3b3af64bdaf62c37eeffcb"
          ],
          "data": "0x0000000000000000000000000000000000000000000000000000000000000000",
          "blockHash": "0xd637d087180cafbb6fcc2928a52cc7edc4127be2543d75f64715caa9799af351",
          "blockNumber": "0x16a4586",
          "blockTimestamp": "0x690cdf73",
          "transactionHash": "0x35795404d4ce40ad6934e2bdd81c6776453bae7e9df0b260a5be4828b904254f",
          "transactionIndex": "0x53",
          "logIndex": "0x1bf",
          "removed": false
        },
        {
          "address": "0x3a70f0c696dcb3a4ab3833cd9726397dd61ac85e",
          "topics": [
            "0xddf252ad1be2c89b69c2b068fc378daa952ba7f163c4a11628f55a4df523b3ef",
            "0x0000000000000000000000003c91152121c194dce99492e1fb35af8f98a5d292",
            "0x000000000000000000000000bbbbbbbbbb9cc5e90e3b3af64bdaf62c37eeffcb"
          ],
          "data": "0x00000000000000000000000000000000000000000000000000000000001e8480",
          "blockHash": "0xd637d087180cafbb6fcc2928a52cc7edc4127be2543d75f64715caa9799af351",
          "blockNumber": "0x16a4586",
          "blockTimestamp": "0x690cdf73",
          "transactionHash": "0x35795404d4ce40ad6934e2bdd81c6776453bae7e9df0b260a5be4828b904254f",
          "transactionIndex": "0x53",
          "logIndex": "0x1c0",
          "removed": false
        },
        {
          "address": "0x870ac11d48b15db9a138cf899d20f13f79ba00bc",
          "topics": [
            "0x7120161a7b3d31251e01294ab351ef15a41b91659a36032e4641bb89b121e321",
            "0xa02ad0cf521ba5e5b20d1bcb98043eb091807e2b3bf26df5aad1ad154a3b8d45"
          ],
          "data": "0x000000000000000000000000000000000000000000000000000000014fe678040000000000000000000000000000000000000000000000000000000083cb1358",
          "blockHash": "0xd637d087180cafbb6fcc2928a52cc7edc4127be2543d75f64715caa9799af351",
          "blockNumber": "0x16a4586",
          "blockTimestamp": "0x690cdf73",
          "transactionHash": "0x35795404d4ce40ad6934e2bdd81c6776453bae7e9df0b260a5be4828b904254f",
          "transactionIndex": "0x53",
          "logIndex": "0x1c1",
          "removed": false
        },
        {
          "address": "0xbbbbbbbbbb9cc5e90e3b3af64bdaf62c37eeffcb",
          "topics": [
            "0x9d9bd501d0657d7dfe415f779a620a62b78bc508ddc0891fbbd8b7ac0f8fce87",
            "0xa02ad0cf521ba5e5b20d1bcb98043eb091807e2b3bf26df5aad1ad154a3b8d45"
          ],
          "data": "0x000000000000000000000000000000000000000000000000000000014fe6780400000000000000000000000000000000000000000000000000000000004a4dc80000000000000000000000000000000000000000000000000000000000000000",
          "blockHash": "0xd637d087180cafbb6fcc2928a52cc7edc4127be2543d75f64715caa9799af351",
          "blockNumber": "0x16a4586",
          "blockTimestamp": "0x690cdf73",
          "transactionHash": "0x35795404d4ce40ad6934e2bdd81c6776453bae7e9df0b260a5be4828b904254f",
          "transactionIndex": "0x53",
          "logIndex": "0x1c2",
          "removed": false
        },
        {
          "address": "0xbbbbbbbbbb9cc5e90e3b3af64bdaf62c37eeffcb",
          "topics": [
            "0x570954540bed6b1304a87dfe815a5eda4a648f7097a16240dcd85c9b5fd42a43",
            "0xa02ad0cf521ba5e5b20d1bcb98043eb091807e2b3bf26df5aad1ad154a3b8d45",
            "0x0000000000000000000000003c91152121c194dce99492e1fb35af8f98a5d292",
            "0x0000000000000000000000005c37eb148d4a261acd101e2b997a0f163fb3e351"
          ],
          "data": "0x0000000000000000000000003c91152121c194dce99492e1fb35af8f98a5d29200000000000000000000000000000000000000000000000000000000000f1c8b000000000000000000000000000000000000000000000000000000e2a5f8582f",
          "blockHash": "0xd637d087180cafbb6fcc2928a52cc7edc4127be2543d75f64715caa9799af351",
          "blockNumber": "0x16a4586",
          "blockTimestamp": "0x690cdf73",
          "transactionHash": "0x35795404d4ce40ad6934e2bdd81c6776453bae7e9df0b260a5be4828b904254f",
          "transactionIndex": "0x53",
          "logIndex": "0x1c3",
          "removed": false
        },
        {
          "address": "0xa0b86991c6218b36c1d19d4a2e9eb0ce3606eb48",
          "topics": [
            "0xddf252ad1be2c89b69c2b068fc378daa952ba7f163c4a11628f55a4df523b3ef",
            "0x000000000000000000000000bbbbbbbbbb9cc5e90e3b3af64bdaf62c37eeffcb",
            "0x0000000000000000000000005c37eb148d4a261acd101e2b997a0f163fb3e351"
          ],
          "data": "0x00000000000000000000000000000000000000000000000000000000000f1c8b",
          "blockHash": "0xd637d087180cafbb6fcc2928a52cc7edc4127be2543d75f64715caa9799af351",
          "blockNumber": "0x16a4586",
          "blockTimestamp": "0x690cdf73",
          "transactionHash": "0x35795404d4ce40ad6934e2bdd81c6776453bae7e9df0b260a5be4828b904254f",
          "transactionIndex": "0x53",
          "logIndex": "0x1c4",
          "removed": false
        },
        {
          "address": "0xa0b86991c6218b36c1d19d4a2e9eb0ce3606eb48",
          "topics": [
            "0xddf252ad1be2c89b69c2b068fc378daa952ba7f163c4a11628f55a4df523b3ef",
            "0x0000000000000000000000005c37eb148d4a261acd101e2b997a0f163fb3e351",
            "0x0000000000000000000000004466d52b714ef32657db89ec61fab1b7e30a0352"
          ],
          "data": "0x00000000000000000000000000000000000000000000000000000000000f1c8b",
          "blockHash": "0xd637d087180cafbb6fcc2928a52cc7edc4127be2543d75f64715caa9799af351",
          "blockNumber": "0x16a4586",
          "blockTimestamp": "0x690cdf73",
          "transactionHash": "0x35795404d4ce40ad6934e2bdd81c6776453bae7e9df0b260a5be4828b904254f",
          "transactionIndex": "0x53",
          "logIndex": "0x1c5",
          "removed": false
        },
        {
          "address": "0x0e5eb844bc0a29c9b949137bbb13327f86809779",
          "topics": [
            "0xddf252ad1be2c89b69c2b068fc378daa952ba7f163c4a11628f55a4df523b3ef",
            "0x0000000000000000000000000000000000000000000000000000000000000000",
            "0x0000000000000000000000004466d52b714ef32657db89ec61fab1b7e30a0352"
          ],
          "data": "0x0000000000000000000000000000000000000000000000000de0b6b3a7640000",
          "blockHash": "0xd637d087180cafbb6fcc2928a52cc7edc4127be2543d75f64715caa9799af351",
          "blockNumber": "0x16a4586",
          "blockTimestamp": "0x690cdf73",
          "transactionHash": "0x35795404d4ce40ad6934e2bdd81c6776453bae7e9df0b260a5be4828b904254f",
          "transactionIndex": "0x53",
          "logIndex": "0x1c6",
          "removed": false
        },
        {
          "address": "0x5c37eb148d4a261acd101e2b997a0f163fb3e351",
          "topics": [
            "0xca0d4a1151cf4e7c20fcffb441cb3e88636d136769402e584ed509f78f896f61",
            "0x0000000000000000000000000e5eb844bc0a29c9b949137bbb13327f86809779",
            "0x0000000000000000000000004466d52b714ef32657db89ec61fab1b7e30a0352"
          ],
          "data": "0x00000000000000000000000000000000000000000000000000000000001e848000000000000000000000000000000000000000000000000000000000000f1c8b0000000000000000000000000000000000000000000000000de0b6b3a764000000000000000000000000000000000000000000000000000000000000000000000000000000000000000000000000000000000000000000000000000000000000",
          "blockHash": "0xd637d087180cafbb6fcc2928a52cc7edc4127be2543d75f64715caa9799af351",
          "blockNumber": "0x16a4586",
          "blockTimestamp": "0x690cdf73",
          "transactionHash": "0x35795404d4ce40ad6934e2bdd81c6776453bae7e9df0b260a5be4828b904254f",
          "transactionIndex": "0x53",
          "logIndex": "0x1c7",
          "removed": false
        },
        {
          "address": "0x0e5eb844bc0a29c9b949137bbb13327f86809779",
          "topics": [
            "0xddf252ad1be2c89b69c2b068fc378daa952ba7f163c4a11628f55a4df523b3ef",
            "0x0000000000000000000000004466d52b714ef32657db89ec61fab1b7e30a0352",
            "0x0000000000000000000000003aa518bd9ee447e3f71c01b69a0d5d49c534e05f"
          ],
          "data": "0x0000000000000000000000000000000000000000000000000de0b6b3a7640000",
          "blockHash": "0xd637d087180cafbb6fcc2928a52cc7edc4127be2543d75f64715caa9799af351",
          "blockNumber": "0x16a4586",
          "blockTimestamp": "0x690cdf73",
          "transactionHash": "0x35795404d4ce40ad6934e2bdd81c6776453bae7e9df0b260a5be4828b904254f",
          "transactionIndex": "0x53",
          "logIndex": "0x1c8",
          "removed": false
        },
        {
          "address": "0xa0b86991c6218b36c1d19d4a2e9eb0ce3606eb48",
          "topics": [
            "0xddf252ad1be2c89b69c2b068fc378daa952ba7f163c4a11628f55a4df523b3ef",
            "0x0000000000000000000000004466d52b714ef32657db89ec61fab1b7e30a0352",
            "0x0000000000000000000000003aa518bd9ee447e3f71c01b69a0d5d49c534e05f"
          ],
          "data": "0x00000000000000000000000000000000000000000000000000000000000f1c8b",
          "blockHash": "0xd637d087180cafbb6fcc2928a52cc7edc4127be2543d75f64715caa9799af351",
          "blockNumber": "0x16a4586",
          "blockTimestamp": "0x690cdf73",
          "transactionHash": "0x35795404d4ce40ad6934e2bdd81c6776453bae7e9df0b260a5be4828b904254f",
          "transactionIndex": "0x53",
          "logIndex": "0x1c9",
          "removed": false
        }
      ],
      "logsBloom": "0x0000020020040000000282401000008050000000403810400084c000004000000000402020200008000002000400000004000000000180000040000020a4404000020010001020000900000880110200a001000000240000000000080802000000000000020000000080000000024800000004008000000000000014000008442000008000000008000800000000080000000000010080202000000000004000120000004000300000420000000000010000000800000000800001010002000020000662000000000001000000020000020000200004000400800800000062100014404401000008000000200081202000000100008000000010000880008000",
      "type": "0x2",
      "transactionHash": "0x35795404d4ce40ad6934e2bdd81c6776453bae7e9df0b260a5be4828b904254f",
      "transactionIndex": "0x53",
      "blockHash": "0xd637d087180cafbb6fcc2928a52cc7edc4127be2543d75f64715caa9799af351",
      "blockNumber": "0x16a4586",
      "gasUsed": "0x1774ba",
      "effectiveGasPrice": "0x5e6712b4",
      "from": "0x3aa518bd9ee447e3f71c01b69a0d5d49c534e05f",
      "to": "0x4466d52b714ef32657db89ec61fab1b7e30a0352",
      "contractAddress": null
    }
  ],
  "libraries": [],
  "pending": [],
  "returns": {},
  "timestamp": 1762451351995,
  "chain": 1,
  "commit": "14116ad"
}