{
  "transactions": [
    {
      "hash": "0xacc2b7d11c0f3eb14a20a723ff067b0034698b462b41e65f51b6e34321edf5f8",
      "transactionType": "CALL",
      "contractName": null,
      "contractAddress": "0x4200000000000000000000000000000000000006",
      "function": "deposit()",
      "arguments": [],
      "transaction": {
        "from": "0xf39fd6e51aad88f6f4ce6ab8827279cfffb92266",
        "to": "0x4200000000000000000000000000000000000006",
        "gas": "0x10050",
        "value": "0x8ac7230489e80000",
        "input": "0xd0e30db0",
        "nonce": "0x5cc",
        "chainId": "0x2105"
      },
      "additionalContracts": [],
      "isFixedGasLimit": false
    },
    {
      "hash": "0xd9aedb4853de7fbdde392d939f1b3cbd4623e239c4f7b83e209cf554f14b190e",
      "transactionType": "CALL",
      "contractName": null,
      "contractAddress": "0x4200000000000000000000000000000000000006",
      "function": "approve(address,uint256)",
      "arguments": [
        "0xE594C57812a2f9fF9C2581E0Ca8fcBAEf0451793",
        "115792089237316195423570985008687907853269984665640564039457584007913129639935"
      ],
      "transaction": {
        "from": "0xf39fd6e51aad88f6f4ce6ab8827279cfffb92266",
        "to": "0x4200000000000000000000000000000000000006",
        "gas": "0xfa0a",
        "value": "0x0",
        "input": "0x095ea7b3000000000000000000000000e594c57812a2f9ff9c2581e0ca8fcbaef0451793ffffffffffffffffffffffffffffffffffffffffffffffffffffffffffffffff",
        "nonce": "0x5cd",
        "chainId": "0x2105"
      },
      "additionalContracts": [],
      "isFixedGasLimit": false
    },
    {
      "hash": "0x51e9f8b771eb3b9fa83b67914a96d37257248eccc5dc068c125851f7bd0150c5",
      "transactionType": "CALL",
      "contractName": null,
      "contractAddress": "0xe594c57812a2f9ff9c2581e0ca8fcbaef0451793",
      "function": "mint(address,uint256,uint256)",
      "arguments": [
        "0x15aD877B54859511Ff8f4d239347E93dFf8BBc25",
        "1000000000000000000",
        "0"
      ],
      "transaction": {
        "from": "0xf39fd6e51aad88f6f4ce6ab8827279cfffb92266",
        "to": "0xe594c57812a2f9ff9c2581e0ca8fcbaef0451793",
        "gas": "0xd038e",
        "value": "0x0",
        "input": "0x156e29f600000000000000000000000015ad877b54859511ff8f4d239347e93dff8bbc250000000000000000000000000000000000000000000000000de0b6b3a76400000000000000000000000000000000000000000000000000000000000000000000",
        "nonce": "0x5ce",
        "chainId": "0x2105"
      },
      "additionalContracts": [],
      "isFixedGasLimit": false
    }
  ],
  "receipts": [
    {
      "status": "0x1",
      "cumulativeGasUsed": "0xaf42",
      "logs": [
        {
          "address": "0x4200000000000000000000000000000000000006",
          "topics": [
            "0xe1fffcc4923d04b559f4d29a8bfc6cda04eb5b0d3c460751c2402c5c5cc9109c",
            "0x000000000000000000000000f39fd6e51aad88f6f4ce6ab8827279cfffb92266"
          ],
          "data": "0x0000000000000000000000000000000000000000000000008ac7230489e80000",
          "blockHash": "0xea924ece8e278b6c459ebe549c1d977f120697c68c813b6e76418df997798d2d",
          "blockNumber": "0x1d08264",
          "blockTimestamp": "0x682b6320",
          "transactionHash": "0xacc2b7d11c0f3eb14a20a723ff067b0034698b462b41e65f51b6e34321edf5f8",
          "transactionIndex": "0x0",
          "logIndex": "0x0",
          "removed": false
        }
      ],
      "logsBloom": "0x00000000000000000000000000000000000000000000000000040000000000000000000000000000000000100000000000000000000000000000000000000000000000000000000000000000000000000000000000000000000000008000000000000000000000000000000100000000000000000000000000000000000000000000000000000000000000000000000000000001002000000000000000000000000000000000000000000000000000000000000000000000000000000000000000000000000000200000000000000000000000002000000000000000000000000000000000000000000000000000000000000000000000400000000000000000",
      "type": "0x2",
      "transactionHash": "0xacc2b7d11c0f3eb14a20a723ff067b0034698b462b41e65f51b6e34321edf5f8",
      "transactionIndex": "0x0",
      "blockHash": "0xea924ece8e278b6c459ebe549c1d977f120697c68c813b6e76418df997798d2d",
      "blockNumber": "0x1d08264",
      "gasUsed": "0xaf42",
      "effectiveGasPrice": "0xdcbfc",
      "blobGasPrice": "0x1",
      "from": "0xf39fd6e51aad88f6f4ce6ab8827279cfffb92266",
      "to": "0x4200000000000000000000000000000000000006",
      "contractAddress": null
    },
    {
      "status": "0x1",
      "cumulativeGasUsed": "0xb507",
      "logs": [
        {
          "address": "0x4200000000000000000000000000000000000006",
          "topics": [
            "0x8c5be1e5ebec7d5bd14f71427d1e84f3dd0314c0f7b2291e5b200ac8c7c3b925",
            "0x000000000000000000000000f39fd6e51aad88f6f4ce6ab8827279cfffb92266",
            "0x000000000000000000000000e594c57812a2f9ff9c2581e0ca8fcbaef0451793"
          ],
          "data": "0xffffffffffffffffffffffffffffffffffffffffffffffffffffffffffffffff",
          "blockHash": "0x62e0bdaa987034475c19d9a037e8955275e52782c2a7e9b5c16c9b8c9b3c671d",
          "blockNumber": "0x1d08265",
          "blockTimestamp": "0x682b6320",
          "transactionHash": "0xd9aedb4853de7fbdde392d939f1b3cbd4623e239c4f7b83e209cf554f14b190e",
          "transactionIndex": "0x0",
          "logIndex": "0x0",
          "removed": false
        }
      ],
      "logsBloom": "0x00000000000000000000000000000000000000000000000000040000000000000000000000000000000000100000000000000000000000000000000000200000000000000000000000000000000000000000000000000000000000020000000000000000000000000000000100000000000000000000000000000000000000000000000000000000000000000000000000000000002000000000000000000000020000000000000000000000000000000000000000000000000000000000000000000000000000200000000080000000000000002000000000002000000000000010000000000000000000000000000000000000000000000000000000000000",
      "type": "0x2",
      "transactionHash": "0xd9aedb4853de7fbdde392d939f1b3cbd4623e239c4f7b83e209cf554f14b190e",
      "transactionIndex": "0x0",
      "blockHash": "0x62e0bdaa987034475c19d9a037e8955275e52782c2a7e9b5c16c9b8c9b3c671d",
      "blockNumber": "0x1d08265",
      "gasUsed": "0xb507",
      "effectiveGasPrice": "0xc8f6c",
      "blobGasPrice": "0x1",
      "from": "0xf39fd6e51aad88f6f4ce6ab8827279cfffb92266",
      "to": "0x4200000000000000000000000000000000000006",
      "contractAddress": null
    },
    {
      "status": "0x1",
      "cumulativeGasUsed": "0x976ed",
      "logs": [
        {
          "address": "0x15ad877b54859511ff8f4d239347e93dff8bbc25",
          "topics": [
            "0xddf252ad1be2c89b69c2b068fc378daa952ba7f163c4a11628f55a4df523b3ef",
            "0x0000000000000000000000000000000000000000000000000000000000000000",
            "0x000000000000000000000000f39fd6e51aad88f6f4ce6ab8827279cfffb92266"
          ],
          "data": "0x0000000000000000000000000000000000000000000000000000000000000000",
          "blockHash": "0x966a948825cacee0812840a249d0d8f62d14dbf9f26c1cb5d116dda533f7f420",
          "blockNumber": "0x1d08266",
          "blockTimestamp": "0x682b6320",
          "transactionHash": "0x51e9f8b771eb3b9fa83b67914a96d37257248eccc5dc068c125851f7bd0150c5",
          "transactionIndex": "0x0",
          "logIndex": "0x0",
          "removed": false
        },
        {
          "address": "0xe594c57812a2f9ff9c2581e0ca8fcbaef0451793",
          "topics": [
            "0x46d6b0f5c0c8ece3cf8b44ea4a05280c3827c74ffa5a3b9e9aad6ecc48505e19",
            "0x00000000000000000000000015ad877b54859511ff8f4d239347e93dff8bbc25"
          ],
          "data": "0x0000000000000000000000000000000000000000000000000000000000000000",
          "blockHash": "0x966a948825cacee0812840a249d0d8f62d14dbf9f26c1cb5d116dda533f7f420",
          "blockNumber": "0x1d08266",
          "blockTimestamp": "0x682b6320",
          "transactionHash": "0x51e9f8b771eb3b9fa83b67914a96d37257248eccc5dc068c125851f7bd0150c5",
          "transactionIndex": "0x0",
          "logIndex": "0x1",
          "removed": false
        },
        {
          "address": "0x4200000000000000000000000000000000000006",
          "topics": [
            "0xddf252ad1be2c89b69c2b068fc378daa952ba7f163c4a11628f55a4df523b3ef",
            "0x000000000000000000000000f39fd6e51aad88f6f4ce6ab8827279cfffb92266",
            "0x000000000000000000000000e594c57812a2f9ff9c2581e0ca8fcbaef0451793"
          ],
          "data": "0x0000000000000000000000000000000000000000000000001bc16d674ec80000",
          "blockHash": "0x966a948825cacee0812840a249d0d8f62d14dbf9f26c1cb5d116dda533f7f420",
          "blockNumber": "0x1d08266",
          "blockTimestamp": "0x682b6320",
          "transactionHash": "0x51e9f8b771eb3b9fa83b67914a96d37257248eccc5dc068c125851f7bd0150c5",
          "transactionIndex": "0x0",
          "logIndex": "0x2",
          "removed": false
        },
        {
          "address": "0x4200000000000000000000000000000000000006",
          "topics": [
            "0x8c5be1e5ebec7d5bd14f71427d1e84f3dd0314c0f7b2291e5b200ac8c7c3b925",
            "0x000000000000000000000000e594c57812a2f9ff9c2581e0ca8fcbaef0451793",
            "0x0000000000000000000000006fb16107207036223289029c154a9273e6c40040"
          ],
          "data": "0x0000000000000000000000000000000000000000000000001bc16d674ec80000",
          "blockHash": "0x966a948825cacee0812840a249d0d8f62d14dbf9f26c1cb5d116dda533f7f420",
          "blockNumber": "0x1d08266",
          "blockTimestamp": "0x682b6320",
          "transactionHash": "0x51e9f8b771eb3b9fa83b67914a96d37257248eccc5dc068c125851f7bd0150c5",
          "transactionIndex": "0x0",
          "logIndex": "0x3",
          "removed": false
        },
        {
          "address": "0x4200000000000000000000000000000000000006",
          "topics": [
            "0xddf252ad1be2c89b69c2b068fc378daa952ba7f163c4a11628f55a4df523b3ef",
            "0x000000000000000000000000e594c57812a2f9ff9c2581e0ca8fcbaef0451793",
            "0x0000000000000000000000006fb16107207036223289029c154a9273e6c40040"
          ],
          "data": "0x0000000000000000000000000000000000000000000000001bc16d674ec80000",
          "blockHash": "0x966a948825cacee0812840a249d0d8f62d14dbf9f26c1cb5d116dda533f7f420",
          "blockNumber": "0x1d08266",
          "blockTimestamp": "0x682b6320",
          "transactionHash": "0x51e9f8b771eb3b9fa83b67914a96d37257248eccc5dc068c125851f7bd0150c5",
          "transactionIndex": "0x0",
          "logIndex": "0x4",
          "removed": false
        },
        {
          "address": "0x4200000000000000000000000000000000000006",
          "topics": [
            "0x8c5be1e5ebec7d5bd14f71427d1e84f3dd0314c0f7b2291e5b200ac8c7c3b925",
            "0x0000000000000000000000006fb16107207036223289029c154a9273e6c40040",
            "0x000000000000000000000000bbbbbbbbbb9cc5e90e3b3af64bdaf62c37eeffcb"
          ],
          "data": "0x0000000000000000000000000000000000000000000000001bc16d674ec80000",
          "blockHash": "0x966a948825cacee0812840a249d0d8f62d14dbf9f26c1cb5d116dda533f7f420",
          "blockNumber": "0x1d08266",
          "blockTimestamp": "0x682b6320",
          "transactionHash": "0x51e9f8b771eb3b9fa83b67914a96d37257248eccc5dc068c125851f7bd0150c5",
          "transactionIndex": "0x0",
          "logIndex": "0x5",
          "removed": false
        },
        {
          "address": "0xbbbbbbbbbb9cc5e90e3b3af64bdaf62c37eeffcb",
          "topics": [
            "0xa3b9472a1399e17e123f3c2e6586c23e504184d504de59cdaa2b375e880c6184",
            "0x8793cf302b8ffd655ab97bd1c695dbd967807e8367a65cb2f4edaf1380ba1bda",
            "0x0000000000000000000000006fb16107207036223289029c154a9273e6c40040",
            "0x0000000000000000000000006fb16107207036223289029c154a9273e6c40040"
          ],
          "data": "0x0000000000000000000000000000000000000000000000001bc16d674ec80000",
          "blockHash": "0x966a948825cacee0812840a249d0d8f62d14dbf9f26c1cb5d116dda533f7f420",
          "blockNumber": "0x1d08266",
          "blockTimestamp": "0x682b6320",
          "transactionHash": "0x51e9f8b771eb3b9fa83b67914a96d37257248eccc5dc068c125851f7bd0150c5",
          "transactionIndex": "0x0",
          "logIndex": "0x6",
          "removed": false
        },
        {
          "address": "0x4200000000000000000000000000000000000006",
          "topics": [
            "0xddf252ad1be2c89b69c2b068fc378daa952ba7f163c4a11628f55a4df523b3ef",
            "0x0000000000000000000000006fb16107207036223289029c154a9273e6c40040",
            "0x000000000000000000000000bbbbbbbbbb9cc5e90e3b3af64bdaf62c37eeffcb"
          ],
          "data": "0x0000000000000000000000000000000000000000000000001bc16d674ec80000",
          "blockHash": "0x966a948825cacee0812840a249d0d8f62d14dbf9f26c1cb5d116dda533f7f420",
          "blockNumber": "0x1d08266",
          "blockTimestamp": "0x682b6320",
          "transactionHash": "0x51e9f8b771eb3b9fa83b67914a96d37257248eccc5dc068c125851f7bd0150c5",
          "transactionIndex": "0x0",
          "logIndex": "0x7",
          "removed": false
        },
        {
          "address": "0x46415998764c29ab2a25cbea6254146d50d22687",
          "topics": [
            "0x7120161a7b3d31251e01294ab351ef15a41b91659a36032e4641bb89b121e321",
            "0x8793cf302b8ffd655ab97bd1c695dbd967807e8367a65cb2f4edaf1380ba1bda"
          ],
          "data": "0x00000000000000000000000000000000000000000000000000000000587406e7000000000000000000000000000000000000000000000000000000006114ebe4",
          "blockHash": "0x966a948825cacee0812840a249d0d8f62d14dbf9f26c1cb5d116dda533f7f420",
          "blockNumber": "0x1d08266",
          "blockTimestamp": "0x682b6320",
          "transactionHash": "0x51e9f8b771eb3b9fa83b67914a96d37257248eccc5dc068c125851f7bd0150c5",
          "transactionIndex": "0x0",
          "logIndex": "0x8",
          "removed": false
        },
        {
          "address": "0xbbbbbbbbbb9cc5e90e3b3af64bdaf62c37eeffcb",
          "topics": [
            "0x9d9bd501d0657d7dfe415f779a620a62b78bc508ddc0891fbbd8b7ac0f8fce87",
            "0x8793cf302b8ffd655ab97bd1c695dbd967807e8367a65cb2f4edaf1380ba1bda"
          ],
          "data": "0x00000000000000000000000000000000000000000000000000000000587406e7000000000000000000000000000000000000000000000000000000000037dde80000000000000000000000000000000000000000000000000000000000000000",
          "blockHash": "0x966a948825cacee0812840a249d0d8f62d14dbf9f26c1cb5d116dda533f7f420",
          "blockNumber": "0x1d08266",
          "blockTimestamp": "0x682b6320",
          "transactionHash": "0x51e9f8b771eb3b9fa83b67914a96d37257248eccc5dc068c125851f7bd0150c5",
          "transactionIndex": "0x0",
          "logIndex": "0x9",
          "removed": false
        },
        {
          "address": "0xbbbbbbbbbb9cc5e90e3b3af64bdaf62c37eeffcb",
          "topics": [
            "0x570954540bed6b1304a87dfe815a5eda4a648f7097a16240dcd85c9b5fd42a43",
            "0x8793cf302b8ffd655ab97bd1c695dbd967807e8367a65cb2f4edaf1380ba1bda",
            "0x0000000000000000000000006fb16107207036223289029c154a9273e6c40040",
            "0x000000000000000000000000e594c57812a2f9ff9c2581e0ca8fcbaef0451793"
          ],
          "data": "0x0000000000000000000000006fb16107207036223289029c154a9273e6c400400000000000000000000000000000000000000000000000000000000094939e98000000000000000000000000000000000000000000000000000868d5c5f65423",
          "blockHash": "0x966a948825cacee0812840a249d0d8f62d14dbf9f26c1cb5d116dda533f7f420",
          "blockNumber": "0x1d08266",
          "blockTimestamp": "0x682b6320",
          "transactionHash": "0x51e9f8b771eb3b9fa83b67914a96d37257248eccc5dc068c125851f7bd0150c5",
          "transactionIndex": "0x0",
          "logIndex": "0xa",
          "removed": false
        },
        {
          "address": "0x833589fcd6edb6e08f4c7c32d4f71b54bda02913",
          "topics": [
            "0xddf252ad1be2c89b69c2b068fc378daa952ba7f163c4a11628f55a4df523b3ef",
            "0x000000000000000000000000bbbbbbbbbb9cc5e90e3b3af64bdaf62c37eeffcb",
            "0x000000000000000000000000e594c57812a2f9ff9c2581e0ca8fcbaef0451793"
          ],
          "data": "0x0000000000000000000000000000000000000000000000000000000094939e98",
          "blockHash": "0x966a948825cacee0812840a249d0d8f62d14dbf9f26c1cb5d116dda533f7f420",
          "blockNumber": "0x1d08266",
          "blockTimestamp": "0x682b6320",
          "transactionHash": "0x51e9f8b771eb3b9fa83b67914a96d37257248eccc5dc068c125851f7bd0150c5",
          "transactionIndex": "0x0",
          "logIndex": "0xb",
          "removed": false
        },
        {
          "address": "0x833589fcd6edb6e08f4c7c32d4f71b54bda02913",
          "topics": [
            "0xddf252ad1be2c89b69c2b068fc378daa952ba7f163c4a11628f55a4df523b3ef",
            "0x000000000000000000000000e594c57812a2f9ff9c2581e0ca8fcbaef0451793",
            "0x000000000000000000000000f39fd6e51aad88f6f4ce6ab8827279cfffb92266"
          ],
          "data": "0x0000000000000000000000000000000000000000000000000000000094939e98",
          "blockHash": "0x966a948825cacee0812840a249d0d8f62d14dbf9f26c1cb5d116dda533f7f420",
          "blockNumber": "0x1d08266",
          "blockTimestamp": "0x682b6320",
          "transactionHash": "0x51e9f8b771eb3b9fa83b67914a96d37257248eccc5dc068c125851f7bd0150c5",
          "transactionIndex": "0x0",
          "logIndex": "0xc",
          "removed": false
        },
        {
          "address": "0x15ad877b54859511ff8f4d239347e93dff8bbc25",
          "topics": [
            "0xddf252ad1be2c89b69c2b068fc378daa952ba7f163c4a11628f55a4df523b3ef",
            "0x0000000000000000000000000000000000000000000000000000000000000000",
            "0x000000000000000000000000f39fd6e51aad88f6f4ce6ab8827279cfffb92266"
          ],
          "data": "0x0000000000000000000000000000000000000000000000000000000000000000",
          "blockHash": "0x966a948825cacee0812840a249d0d8f62d14dbf9f26c1cb5d116dda533f7f420",
          "blockNumber": "0x1d08266",
          "blockTimestamp": "0x682b6320",
          "transactionHash": "0x51e9f8b771eb3b9fa83b67914a96d37257248eccc5dc068c125851f7bd0150c5",
          "transactionIndex": "0x0",
          "logIndex": "0xd",
          "removed": false
        },
        {
          "address": "0x15ad877b54859511ff8f4d239347e93dff8bbc25",
          "topics": [
            "0xddf252ad1be2c89b69c2b068fc378daa952ba7f163c4a11628f55a4df523b3ef",
            "0x0000000000000000000000000000000000000000000000000000000000000000",
            "0x000000000000000000000000f39fd6e51aad88f6f4ce6ab8827279cfffb92266"
          ],
          "data": "0x0000000000000000000000000000000000000000000000000de05bc096e9c000",
          "blockHash": "0x966a948825cacee0812840a249d0d8f62d14dbf9f26c1cb5d116dda533f7f420",
          "blockNumber": "0x1d08266",
          "blockTimestamp": "0x682b6320",
          "transactionHash": "0x51e9f8b771eb3b9fa83b67914a96d37257248eccc5dc068c125851f7bd0150c5",
          "transactionIndex": "0x0",
          "logIndex": "0xe",
          "removed": false
        },
        {
          "address": "0xe594c57812a2f9ff9c2581e0ca8fcbaef0451793",
          "topics": [
            "0x901a4e97f58b9f8de2338626292d1fc4698fc6884cb2cb616d5672ccdbca0449",
            "0x00000000000000000000000015ad877b54859511ff8f4d239347e93dff8bbc25",
            "0x000000000000000000000000f39fd6e51aad88f6f4ce6ab8827279cfffb92266"
          ],
          "data": "0x0000000000000000000000000000000000000000000000001bc16d674ec800000000000000000000000000000000000000000000000000000000000094939e980000000000000000000000000000000000000000000000000de0b6b3a76400000000000000000000000000000000000000000000000000000de05bc096e9c00000000000000000000000000000000000000000000000000000005af3107a40000000000000000000000000000000000000000000000000000000000000000000",
          "blockHash": "0x966a948825cacee0812840a249d0d8f62d14dbf9f26c1cb5d116dda533f7f420",
          "blockNumber": "0x1d08266",
          "blockTimestamp": "0x682b6320",
          "transactionHash": "0x51e9f8b771eb3b9fa83b67914a96d37257248eccc5dc068c125851f7bd0150c5",
          "transactionIndex": "0x0",
          "logIndex": "0xf",
          "removed": false
        }
      ],
      "logsBloom": "0x00000000000000000002000400000080000000000000040000040000000000000000400100000100000000100000100000000000000100000000000020a040000000000000300800100000084000000000000080000800000000000a0001000020800000020000000000000100002800000000000000000000000010000000000000008000000008000002000000000001000000002800000008000000000000020000000100000000000000000000000000000800000080000000000000000020000002000000200000800080000000000100002000000400002000000020000010004001000008000000280081200000000000000000000000000000000000",
      "type": "0x2",
      "transactionHash": "0x51e9f8b771eb3b9fa83b67914a96d37257248eccc5dc068c125851f7bd0150c5",
      "transactionIndex": "0x0",
      "blockHash": "0x966a948825cacee0812840a249d0d8f62d14dbf9f26c1cb5d116dda533f7f420",
      "blockNumber": "0x1d08266",
      "gasUsed": "0x976ed",
      "effectiveGasPrice": "0xb7a69",
      "blobGasPrice": "0x1",
      "from": "0xf39fd6e51aad88f6f4ce6ab8827279cfffb92266",
      "to": "0xe594c57812a2f9ff9c2581e0ca8fcbaef0451793",
      "contractAddress": null
    }
  ],
  "libraries": [],
  "pending": [],
  "returns": {},
  "timestamp": 1747706286,
  "chain": 8453,
  "commit": "2bb3bb5"
}