{
  "transactions": [
    {
      "hash": "0x25226e577a3af5db51e6aee833eef9ed8929cdb342ded58cf88537ffa88192b8",
      "transactionType": "CALL",
      "contractName": null,
      "contractAddress": "0x4200000000000000000000000000000000000006",
      "function": "deposit()",
      "arguments": [],
      "transaction": {
        "from": "0xf39fd6e51aad88f6f4ce6ab8827279cfffb92266",
        "to": "0x4200000000000000000000000000000000000006",
        "gas": "0x10050",
        "value": "0x8ac7230489e80000",
        "input": "0xd0e30db0",
        "nonce": "0x5cb",
        "chainId": "0x2105"
      },
      "additionalContracts": [],
      "isFixedGasLimit": false
    },
    {
      "hash": "0xa5da92cd55c1521fbaa7f9e5177acf1608a017de73e424ddca80c34e361f3194",
      "transactionType": "CALL",
      "contractName": null,
      "contractAddress": "0x4200000000000000000000000000000000000006",
      "function": "approve(address,uint256)",
      "arguments": [
        "0xf55Af0D2ee9B645D2DE0247353a7bAD71863e28F",
        "115792089237316195423570985008687907853269984665640564039457584007913129639935"
      ],
      "transaction": {
        "from": "0xf39fd6e51aad88f6f4ce6ab8827279cfffb92266",
        "to": "0x4200000000000000000000000000000000000006",
        "gas": "0xfa0a",
        "value": "0x0",
        "input": "0x095ea7b3000000000000000000000000f55af0d2ee9b645d2de0247353a7bad71863e28fffffffffffffffffffffffffffffffffffffffffffffffffffffffffffffffff",
        "nonce": "0x5cc",
        "chainId": "0x2105"
      },
      "additionalContracts": [],
      "isFixedGasLimit": false
    },
    {
      "hash": "0xe8e05b9c9d62987f45adcac4ae13a8ec067fec28c7586887e43e9b77b372cfe7",
      "transactionType": "CALL",
      "contractName": null,
      "contractAddress": "0xf55af0d2ee9b645d2de0247353a7bad71863e28f",
      "function": "mint(address,uint256,uint256)",
      "arguments": [
        "0x11da96BED61a0C517264316480778399C1f1b7E3",
        "1000000000000000000",
        "0"
      ],
      "transaction": {
        "from": "0xf39fd6e51aad88f6f4ce6ab8827279cfffb92266",
        "to": "0xf55af0d2ee9b645d2de0247353a7bad71863e28f",
        "gas": "0xd0e58",
        "value": "0x0",
        "input": "0x156e29f600000000000000000000000011da96bed61a0c517264316480778399c1f1b7e30000000000000000000000000000000000000000000000000de0b6b3a76400000000000000000000000000000000000000000000000000000000000000000000",
        "nonce": "0x5cd",
        "chainId": "0x2105"
      },
      "additionalContracts": [],
      "isFixedGasLimit": false
    }
  ],
  "receipts": [
    {
      "status": "0x1",
      "cumulativeGasUsed": "0xaf42",
      "logs": [
        {
          "address": "0x4200000000000000000000000000000000000006",
          "topics": [
            "0xe1fffcc4923d04b559f4d29a8bfc6cda04eb5b0d3c460751c2402c5c5cc9109c",
            "0x000000000000000000000000f39fd6e51aad88f6f4ce6ab8827279cfffb92266"
          ],
          "data": "0x0000000000000000000000000000000000000000000000008ac7230489e80000",
          "blockHash": "0x33fa816c3282eae7a56c0c92764228b334f862d6e2244b34bb72a723ada651a1",
          "blockNumber": "0x1cfe8e4",
          "blockTimestamp": "0x682a2f71",
          "transactionHash": "0x25226e577a3af5db51e6aee833eef9ed8929cdb342ded58cf88537ffa88192b8",
          "transactionIndex": "0x0",
          "logIndex": "0x0",
          "removed": false
        }
      ],
      "logsBloom": "0x00000000000000000000000000000000000000000000000000040000000000000000000000000000000000100000000000000000000000000000000000000000000000000000000000000000000000000000000000000000000000008000000000000000000000000000000100000000000000000000000000000000000000000000000000000000000000000000000000000001002000000000000000000000000000000000000000000000000000000000000000000000000000000000000000000000000000200000000000000000000000002000000000000000000000000000000000000000000000000000000000000000000000400000000000000000",
      "type": "0x2",
      "transactionHash": "0x25226e577a3af5db51e6aee833eef9ed8929cdb342ded58cf88537ffa88192b8",
      "transactionIndex": "0x0",
      "blockHash": "0x33fa816c3282eae7a56c0c92764228b334f862d6e2244b34bb72a723ada651a1",
      "blockNumber": "0x1cfe8e4",
      "gasUsed": "0xaf42",
      "effectiveGasPrice": "0x58be2",
      "blobGasPrice": "0x1",
      "from": "0xf39fd6e51aad88f6f4ce6ab8827279cfffb92266",
      "to": "0x4200000000000000000000000000000000000006",
      "contractAddress": null
    },
    {
      "status": "0x1",
      "cumulativeGasUsed": "0xb507",
      "logs": [
        {
          "address": "0x4200000000000000000000000000000000000006",
          "topics": [
            "0x8c5be1e5ebec7d5bd14f71427d1e84f3dd0314c0f7b2291e5b200ac8c7c3b925",
            "0x000000000000000000000000f39fd6e51aad88f6f4ce6ab8827279cfffb92266",
            "0x000000000000000000000000f55af0d2ee9b645d2de0247353a7bad71863e28f"
          ],
          "data": "0xffffffffffffffffffffffffffffffffffffffffffffffffffffffffffffffff",
          "blockHash": "0xbfdc1738223edf67c9bde03278c14c04c1ebbf0d54aed4b4da2417f229481873",
          "blockNumber": "0x1cfe8e5",
          "blockTimestamp": "0x682a2f71",
          "transactionHash": "0xa5da92cd55c1521fbaa7f9e5177acf1608a017de73e424ddca80c34e361f3194",
          "transactionIndex": "0x0",
          "logIndex": "0x0",
          "removed": false
        }
      ],
      "logsBloom": "0x00000000000000000000000000000000000000000000000000040000000000000000000000000000000000100000000000000000000000000000000000200000000000000000000000000000000000000000000000000000000200000000000000000000000000000000000100000000000000000000000000000000000000000000000000000000000000020000000000000000002000000000000000000000020000000000000000000000000000000000002000000000000000000000000000000000000000200000000000000000000000002000000000000000000000000010000000000000000000000000000000000000000000000000000000000000",
      "type": "0x2",
      "transactionHash": "0xa5da92cd55c1521fbaa7f9e5177acf1608a017de73e424ddca80c34e361f3194",
      "transactionIndex": "0x0",
      "blockHash": "0xbfdc1738223edf67c9bde03278c14c04c1ebbf0d54aed4b4da2417f229481873",
      "blockNumber": "0x1cfe8e5",
      "gasUsed": "0xb507",
      "effectiveGasPrice": "0x4faa4",
      "blobGasPrice": "0x1",
      "from": "0xf39fd6e51aad88f6f4ce6ab8827279cfffb92266",
      "to": "0x4200000000000000000000000000000000000006",
      "contractAddress": null
    },
    {
      "status": "0x1",
      "cumulativeGasUsed": "0x97ebd",
      "logs": [
        {
          "address": "0x11da96bed61a0c517264316480778399c1f1b7e3",
          "topics": [
            "0xddf252ad1be2c89b69c2b068fc378daa952ba7f163c4a11628f55a4df523b3ef",
            "0x0000000000000000000000000000000000000000000000000000000000000000",
            "0x00000000000000000000000004faa2826dbb38a7a4e9a5e3db26b9e389e761b6"
          ],
          "data": "0x0000000000000000000000000000000000000000000000000000000000000000",
          "blockHash": "0x4835871ec9ab9921d7433364c528e6cea9875cc4d0f59f4f1f1edbea06207449",
          "blockNumber": "0x1cfe8e6",
          "blockTimestamp": "0x682a2f71",
          "transactionHash": "0xe8e05b9c9d62987f45adcac4ae13a8ec067fec28c7586887e43e9b77b372cfe7",
          "transactionIndex": "0x0",
          "logIndex": "0x0",
          "removed": false
        },
        {
          "address": "0xf55af0d2ee9b645d2de0247353a7bad71863e28f",
          "topics": [
            "0x46d6b0f5c0c8ece3cf8b44ea4a05280c3827c74ffa5a3b9e9aad6ecc48505e19",
            "0x00000000000000000000000011da96bed61a0c517264316480778399c1f1b7e3"
          ],
          "data": "0x0000000000000000000000000000000000000000000000000000000000000000",
          "blockHash": "0x4835871ec9ab9921d7433364c528e6cea9875cc4d0f59f4f1f1edbea06207449",
          "blockNumber": "0x1cfe8e6",
          "blockTimestamp": "0x682a2f71",
          "transactionHash": "0xe8e05b9c9d62987f45adcac4ae13a8ec067fec28c7586887e43e9b77b372cfe7",
          "transactionIndex": "0x0",
          "logIndex": "0x1",
          "removed": false
        },
        {
          "address": "0x4200000000000000000000000000000000000006",
          "topics": [
            "0xddf252ad1be2c89b69c2b068fc378daa952ba7f163c4a11628f55a4df523b3ef",
            "0x000000000000000000000000f39fd6e51aad88f6f4ce6ab8827279cfffb92266",
            "0x000000000000000000000000f55af0d2ee9b645d2de0247353a7bad71863e28f"
          ],
          "data": "0x0000000000000000000000000000000000000000000000001bc16d674ec80000",
          "blockHash": "0x4835871ec9ab9921d7433364c528e6cea9875cc4d0f59f4f1f1edbea06207449",
          "blockNumber": "0x1cfe8e6",
          "blockTimestamp": "0x682a2f71",
          "transactionHash": "0xe8e05b9c9d62987f45adcac4ae13a8ec067fec28c7586887e43e9b77b372cfe7",
          "transactionIndex": "0x0",
          "logIndex": "0x2",
          "removed": false
        },
        {
          "address": "0x4200000000000000000000000000000000000006",
          "topics": [
            "0x8c5be1e5ebec7d5bd14f71427d1e84f3dd0314c0f7b2291e5b200ac8c7c3b925",
            "0x000000000000000000000000f55af0d2ee9b645d2de0247353a7bad71863e28f",
            "0x0000000000000000000000007191aa3fcb54e23f05c411132179a277a34a81c6"
          ],
          "data": "0x0000000000000000000000000000000000000000000000001bc16d674ec80000",
          "blockHash": "0x4835871ec9ab9921d7433364c528e6cea9875cc4d0f59f4f1f1edbea06207449",
          "blockNumber": "0x1cfe8e6",
          "blockTimestamp": "0x682a2f71",
          "transactionHash": "0xe8e05b9c9d62987f45adcac4ae13a8ec067fec28c7586887e43e9b77b372cfe7",
          "transactionIndex": "0x0",
          "logIndex": "0x3",
          "removed": false
        },
        {
          "address": "0x4200000000000000000000000000000000000006",
          "topics": [
            "0xddf252ad1be2c89b69c2b068fc378daa952ba7f163c4a11628f55a4df523b3ef",
            "0x000000000000000000000000f55af0d2ee9b645d2de0247353a7bad71863e28f",
            "0x0000000000000000000000007191aa3fcb54e23f05c411132179a277a34a81c6"
          ],
          "data": "0x0000000000000000000000000000000000000000000000001bc16d674ec80000",
          "blockHash": "0x4835871ec9ab9921d7433364c528e6cea9875cc4d0f59f4f1f1edbea06207449",
          "blockNumber": "0x1cfe8e6",
          "blockTimestamp": "0x682a2f71",
          "transactionHash": "0xe8e05b9c9d62987f45adcac4ae13a8ec067fec28c7586887e43e9b77b372cfe7",
          "transactionIndex": "0x0",
          "logIndex": "0x4",
          "removed": false
        },
        {
          "address": "0x4200000000000000000000000000000000000006",
          "topics": [
            "0x8c5be1e5ebec7d5bd14f71427d1e84f3dd0314c0f7b2291e5b200ac8c7c3b925",
            "0x0000000000000000000000007191aa3fcb54e23f05c411132179a277a34a81c6",
            "0x000000000000000000000000bbbbbbbbbb9cc5e90e3b3af64bdaf62c37eeffcb"
          ],
          "data": "0x0000000000000000000000000000000000000000000000001bc16d674ec80000",
          "blockHash": "0x4835871ec9ab9921d7433364c528e6cea9875cc4d0f59f4f1f1edbea06207449",
          "blockNumber": "0x1cfe8e6",
          "blockTimestamp": "0x682a2f71",
          "transactionHash": "0xe8e05b9c9d62987f45adcac4ae13a8ec067fec28c7586887e43e9b77b372cfe7",
          "transactionIndex": "0x0",
          "logIndex": "0x5",
          "removed": false
        },
        {
          "address": "0xbbbbbbbbbb9cc5e90e3b3af64bdaf62c37eeffcb",
          "topics": [
            "0xa3b9472a1399e17e123f3c2e6586c23e504184d504de59cdaa2b375e880c6184",
            "0x8793cf302b8ffd655ab97bd1c695dbd967807e8367a65cb2f4edaf1380ba1bda",
            "0x0000000000000000000000007191aa3fcb54e23f05c411132179a277a34a81c6",
            "0x0000000000000000000000007191aa3fcb54e23f05c411132179a277a34a81c6"
          ],
          "data": "0x0000000000000000000000000000000000000000000000001bc16d674ec80000",
          "blockHash": "0x4835871ec9ab9921d7433364c528e6cea9875cc4d0f59f4f1f1edbea06207449",
          "blockNumber": "0x1cfe8e6",
          "blockTimestamp": "0x682a2f71",
          "transactionHash": "0xe8e05b9c9d62987f45adcac4ae13a8ec067fec28c7586887e43e9b77b372cfe7",
          "transactionIndex": "0x0",
          "logIndex": "0x6",
          "removed": false
        },
        {
          "address": "0x4200000000000000000000000000000000000006",
          "topics": [
            "0xddf252ad1be2c89b69c2b068fc378daa952ba7f163c4a11628f55a4df523b3ef",
            "0x0000000000000000000000007191aa3fcb54e23f05c411132179a277a34a81c6",
            "0x000000000000000000000000bbbbbbbbbb9cc5e90e3b3af64bdaf62c37eeffcb"
          ],
          "data": "0x0000000000000000000000000000000000000000000000001bc16d674ec80000",
          "blockHash": "0x4835871ec9ab9921d7433364c528e6cea9875cc4d0f59f4f1f1edbea06207449",
          "blockNumber": "0x1cfe8e6",
          "blockTimestamp": "0x682a2f71",
          "transactionHash": "0xe8e05b9c9d62987f45adcac4ae13a8ec067fec28c7586887e43e9b77b372cfe7",
          "transactionIndex": "0x0",
          "logIndex": "0x7",
          "removed": false
        },
        {
          "address": "0x46415998764c29ab2a25cbea6254146d50d22687",
          "topics": [
            "0x7120161a7b3d31251e01294ab351ef15a41b91659a36032e4641bb89b121e321",
            "0x8793cf302b8ffd655ab97bd1c695dbd967807e8367a65cb2f4edaf1380ba1bda"
          ],
          "data": "0x000000000000000000000000000000000000000000000000000000005f352e6b0000000000000000000000000000000000000000000000000000000061405651",
          "blockHash": "0x4835871ec9ab9921d7433364c528e6cea9875cc4d0f59f4f1f1edbea06207449",
          "blockNumber": "0x1cfe8e6",
          "blockTimestamp": "0x682a2f71",
          "transactionHash": "0xe8e05b9c9d62987f45adcac4ae13a8ec067fec28c7586887e43e9b77b372cfe7",
          "transactionIndex": "0x0",
          "logIndex": "0x8",
          "removed": false
        },
        {
          "address": "0xbbbbbbbbbb9cc5e90e3b3af64bdaf62c37eeffcb",
          "topics": [
            "0x9d9bd501d0657d7dfe415f779a620a62b78bc508ddc0891fbbd8b7ac0f8fce87",
            "0x8793cf302b8ffd655ab97bd1c695dbd967807e8367a65cb2f4edaf1380ba1bda"
          ],
          "data": "0x000000000000000000000000000000000000000000000000000000005f352e6b0000000000000000000000000000000000000000000000000000000000202cfb0000000000000000000000000000000000000000000000000000000000000000",
          "blockHash": "0x4835871ec9ab9921d7433364c528e6cea9875cc4d0f59f4f1f1edbea06207449",
          "blockNumber": "0x1cfe8e6",
          "blockTimestamp": "0x682a2f71",
          "transactionHash": "0xe8e05b9c9d62987f45adcac4ae13a8ec067fec28c7586887e43e9b77b372cfe7",
          "transactionIndex": "0x0",
          "logIndex": "0x9",
          "removed": false
        },
        {
          "address": "0xbbbbbbbbbb9cc5e90e3b3af64bdaf62c37eeffcb",
          "topics": [
            "0x570954540bed6b1304a87dfe815a5eda4a648f7097a16240dcd85c9b5fd42a43",
            "0x8793cf302b8ffd655ab97bd1c695dbd967807e8367a65cb2f4edaf1380ba1bda",
            "0x0000000000000000000000007191aa3fcb54e23f05c411132179a277a34a81c6",
            "0x000000000000000000000000f55af0d2ee9b645d2de0247353a7bad71863e28f"
          ],
          "data": "0x0000000000000000000000007191aa3fcb54e23f05c411132179a277a34a81c60000000000000000000000000000000000000000000000000000000092b098e300000000000000000000000000000000000000000000000000084dc8ad132b08",
          "blockHash": "0x4835871ec9ab9921d7433364c528e6cea9875cc4d0f59f4f1f1edbea06207449",
          "blockNumber": "0x1cfe8e6",
          "blockTimestamp": "0x682a2f71",
          "transactionHash": "0xe8e05b9c9d62987f45adcac4ae13a8ec067fec28c7586887e43e9b77b372cfe7",
          "transactionIndex": "0x0",
          "logIndex": "0xa",
          "removed": false
        },
        {
          "address": "0x833589fcd6edb6e08f4c7c32d4f71b54bda02913",
          "topics": [
            "0xddf252ad1be2c89b69c2b068fc378daa952ba7f163c4a11628f55a4df523b3ef",
            "0x000000000000000000000000bbbbbbbbbb9cc5e90e3b3af64bdaf62c37eeffcb",
            "0x000000000000000000000000f55af0d2ee9b645d2de0247353a7bad71863e28f"
          ],
          "data": "0x0000000000000000000000000000000000000000000000000000000092b098e3",
          "blockHash": "0x4835871ec9ab9921d7433364c528e6cea9875cc4d0f59f4f1f1edbea06207449",
          "blockNumber": "0x1cfe8e6",
          "blockTimestamp": "0x682a2f71",
          "transactionHash": "0xe8e05b9c9d62987f45adcac4ae13a8ec067fec28c7586887e43e9b77b372cfe7",
          "transactionIndex": "0x0",
          "logIndex": "0xb",
          "removed": false
        },
        {
          "address": "0x833589fcd6edb6e08f4c7c32d4f71b54bda02913",
          "topics": [
            "0xddf252ad1be2c89b69c2b068fc378daa952ba7f163c4a11628f55a4df523b3ef",
            "0x000000000000000000000000f55af0d2ee9b645d2de0247353a7bad71863e28f",
            "0x000000000000000000000000f39fd6e51aad88f6f4ce6ab8827279cfffb92266"
          ],
          "data": "0x0000000000000000000000000000000000000000000000000000000092b098e3",
          "blockHash": "0x4835871ec9ab9921d7433364c528e6cea9875cc4d0f59f4f1f1edbea06207449",
          "blockNumber": "0x1cfe8e6",
          "blockTimestamp": "0x682a2f71",
          "transactionHash": "0xe8e05b9c9d62987f45adcac4ae13a8ec067fec28c7586887e43e9b77b372cfe7",
          "transactionIndex": "0x0",
          "logIndex": "0xc",
          "removed": false
        },
        {
          "address": "0x11da96bed61a0c517264316480778399c1f1b7e3",
          "topics": [
            "0xddf252ad1be2c89b69c2b068fc378daa952ba7f163c4a11628f55a4df523b3ef",
            "0x0000000000000000000000000000000000000000000000000000000000000000",
            "0x00000000000000000000000004faa2826dbb38a7a4e9a5e3db26b9e389e761b6"
          ],
          "data": "0x0000000000000000000000000000000000000000000000000000000000000000",
          "blockHash": "0x4835871ec9ab9921d7433364c528e6cea9875cc4d0f59f4f1f1edbea06207449",
          "blockNumber": "0x1cfe8e6",
          "blockTimestamp": "0x682a2f71",
          "transactionHash": "0xe8e05b9c9d62987f45adcac4ae13a8ec067fec28c7586887e43e9b77b372cfe7",
          "transactionIndex": "0x0",
          "logIndex": "0xd",
          "removed": false
        },
        {
          "address": "0x11da96bed61a0c517264316480778399c1f1b7e3",
          "topics": [
            "0xddf252ad1be2c89b69c2b068fc378daa952ba7f163c4a11628f55a4df523b3ef",
            "0x0000000000000000000000000000000000000000000000000000000000000000",
            "0x000000000000000000000000f39fd6e51aad88f6f4ce6ab8827279cfffb92266"
          ],
          "data": "0x0000000000000000000000000000000000000000000000000de05bc096e9c000",
          "blockHash": "0x4835871ec9ab9921d7433364c528e6cea9875cc4d0f59f4f1f1edbea06207449",
          "blockNumber": "0x1cfe8e6",
          "blockTimestamp": "0x682a2f71",
          "transactionHash": "0xe8e05b9c9d62987f45adcac4ae13a8ec067fec28c7586887e43e9b77b372cfe7",
          "transactionIndex": "0x0",
          "logIndex": "0xe",
          "removed": false
        },
        {
          "address": "0xf55af0d2ee9b645d2de0247353a7bad71863e28f",
          "topics": [
            "0x901a4e97f58b9f8de2338626292d1fc4698fc6884cb2cb616d5672ccdbca0449",
            "0x00000000000000000000000011da96bed61a0c517264316480778399c1f1b7e3",
            "0x000000000000000000000000f39fd6e51aad88f6f4ce6ab8827279cfffb92266"
          ],
          "data": "0x0000000000000000000000000000000000000000000000001bc16d674ec800000000000000000000000000000000000000000000000000000000000092b098e30000000000000000000000000000000000000000000000000de0b6b3a76400000000000000000000000000000000000000000000000000000de05bc096e9c00000000000000000000000000000000000000000000000000000005af3107a40000000000000000000000000000000000000000000000000000000000000000000",
          "blockHash": "0x4835871ec9ab9921d7433364c528e6cea9875cc4d0f59f4f1f1edbea06207449",
          "blockNumber": "0x1cfe8e6",
          "blockTimestamp": "0x682a2f71",
          "transactionHash": "0xe8e05b9c9d62987f45adcac4ae13a8ec067fec28c7586887e43e9b77b372cfe7",
          "transactionIndex": "0x0",
          "logIndex": "0xf",
          "removed": false
        }
      ],
      "logsBloom": "0x00000000000000000002000000000081000000000000000000040000000000000000400000000100000000100000100000000000000000000000000020a04000000000000010000010000008400000000000008000080000000200080000000008800000020000000000010100002800000000080000000000000010000000000000008004000008400002020000000401000000002000000008000000000000020000000000000000000000000000000000002800000001000080000000000020000002000000200000000000000000000100002000000400004000000021200010004401000008000000680081200000000000000000000100000000000000",
      "type": "0x2",
      "transactionHash": "0xe8e05b9c9d62987f45adcac4ae13a8ec067fec28c7586887e43e9b77b372cfe7",
      "transactionIndex": "0x0",
      "blockHash": "0x4835871ec9ab9921d7433364c528e6cea9875cc4d0f59f4f1f1edbea06207449",
      "blockNumber": "0x1cfe8e6",
      "gasUsed": "0x97ebd",
      "effectiveGasPrice": "0x47b8b",
      "blobGasPrice": "0x1",
      "from": "0xf39fd6e51aad88f6f4ce6ab8827279cfffb92266",
      "to": "0xf55af0d2ee9b645d2de0247353a7bad71863e28f",
      "contractAddress": null
    }
  ],
  "libraries": [],
  "pending": [],
  "returns": {},
  "timestamp": 1747627520,
  "chain": 8453,
  "commit": "9add81c"
}